:020000040800F2
:1000000000000520E52D00088D0500088F0500087B
:100010009105000893050008950500080000000000
:10002000000000000000000000000000A121000806
:10003000970500080000000041220008A5220008E2
:10004000352E0008352E0008352E0008352E000804
:10005000352E0008352E0008352E0008352E0008F4
:10006000352E0008352E0008352E0008352E0008E4
:10007000352E0008352E0008352E0008352E0008D4
:10008000352E0008352E0008352E0008352E0008C4
:10009000352E0008352E0008352E0008352E0008B4
:1000A000352E0008352E0008352E0008352E0008A4
:1000B000352E0008352E0008352E0008352E000894
:1000C000352E0008352E0008352E0008352E000884
:1000D000352E0008352E0008352E0008352E000874
:1000E000352E0008352E0008352E0008352E000864
:1000F000352E0008352E0008352E0008352E000854
:10010000352E0008352E0008352E0008352E000843
:10011000352E0008352E000899050008352E0008F8
:10012000352E0008352E0008352E0008352E000823
:10013000352E0008352E0008352E0008352E000813
:10014000352E0008352E0008352E0008352E000803
:10015000352E0008352E0008352E0008352E0008F3
:10016000352E0008352E0008352E0008352E0008E3
:10017000352E0008352E0008352E0008000000003E
:10018000352E0008352E0008352E0008352E0008C3
:10019000352E0008352E0008352E0008352E0008B3
:1001A000352E0008352E0008352E0008352E0008A3
:1001B000352E0008352E0008352E0008352E000893
:0801C000352E0008352E000861
:1001D00001F0FF01102A2BDB10F0070F08D010F8F8
:1001E000013B013A8B422DD010F0070F42B3F6D1FC
:1001F000F0B441EA012141EA014122F007047FF015
:1002000000070023F0E80256083C85EA010586EA6B
:10021000010685FA47F5A3FA87F586FA47F6A5FAA7
:1002200087F68EB9EED1F0BC01F0FF0102F00702B3
:1002300032B110F8013B013A83EA010313B1F8D15E
:100240000020704701387047002D06BF354603383F
:10025000073815F0010F07D1013015F4807F02BF78
:10026000013015F4C03F0130F0BC0138704700BFC9
:1002700053B94AB9002908BF00281CBF4FF0FF310D
:100280004FF0FF3000F00CB8ADF1080C6DE904CE72
:1002900003F03EFDDDF804E0DDE9022304B0704721
:1002A000704700BF10B5054C237833B9044B13B128
:1002B0000448AFF300800123237010BD6C000020C0
:1002C00000000000CC3F000808B5034B1BB10349F8
:1002D0000348AFF3008008BD00000000700000205C
:1002E000CC3F000808B5012001F0B2FEFBE700009A
:1002F000034B0360034B0B6080231360704700BF08
:10030000880200208800002010B588B00DF1040C90
:10031000074C0FCCACE80F0094E807008CE807000E
:10032000002101A801F061FE024B186008B010BD69
:10033000E43F0008DC02002084B00F4B1A6B42F04F
:1003400001021A631A6B02F001020192019A1A6B00
:1003500042F002021A631A6B02F002020292029A3F
:100360001A6B42F080021A631B6B03F08003039345
:10037000039B04B0704700BF0038024038B5044604
:1003800002F02AFD02F090FB05462246294603486A
:1003900002F014FE204602F0A9FCF6E70C4000082B
:1003A00008B50268034B9A4200D008BD00F08AF9F4
:1003B000FBE700BF0010004072B6FEE700B595B045
:1003C0003022002108A802F04EFE0023039304937C
:1003D000059306930793234B1A6C42F080521A64DC
:1003E0001B6C03F080530193019B1F4B1A6842F46E
:1003F00040421A601B6803F440430293029B0123AE
:1004000008934FF48033099302230E934FF4800234
:100410000F92192210924FF4D872119212931393E3
:1004200008A800F003FBB0B900F0C2FAA8B90F2386
:10043000039302230493002305934FF4A0530693E0
:100440004FF480530793072103A800F05DFD30B9F6
:1004500015B05DF804FBFFF7AFFFFFF7ADFFFFF747
:10046000ABFF00BF003802400070004010B584B000
:100470000024039400F01AF9FFF7A0FFFFF75CFFD8
:1004800000F09CF803AB019300944FF47A731A4682
:100490000449054802F091FAFFF736FF01F0A0FD8C
:1004A000FEE700BF444000087D03000800B583B0AC
:1004B0000D4B1A6C42F080521A641A6C02F0805292
:1004C0000092009A5A6C42F480425A645B6C03F4C6
:1004D00080430193019B00220F216FF0010000F087
:1004E00047F903B05DF804FB0038024030B589B02D
:1004F0000446214B1A6C42F010021A641B6C03F084
:1005000010030193019B02A903A800F0D9FD069BEB
:10051000CBB900F0B5FD0346184AA2FB03239B0CA0
:10052000013B1748174A026040F2E732C26043605D
:10053000002303618360836101F05AFA054630B1FC
:10054000284609B030BD00F09BFD4300E4E70C48AD
:1005500001F0ACF805460028F2D1362000F018F979
:100560000F2C01D90125EBE700222146362000F0AF
:10057000FFF8054B1C60E3E70038024083DE1B43B5
:10058000E00200200010004008000020FEE7FEE727
:10059000FEE7FEE7FEE7704708B5024801F0D2F833
:1005A00008BD00BFE0020020034AD2F8883043F4BF
:1005B0007003C2F88830704700ED00E008B50B48C2
:1005C0000B4B03604FF4E133436000238360C3604F
:1005D00003610C2242618361C3610362436201F0E3
:1005E000C8FC00B908BDFFF7E7FEFBE72C030020BD
:1005F00000100140F0B5ABB00446002125912691D2
:10060000279128912991842204A802F02CFD2268C8
:10061000224B9A4201D02BB0F0BD4023049304A892
:1006200000F06CFD002835D11D4B5A6C42F01002D1
:100630005A645A6C02F010020192019A1A6B42F04D
:1006400002021A631A6B02F002020292029A1A6BF9
:1006500042F001021A631B6B03F001030393039B37
:100660008023259302272697002627960325289581
:100670000724299425A90B4800F098F84FF400733B
:100680002593269727962895299425A9064800F0B2
:100690008DF8C0E7FFF790FEC6E700BF00100140ED
:1006A00000380240000402400000024008B5032068
:1006B00000F04CF80F20FFF719FFFFF7F7FE0020BE
:1006C00008BD0000034A1168034B1B780B441360FC
:1006D000704700BFB403002004000020014B1868DD
:1006E000704700BFB4030020002804DB0901C9B231
:1006F000044B1954704700F00F000901C9B2024BB6
:100700001954704700E400E014ED00E000B500F07B
:100710000700C0F1070CBCF1040F28BF4FF0040C18
:10072000031D062B0FD9C31E4FF0FF3E0EFA0CF02F
:1007300021EA000199400EFA03FE22EA0E0241EA84
:1007400002005DF804FB0023EEE700000649CB68D9
:1007500023F4E0631B041B0C000200F4E06003437D
:10076000024A1A43CA60704700ED00E00000FA0533
:1007700010B50446054BD868C0F30220FFF7C6FF4A
:1007800001462046FFF7B0FF10BD00BF00ED00E0BE
:10079000002807DB00F01F02400901239340024AB2
:1007A00042F82030704700BF00E100E000230F2B2B
:1007B00000F2F48070B582B066E085684FEA430EBF
:1007C000032404FA0EF425EA0405CC6804FA0EF4B6
:1007D0002C438460446824EA02044A68C2F300128D
:1007E0009A40224342605DE0DC08083450F824203F
:1007F00003F00705AD004FF00F0E0EFA05FE22EADA
:100800000E0E0A69AA4042EA0E0240F824205DE07A
:10081000092200E0002202FA0EF22A430234604D5F
:1008200045F824205F4A94686FEA0C0224EA0C051C
:100830004E6816F4801F01D04CEA0405594CA5609F
:10084000E46802EA04054E6816F4001F01D04CEA81
:100850000405544CE560646802EA04054E6816F429
:10086000003F01D04CEA04054E4C656024682240EC
:100870004D6815F4803F01D04CEA0402494C2260D7
:1008800001330F2B00F2888001229A400C6804EAA1
:10089000020C32EA0404F3D14C6804F00304013C76
:1008A000012C8AD94A6802F00302032A09D0C468DD
:1008B0005D000322AA4024EA02048A68AA40224377
:1008C000C2604A6802F00302022A8DD004684FEA2F
:1008D000430E032202FA0EF224EA02044A6802F0EE
:1008E000030202FA0EF2224302604A6812F4403F09
:1008F000C6D02D4A546C44F480445464526C02F4C3
:1009000080420192019A9C08A51C254A52F8255064
:1009100003F0030E4FEA8E0E0F2202FA0EF225EAC2
:100920000205224A90423FF475AF02F58062904280
:1009300022D002F58062904220D002F5806290427F
:100940001ED002F5806290421CD002F58062904277
:100950001AD002F58062904218D002F5806290426F
:1009600016D002F58062904214D002F58062904267
:100970003FF44EAF0A224EE701224CE702224AE73B
:10098000032248E7042246E7052244E7062242E71D
:10099000072240E708223EE702B070BD704700BF63
:1009A00000380140003C0140003802400000024095
:1009B00010B582B01B4B1A6C42F080521A641B6C4B
:1009C00003F080530193019B174A136843F480336B
:1009D0001360FFF783FE0446134B5B6813F4803FFC
:1009E00008D1FFF77BFE001BB0F57A7FF4D9032016
:1009F00002B010BD0C4A136843F400331360FFF7D4
:100A00006DFE0446084B5B6813F4003F07D1FFF707
:100A100065FE001BB0F57A7FF4D90320E8E70020DB
:100A2000E6E700BF0038024000700040002800F0F8
:100A3000FF8170B582B00446036813F0010F29D01E
:100A4000954B9B6803F00C03042B1AD0924B9B68C8
:100A500003F00C03082B0FD06368B3F5803F40D040
:100A6000002B54D18C4B1A6822F480321A601A6819
:100A700022F480221A6039E0874B5B6813F4800F00
:100A8000EAD0854B1B6813F4003F03D06368002B4A
:100A900000F0D081236813F0020F74D07E4B9B6866
:100AA00013F00C0F5ED07C4B9B6803F00C03082BFB
:100AB00053D0E368002B00F08980774A136843F035
:100AC00001031360FFF70AFE0546734B1B6813F022
:100AD000020F72D1FFF702FE401B0228F5D9032056
:100AE000ADE16D4A136843F48033136063682BB340
:100AF000FFF7F4FD0546684B1B6813F4003FC9D1AE
:100B0000FFF7ECFD401B6428F5D9032097E1B3F50E
:100B1000A02F09D0604B1A6822F480321A601A683C
:100B200022F480221A60E1E75B4B1A6842F48022CB
:100B30001A601A6842F480321A60D7E7FFF7CEFDD8
:100B40000546554B1B6813F4003FA3D0FFF7C6FDC5
:100B5000401B6428F5D9032071E14F4B5B6813F407
:100B6000800FA6D14C4B1B6813F0020F03D0E36833
:100B7000012B40F06181484A136823F0F803216992
:100B800043EAC1031360236813F0080F46D063697A
:100B900083B3414A536F43F001035367FFF79EFD50
:100BA00005463D4B5B6F13F0020F37D1FFF796FD03
:100BB000401B0228F5D9032041E1374A136823F08E
:100BC000F803216943EAC1031360DCE7324A136882
:100BD00023F001031360FFF781FD05462E4B1B68D0
:100BE00013F0020FCFD0FFF779FD401B0228F5D993
:100BF000032024E1284A536F23F001035367FFF7D2
:100C00006DFD0546244B5B6F13F0020F06D0FFF716
:100C100065FD401B0228F5D9032010E1236813F07D
:100C2000040F7DD01C4B1B6C13F0805F1ED11A4B40
:100C30001A6C42F080521A641B6C03F080530193CB
:100C4000019B0125154B1B6813F4807F10D0A3680E
:100C5000012B25D0002B3BD10F4B1A6F22F0010244
:100C60001A671A6F22F004021A671EE00025E9E7EE
:100C70000A4A136843F480731360FFF72FFD06469A
:100C8000064B1B6813F4807FE1D1FFF727FD801B23
:100C90006428F5D90320D2E00038024000700040FB
:100CA0006E4A136F43F001031367A36833B3FFF772
:100CB00015FD0646694B1B6F13F0020F2FD1FFF78E
:100CC0000DFD801B41F288339842F3D90320B6E032
:100CD000052B09D0614B1A6F22F001021A671A6FB7
:100CE00022F004021A67E0E75C4B1A6F42F004023C
:100CF0001A671A6F42F001021A67D6E7FFF7EEFC97
:100D00000646564B1B6F13F0020F08D0FFF7E6FCA8
:100D1000801B41F288339842F3D903208FE0FDB95C
:100D2000A369002B00F08A804C4A926802F00C0202
:100D3000082A58D0022B19D0484A136823F0807330
:100D40001360FFF7CBFC0446444B1B6813F0007F95
:100D500047D0FFF7C3FC001B0228F5D903206EE043
:100D60003E4A136C23F080531364D9E73B4A13685F
:100D700023F080731360FFF7B1FC0546374B1B6807
:100D800013F0007F06D0FFF7A9FC401B0228F5D91D
:100D9000032054E0E369226A1343626A43EA821340
:100DA000A26A5208013A43EA0243E26A43EA026352
:100DB00043F00053294A5360136843F08073136073
:100DC000FFF78CFC0446254B1B6813F0007F06D10F
:100DD000FFF784FC001B0228F5D903202FE0002038
:100DE0002DE000202BE01D4A5268012B29D002F48F
:100DF0008003E1698B4226D102F03F03216A8B42D6
:100E000023D1616A47F6C0731340B3EB811F1ED133
:100E100002F44031A36A5B08013BB1EB034F18D1E8
:100E200002F07062E36AB2EB036F14D1002006E0B7
:100E300001207047012002E0012000E0002002B004
:100E400070BD0120FBE70120F9E70120F7E7012051
:100E5000F5E70120F3E70120F1E700BF0038024089
:100E600008B5264B9B6803F00C03042B41D0082BDC
:100E700041D1224B5A6802F03F025B6813F4800FA5
:100E800012D01E4B5968C1F388111D480023A1FBE5
:100E90000001FFF7EDF9194B5B68C3F30143013320
:100EA0005B00B0FBF3F027E0144B5868C0F38810E8
:100EB0004FEA401CBCEB000C6EEB0E0E4FEA8E139B
:100EC00043EA9C634FEA8C11B1EB0C0163EB0E0318
:100ED000DB0043EA5173C90011EB000C43F100033E
:100EE000990200234FEA8C2041EA9C51FFF7C0F998
:100EF000D1E7034800E0034808BD00BF00380240C6
:100F000040787D010024F400002800F0A08070B536
:100F10000D460446524B1B6803F00F038B420BD265
:100F20004F4A136823F00F030B431360136803F059
:100F30000F038B4240F08D80236813F0020F17D00F
:100F400013F0040F04D0474A936843F4E0539360CE
:100F5000236813F0080F04D0424A936843F46043B7
:100F60009360404A936823F0F003A1680B439360B9
:100F7000236813F0010F31D06368012B20D0022BBE
:100F800025D0384A126812F0020F64D035498A68B9
:100F900022F0030213438B60FFF7A0FB0646314BA0
:100FA0009B6803F00C036268B3EB820F16D0FFF767
:100FB00095FB801B41F288339842F0D9032045E02D
:100FC000284A126812F4003FE0D101203EE0254A91
:100FD000126812F0007FD9D1012037E0204B1B6846
:100FE00003F00F03AB420AD91D4A136823F00F0325
:100FF0002B431360136803F00F03AB422DD123681A
:1010000013F0040F06D0174A936823F4E053E16805
:101010000B439360236813F0080F07D0114A9368BD
:1010200023F46043216943EAC1039360FFF718FF8B
:101030000C4B9B68C3F303130B4AD35CD8400B4B98
:1010400018600B4B1868FFF751FA002070BD0120A3
:1010500070470120FAE70120F8E70120F6E700BF1A
:10106000003C0240003802405440000800000020CC
:1010700008000020014B1868704700BF00000020E6
:1010800008B5FFF7F7FF044B9B68C3F38223034ABD
:10109000D35CD84008BD00BF003802404C40000877
:1010A00008B5FFF7E7FF044B9B68C3F34233034ADD
:1010B000D35CD84008BD00BF003802404C40000857
:1010C0000F2303600B4B9A6802F0030242609A6898
:1010D00002F0F00282609A6802F4E052C2609B68FB
:1010E000DB0803F4E0530361034B1B6803F00F03B9
:1010F0000B60704700380240003C0240F0B583B0FE
:101100000446066816F001060DD0A74B9A6822F433
:1011100000029A609A68416B0A439A60436B002B05
:1011200000F039810026256815F4002511D09E4A6B
:10113000D2F88C3023F44013E16B0B43C2F88C30AF
:10114000E36BB3F5801F00F02881002B00F02781AE
:101150000025236813F4801F0FD0934AD2F88C30F7
:1011600023F44003216C0B43C2F88C30236CB3F59D
:10117000800F00F0168103B90125236813F0807FEA
:1011800000D0012613F0200F40F01081236813F0E7
:10119000100F0CD0844BD3F88C2022F08072C3F84F
:1011A0008C20D3F88C20A16B0A43C3F88C202368D1
:1011B00013F4804F08D07C4AD2F8903023F44033A7
:1011C000616E0B43C2F89030236813F4004F08D0CF
:1011D000754AD2F8903023F44023A16E0B43C2F835
:1011E0009030236813F4803F08D06F4AD2F89030D3
:1011F00023F44013E16E0B43C2F89030236813F4DC
:10120000003F08D0684AD2F8903023F44003216FA1
:101210000B43C2F89030236813F0400F08D0624AA5
:10122000D2F8903023F00303616C0B43C2F8903086
:10123000236813F0800F08D05B4AD2F8903023F077
:101240000C03A16C0B43C2F89030236813F4807F29
:1012500008D0554AD2F8903023F03003E16C0B43AC
:10126000C2F89030236813F4007F08D04E4AD2F8B9
:10127000903023F0C003216D0B43C2F890302368F7
:1012800013F4806F08D0484AD2F8903023F44073AA
:10129000616D0B43C2F89030236813F4006F08D0DF
:1012A000414AD2F8903023F44063A16D0B43C2F859
:1012B0009030236813F4805F08D03B4AD2F8903016
:1012C00023F44053E16D0B43C2F89030236813F4CC
:1012D000005F08D0344AD2F8903023F44043216EA6
:1012E0000B43C2F89030236813F4800F08D02E4AC5
:1012F000D2F8903023F08063A16F0B43C2F8903096
:10130000236813F4001F0DD0274AD2F8903023F041
:101310000063E16F0B43C2F89030E36FB3F1006FED
:1013200000F0AA80236813F0080F00D0012513F401
:10133000802F08D01C4AD2F8903023F04073616FA0
:101340000B43C2F89030236813F4000F09D0164AFB
:10135000D2F8903023F08053D4F880100B43C2F8B9
:10136000903026B9236813F0007F00F005810E4A03
:10137000136823F080631360FFF7B0F906460A4B49
:101380001B6813F0006F79D0FFF7A8F9801B642861
:10139000F5D90320F3E00126C5E60126D5E60125AF
:1013A000D7E60126E7E600BF003802407F4B1A6C03
:1013B00042F080521A641B6C03F080530193019B2E
:1013C0007B4A136843F480731360FFF787F907467D
:1013D000774B1B6813F4807F06D1FFF77FF9C01BA2
:1013E0006428F5D90320CAE0704B1B6F13F44073D7
:1013F00015D0226B02F440729A4210D06B4B1A6FD8
:1014000022F44072196F41F480311967196F21F489
:10141000803119671A671B6F13F0010F12D1236B0C
:1014200003F44072B2F5407F1DD0604A936823F404
:10143000F81393605D490B6F226BC2F30B021343E9
:101440000B67A3E6FFF74AF90746584B1B6F13F0EB
:10145000020FE4D1FFF742F9C01B41F288339842F2
:10146000F3D903208BE05148826822F4F8125149E5
:1014700019400A438260DDE7012553E7236813F032
:10148000010F13D0636B8BB9484AD2F88430D2F87D
:101490008410606803F4403343EA801301F0706104
:1014A0000B43A16843EA0173C2F88430236813F444
:1014B000002F03D0E26BB2F5801F06D013F4801F1B
:1014C0001ED0236CB3F5800F1AD1384AD2F884307D
:1014D000D2F88410606803F4403343EA8013E06874
:1014E00043EA006301F0E0410B43C2F88430D2F8D4
:1014F0008C3023F01F03616A01390B43C2F88C3032
:10150000236813F0807F11D0284AD2F88400D2F8E3
:101510008410666823691B0443EA861300F0706038
:10152000034301F0E0410B43C2F88430236813F019
:10153000007F0DD0626823691B0443EA8213E268CE
:1015400043EA0263A26843EA0273184AC2F884308D
:10155000164A136843F080631360FFF7BFF806462E
:10156000124B1B6813F0006F06D1FFF7B7F8801B12
:101570006428F5D9032002E0012D02D0002003B039
:10158000F0BD0A4A136823F080531360FFF7A6F8F2
:101590000546064B1B6813F0005F0DD0FFF79EF861
:1015A000401B6428F5D90320E9E700BF003802405A
:1015B00000700040FFFCFF0F236813F4002F01D0E0
:1015C000E26B22B113F4801F1DD0236CDBB9354AC6
:1015D000D2F88830D2F88810606903F4403343EAC7
:1015E0008013A06943EA006301F0E0410B43C2F8B5
:1015F0008830D2F88C3023F4F853A16A013943EAD9
:101600000123C2F88C30236813F4001F03D0E36F6A
:10161000B3F1006F31D0236813F0080F19D0214ABD
:10162000D2F88810D2F88830606903F4403343EA76
:10163000801301F070610B43E16943EA0173C2F862
:101640008830D2F88C3023F44033E16A0B43C2F87F
:101650008C30144A136843F080531360FFF73EF850
:101660000446104B1B6813F0005F19D1FFF736F8E2
:10167000001B6428F5D9032081E70A4AD2F88800C4
:10168000D2F888106569236A1B0443EA851300F0C9
:101690007060034301F0E0410B43C2F88830BAE7C1
:1016A00000206CE7003802407047000090F83D30A1
:1016B000DBB2012B3AD1022380F83D300268D368B7
:1016C00043F00103D36003681A4AB3F1804F18BF97
:1016D00093421DD0A2F57C42934219D002F580625C
:1016E000934215D002F58062934211D002F5784200
:1016F00093420DD002F57052934209D0A2F5943274
:10170000934205D01A6842F001021A600020704727
:101710009968094A0A40062A18BFB2F5803F07D0E7
:101720001A6842F001021A600020704701207047D9
:10173000002070470000014007000100704770471B
:101740007047704710B5044603681A6912F0020F1B
:1017500011D0DA6812F0020F0DD06FF002021A6198
:101760000123037703689B6913F0030F79D0FFF718
:10177000E6FF0023237723681A6912F0040F12D0C2
:10178000DA6812F0040F0ED06FF004021A6102231F
:10179000237723689B6913F4407F68D02046FFF7C6
:1017A000CEFF0023237723681A6912F0080F12D0A6
:1017B000DA6812F0080F0ED06FF008021A610423E5
:1017C00023772368DB6913F0030F57D02046FFF718
:1017D000B6FF0023237723681A6912F0100F12D086
:1017E000DA6812F0100F0ED06FF010021A610823A1
:1017F00023772368DB6913F4407F46D02046FFF748
:101800009EFF0023237723681A6912F0010F03D08B
:10181000DA6812F0010F3FD123681A6912F0800FC5
:1018200003D0DA6812F0800F3DD123681A6912F4F0
:10183000807F03D0DA6812F0800F3BD123681A69E9
:1018400012F0400F03D0DA6812F0400F39D123684C
:101850001A6912F0200F03D0DA6812F0200F37D186
:1018600010BDFFF76BFF2046FFF76AFF81E72046B8
:10187000FFF764FF2046FFF763FF92E72046FFF77C
:101880005DFF2046FFF75CFFA3E72046FFF756FF0A
:101890002046FFF755FFB4E76FF001021A612046BA
:1018A000FEF77EFDB8E76FF080021A61204600F077
:1018B000D0F8BAE76FF480721A61204600F0CAF8D7
:1018C000BCE76FF040021A612046FFF73AFFBEE71F
:1018D0006FF020021A61204600F0BAF8C0E700005D
:1018E00030B503683B4A904214BF4FF0000E4FF0F2
:1018F000010EB0F1804F14BF72464EF00102AAB93A
:10190000354CA04214BF00240124344DA8420DD010
:1019100064B904F1804404F58234A04214BF002469
:10192000012405F50065A84200D01CB123F0700326
:101930004C682343002A33D1274A904214BF002227
:101940000122264CA0422BD052BB02F1804202F56C
:101950008232904214BF0022012204F50064A042AA
:101960001ED0EAB91E4A904214BF0022012204F59B
:101970009A34A04214D09AB91A4A904214BF002255
:10198000012204F50064A0420AD04AB9164A9042E6
:1019900014BF00220122A4F59634A04200D022B147
:1019A00023F4407CCB6843EA0C0323F080034A69AC
:1019B000134303608A68C2620A6882620B4A9042DB
:1019C00014BF73464EF001030BB10B69036301238F
:1019D000436130BD000001400008004000040040A9
:1019E0000044014000180040002000400004014075
:1019F00060B310B5044690F83D3013B3022384F869
:101A00003D30214651F8040BFFF76AFF012384F8AB
:101A1000483084F83E3084F83F3084F8403084F811
:101A2000413084F8423084F8433084F8443084F8FC
:101A3000453084F8463084F8473084F83D30002043
:101A400010BD80F83C30FFF72FFED7E7012070472C
:101A5000704770477047000010B5044683680269FC
:101A6000134342691343C269134301680868934AE8
:101A700002401A430A602268536823F44053E16825
:101A80000B435360A269236A1A4321688B6823F4CD
:101A9000306313438B602368894A934219D0894A83
:101AA000934229D0884A93423ED0884A934262D0DA
:101AB000874A934271D0874A934200F08380864AD6
:101AC000934200F09480854A934200F0A580102351
:101AD0003AE0834BD3F8903003F00303032B09D88B
:101AE000DFE803F00204AE0601232DE004232BE01F
:101AF000082329E0102327E0794BD3F8903003F036
:101B00000C030C2B0ED8DFE803F0070D0D0D090DAB
:101B10000D0D9D0D0D0D0B00002315E0042313E0AA
:101B2000082311E010230FE06D4BD3F8903003F041
:101B30003003202B00F0888019D8002B00F086801D
:101B4000102B40F085800423E069B0F5004F00F0D1
:101B5000AB80082B00F20C81DFE813F0E800FB00FB
:101B6000E6000A01FE000A010A010A010101302B08
:101B700070D10823E8E75A4BD3F8903003F0C00344
:101B8000802B69D005D8002B68D0402B68D1042366
:101B9000DAE7C02B66D10823D6E7514BD3F8903053
:101BA00003F44073B3F5007F5ED006D8002B5DD000
:101BB000B3F5807F5CD10423C6E7B3F5407F59D1EC
:101BC0000823C1E7464BD3F8903003F44063B3F5E4
:101BD000006F51D006D8002B50D0B3F5806F4FD195
:101BE0000423B1E7B3F5406F4CD10823ACE73C4B7D
:101BF000D3F8903003F44053B3F5005F44D006D8D7
:101C0000002B43D0B3F5805F42D104239CE7B3F5AA
:101C1000405F3FD1082397E7314BD3F8903003F46E
:101C20004043B3F5004F37D005D8BBB3B3F5804F71
:101C300036D1042388E7B3F5404F33D1082383E737
:101C4000022381E702237FE702237DE700237BE76E
:101C5000102379E7102377E7022375E7002373E762
:101C6000102371E710236FE702236DE700236BE772
:101C7000102369E7102367E7022365E7012363E781
:101C8000102361E710235FE702235DE700235BE792
:101C9000102359E7102357E7022355E7002353E7A2
:101CA000102351E710234FE7082B5BD8DFE803F040
:101CB0001A343A5A375A5A5A1E0000BFF369FFEFD6
:101CC000001001400044004000480040004C00402B
:101CD000005000400014014000780040007C0040AB
:101CE00000380240FFF7CCF900283DD06268530865
:101CF00003EB4003B3FBF2F3A3F110014FF6EF72D5
:101D0000914233D89AB222F00F02C3F34203134335
:101D10002268D360002030E0FFF7C2F9E4E7FFF764
:101D20009FF8E1E71748E1E7164802E0FFF7A8F956
:101D300000B3636800EB5300B0FBF3F0A0F11002B6
:101D40004FF6EF739A4217D8236880B2D86000200C
:101D500013E0FFF7A5F9EBE7FFF782F8E8E74FF4A8
:101D60000040E6E7012008E0002006E0012004E052
:101D7000012002E0002000E001200023A366E366CA
:101D800010BD00BF0024F400436A13F0010F06D019
:101D90000268536823F40033816A0B435360436A3B
:101DA00013F0020F06D00268536823F48033C16A2F
:101DB0000B435360436A13F0040F06D00268536864
:101DC00023F48023016B0B435360436A13F0080F25
:101DD00006D00268536823F40043416B0B43536001
:101DE000436A13F0100F06D00268936823F48053FF
:101DF000816B0B439360436A13F0200F06D0026897
:101E0000936823F40053C16B0B439360436A13F050
:101E1000400F0AD00268536823F48013016C0B430F
:101E20005360036CB3F5801F0BD0436A13F0800F2F
:101E300006D00268536823F40023816C0B4353607F
:101E400070470268536823F4C003416C0B4353602E
:101E5000EBE72DE9F84305460F4616469946DDF8AF
:101E600020802B68DC6937EA04040CBF01240024BD
:101E7000B44255D1B8F1FF3FF3D0FEF72FFCA0EBF1
:101E8000090040452ED8B8F1000F2BD02B681A68F6
:101E900012F0040FE5D0DA6912F4006FE1D04FF4CC
:101EA00000621A622A6852E8003F23F4D07342E8C5
:101EB00000310029F6D12A6802F1080353E8003FF7
:101EC00023F00103083242E800310029F3D1202336
:101ED000EB67C5F88030C5F88430002385F878308A
:101EE00003201EE02A6852E8003F23F4D07342E842
:101EF00000310029F6D12A6802F1080353E8003FB7
:101F000023F00103083242E800310029F3D12023F5
:101F1000EB67C5F88030002385F87830032000E0B7
:101F20000020BDE8F88310B582B004460023C0F855
:101F30008430FEF7D3FB23681B6813F0080F0AD127
:101F40002023E367C4F8803000202066606684F8B0
:101F5000780002B010BD6FF07E430093034600226C
:101F60004FF400112046FFF774FF0028E8D003204B
:101F7000EFE768B310B50446C36F03B32423E367E8
:101F80002268136823F0010313602046FFF764FD05
:101F9000012813D0636ABBB92268536823F49043C5
:101FA00053602268936823F02A03936022681368C1
:101FB00043F0010313602046FFF7B5FF10BD80F822
:101FC0007830FEF717FBD9E72046FFF7DDFEE3E7A1
:101FD00001207047842801D00330704700207047EB
:101FE00008B500F01DFD002008BD2DE9F04387B0C5
:101FF0000E464469C4B18569B5B14768D0F8008020
:10200000D0F81090B0F90800FFF7E4FF02950194B2
:10201000009033464A464146384600F08DFC059014
:10202000059807B0BDE8F083446805680769B0F912
:102030000800FFF7CFFF05AB019300903346BAB21B
:102040002946204600F0B9FC0128E9D00020E8E745
:1020500008B500B9012000F049FE002008BD00F1DC
:10206000080343604FF0FF328260C36003610023C6
:102070000360704700230361704743684B609A68B0
:102080008A6051609960086103680133036070479A
:1020900030B40D68B5F1FF3F11D000F108031C46C4
:1020A0005B681A68AA42FAD963684B6099608C60D1
:1020B0006160086103680133036030BC70470469E4
:1020C000F2E70369416882688A60416851605A6832
:1020D000824206D0002202611A68013A1A6018682A
:1020E000704782685A60F5E782B0002301930F4B76
:1020F0001B68B3F1FF3F0AD04FF0500372B683F371
:102100001188BFF36F8FBFF34F8F62B6FEE74FF0BA
:10211000500372B683F31188BFF36F8FBFF34F8FF5
:1021200062B6019B002BFCD002B070470C0000206F
:1021300008480068006880F308884FF0000080F3CA
:10214000148862B661B6BFF34F8FBFF36F8F00DFA5
:1021500000BF000008ED00E0DFF80C00016841F46A
:10216000700101607047000088ED00E04FF080735F
:1021700040F8043C21F0010140F8081C054B40F8F0
:102180000C3C40F8202C6FF0020340F8243C44380B
:10219000704700BFE92000080000000000000000B8
:1021A000074B19680868B0E8F04F80F30988BFF35F
:1021B0006F8F4FF0000080F311887047AFF30080FD
:1021C000004100204FF0500372B683F31188BFF333
:1021D0006F8FBFF34F8F62B60C4A136801331360E1
:1021E000012B00D070474FF0E023D3F8043D13F0EB
:1021F000FF0FF7D04FF0500372B683F31188BFF38F
:102200006F8FBFF34F8F62B6FEE700BF0C00002058
:102210000A4B1B6853B94FF0500372B683F3118811
:10222000BFF36F8FBFF34F8F62B6FEE7013B034AE8
:1022300013600BB983F31188704700BF0C000020B6
:10224000EFF30980BFF36F8F154B1A681EF0100F64
:1022500008BF20ED108A20E9F04F10602DE9090039
:102260004FF0500072B680F31188BFF34F8FBFF369
:102270006F8F62B600F062FD4FF0000080F31188AE
:1022800009BC19680868B0E8F04F1EF0100F08BFCD
:10229000B0EC108A80F30988BFF36F8F704700BFDE
:1022A0000041002008B54FF0500372B683F3118847
:1022B000BFF36F8FBFF34F8F62B600F00BFC28B1F6
:1022C0004FF0E0234FF08052C3F8042D002383F336
:1022D000118808BD4FF0E022002313619361054B84
:1022E0001B680549A1FB03139B09013B53610723AD
:1022F0001361704700000020D34D621030B583B0E9
:102300002F4B1A78D2B20192FF221A701B78DBB2DF
:102310008DF803309DF8033003F05003294A137001
:10232000294B07221A6009E0274A1368013B136012
:102330009DF803305B00DBB28DF803309DF803306D
:1023400013F0800FF0D1204B1B68032B0AD04FF005
:10235000500372B683F31188BFF36F8FBFF34F8FB3
:1023600062B6FEE71B02184A136003F4E0631360D1
:10237000019BDBB2124A13704FF0E024D4F8203DE9
:1023800043F47003C4F8203DD4F8203D43F070437B
:10239000C4F8203DFFF79EFF00250C4B1D60FFF7A2
:1023A000DBFED4F8343F43F04043C4F8343FFFF73A
:1023B000BFFE00F0C3FCFFF797FE284603B030BD18
:1023C00000E400E0BC030020B80300200C00002063
:1023D000124A12F0070F1ED0D11D21F00701C1F5DE
:1023E000705313440A460E480260002141601344B2
:1023F000083B23F007030B48036059601960991AE2
:1024000051601360084B1960084B1960084B4FF07E
:1024100000421A6070474FF47053E4E7D80300207D
:10242000D0030020CC030020C4030020C8030020F8
:10243000C0030020164B1A461B688342FBD3516829
:1024400002EB010C844509D0416800EB010C6345A7
:1024500009D00360904219D0106070474068014471
:1024600051601046F0E710B40A4C2468A3420BD028
:102470005B681944416013681B680360904200D098
:1024800010605DF8044B70470460F7E7704700BFC9
:10249000D0030020CC03002038B5044600F0FCFA3D
:1024A000384B1B68B3B1384B1B681C424ED1002C13
:1024B0004ED004F1080214F0070F02D022F00702F8
:1024C0000832002A55D0314B1B68934253D3304910
:1024D0000C6804E0FFF77CFFE5E721461C466368D3
:1024E000934202D22368002BF7D1264B1B68A342EC
:1024F00043D00D68083523680B6063689B1A102B66
:1025000012D9A01810F0070F0AD04FF0500372B67E
:1025100083F31188BFF36F8FBFF34F8F62B6FEE76F
:1025200043606260FFF786FF626818490B689B1A78
:102530000B60184909688B4201D216490B60124B97
:102540001B68134363600023236002E0002500E062
:10255000002500F04DFB15F0070F10D04FF0500391
:1025600072B683F31188BFF36F8FBFF34F8F62B6DC
:10257000FEE70025EDE70025EBE70025E9E7284623
:1025800038BD00BFCC030020C0030020C8030020DA
:10259000D0030020C4030020002834D038B50446FE
:1025A000A0F1080550F8043C174A126813420AD1FA
:1025B0004FF0500372B683F31188BFF36F8FBFF3F0
:1025C0004F8F62B6FEE750F8081C51B14FF0500330
:1025D00072B683F31188BFF36F8FBFF34F8F62B66C
:1025E000FEE723EA020340F8043C00F055FA54F8F1
:1025F000041C064A13680B4413602846FFF71AFFB1
:1026000000F0F6FA38BD7047C0030020C803002070
:10261000084B1B681B6823B9074B4FF0FF321A6049
:102620007047044B1B68DB68DB685A68024B1A6012
:10263000704700BF48400020E03F00202DE9F047F0
:1026400007469846089DDDF824900A9C266B6FF09B
:102650004043134406EB830626F00706C1B3084641
:102660004FF0000CBCF10F0F09D810F80C2004EB50
:102670000C0383F8342012B10CF1010CF2E70023B3
:1026800084F84330062D00D90625E56265644FF0D5
:10269000000AC4F848A0201DFFF7ECFC04F1180064
:1026A000FFF7E8FC2461C5F10705A5616462C4F881
:1026B0004CA084F850A0424639463046FFF756FDFC
:1026C0002060B9F1000F01D0C9F80040BDE8F087E3
:1026D000002384F83430D5E738B5002407E004EB54
:1026E000840293000E481844FFF7B9FC0134062C0D
:1026F000F5D90C4D2846FFF7B2FC0B4C2046FFF7EE
:10270000AEFC0A48FFF7ABFC0948FFF7A8FC0948F4
:10271000FFF7A5FC084B1D60084B1C6038BD00BFCF
:1027200074400020604000204C40002030400020D9
:102730001C4000200440002048400020444000206D
:1027400010B50446FFF73EFD214A136801331360BC
:10275000204B1B685BB1204B1B686BB91D4B1B6882
:10276000DA6AE36A9A4207D81A4B1C6004E0194BF4
:102770001C601368012B28D0184A136801331360BA
:10278000E06A01238340164A11680B43136000EB93
:102790008000211D134B03EB8000FFF76EFCFFF759
:1027A00037FD0D4B1B687BB10A4B1B68DA6AE36A85
:1027B0009A4209D24FF0E0234FF08052C3F8042D23
:1027C000BFF34F8FBFF36F8F10BDFFF785FFD3E7C8
:1027D0000040002000410020F43F0020E43F0020A2
:1027E000F83F00207440002010B5044690F85130A6
:1027F00073B1012B13D0022B10D04FF0500372B6DF
:1028000083F31188BFF36F8FBFF34F8F62B6FEE77C
:10281000006BFFF7C1FE2046FFF7BEFE10BDFFF7BD
:10282000BBFEFBE70F4B1B68D3B110B5FFF7CAFC2B
:102830000D4BDB68DC68201DFFF743FC0B4A136877
:10284000013B1360074A1368013B1360FFF7E0FC8C
:102850002046FFF7C9FF034B1B68002BE6D110BDD4
:10286000704700BF184000201C400020004000209E
:1028700008B5FFF7D7FF074B1B68012BF9D94FF0BD
:10288000E0234FF08052C3F8042DBFF34F8FBFF306
:102890006F8FEEE77440002070B504460D461F4B65
:1028A0001E681F4B18680430FFF70BFC48B91C4B1F
:1028B0001B68DB6A01229A401A490B6823EA02036B
:1028C0000B60B4F1FF3F14BF00230123002D08BFAC
:1028D00000236BB93444124B1B685C60A6420ED9CE
:1028E000114B18680E4B19680431FFF7D1FB70BD0E
:1028F0000B4B196804310D48FFF7BFFBF7E70C4B92
:102900001868074B19680431FFF7C2FB094B1B68B5
:10291000A342ECD9074B1C60E9E700BFFC3F002055
:1029200000410020F83F00204440002004400020E7
:1029300048400020E03F002030B587B00B9C8CB1B0
:102940000C9DD5B154250495049D542D20D04FF0F5
:10295000500372B683F31188BFF36F8FBFF34F8FAD
:1029600062B6FEE74FF0500372B683F31188BFF3EF
:102970006F8FBFF34F8F62B6FEE74FF0500372B612
:1029800083F31188BFF36F8FBFF34F8F62B6FEE7FB
:10299000049D0C9D2C63022485F85140002403946F
:1029A000029505AC01940A9C0094FFF747FE0C9831
:1029B000FFF7C6FE059807B030BD2DE9F04385B09E
:1029C0000746884614461E469000FFF765FD08B38B
:1029D00081465420FFF760FD0546A8B1C0F830904D
:1029E000002380F85130039302900D9B01930C9BC0
:1029F00000933346224641463846FFF71FFE2846DD
:102A0000FFF79EFE012007E04846FFF7C5FD4FF0A7
:102A1000FF3001E04FF0FF3005B0BDE8F08300006B
:102A200010B588B000240594069407AA06A905A845
:102A3000FDF75EFC059B0293069B019300942346E1
:102A4000079A0F490F48FFF777FF0F4B1860A0B1A7
:102A50004FF0500372B683F31188BFF36F8FBFF34B
:102A60004F8F62B6094B4FF0FF321A60084B0122BC
:102A70001A60084B1C60FFF741FC08B010BD00BF96
:102A80006440000871280008DC3F0020E03F00207F
:102A9000F43F0020FC3F0020024A1368013313601A
:102AA000704700BFD83F0020034610B103F1340047
:102AB0007047074B1B68002BF8D14FF0500372B6DC
:102AC00083F31188BFF36F8FBFF34F8F62B6FEE7BA
:102AD00000410020F8B53B4B1B68002B66D13A4BF8
:102AE0001D6801351D60D5B9384B1B681B6853B193
:102AF0004FF0500372B683F31188BFF36F8FBFF3AB
:102B00004F8F62B6FEE7314A1168314B186810608A
:102B10001960304A136801331360FFF779FD2E4BBB
:102B20001B68AB4238D900272C4B1B68DB6A03EBD0
:102B300083039A002A4B9B58012B3CD901273AE08A
:102B40000127224B1B681B6843B3204B1B68DB68C3
:102B5000DC6863689D4226D3261D3046FFF7B1FA34
:102B6000A36A1BB104F11800FFF7ABFAE36A012274
:102B70009A401C49086802430A6003EB83039A00E9
:102B8000314617481044FFF778FAE26A134B1B6886
:102B9000DB6A9A42D4D2D4E70027D2E70E4B4FF03B
:102BA000FF321A60C0E70C4A1360BDE70E4A136893
:102BB0000133136000270D4B1B6803B10127384612
:102BC000F8BD00BFD83F0020FC3F00204840002057
:102BD00044400020E83F0020E03F0020004100206A
:102BE00074400020F83F0020F03F0020EC3F002020
:102BF00038B5364B1B6853B94FF0500372B683F3A8
:102C00001188BFF36F8FBFF34F8F62B6FEE7FFF7F8
:102C1000D9FA2E4B1A68013A1A601B68002B4FD163
:102C20002B4B1B680BB900244BE00024294B1B687D
:102C30001BB3284BDB68DC6804F11800FFF741FA8E
:102C4000251D2846FFF73DFAE06A01238340224A0A
:102C500011680B43136000EB800029461F4B03EB08
:102C60008000FFF70AFAE26A1D4B1B68DB6A9A4292
:102C7000DCD31C4B01221A60D8E70CB1FFF7C8FC6B
:102C8000194B1C6884B9174B1C68D4B14FF0E02372
:102C90004FF08052C3F8042DBFF34F8FBFF36F8FF7
:102CA00001240EE0013C07D0FFF714FF0028F9D003
:102CB0000C4B01221A60F5E70B4B00221A60E2E789
:102CC0000024FFF7A5FA204638BD00BFD83F0020FA
:102CD0000040002030400020F83F002074400020D9
:102CE00000410020EC3F0020F03F002010B5B8B1BB
:102CF0000446114B1B6853B14FF0500372B683F377
:102D00001188BFF36F8FBFF34F8F62B6FEE7FFF7F7
:102D1000C3FE00212046FFF7BFFDFFF769FF48B95A
:102D20004FF0E0234FF08052C3F8042DBFF34F8FD4
:102D3000BFF36F8F10BD00BFD83F0020214B1B6831
:102D40001BB1214B01221A6070471F4B00221A60F1
:102D50001E4B1B68B3FA83F3DBB2C3F11F0303EB13
:102D600083018A001A498A5852B94FF0500372B64B
:102D700083F31188BFF36F8FBFF34F8F62B6FEE707
:102D8000134803EB83018A0002445168496851608B
:102D900003EB830C4FEA8C0208320244914209D0C3
:102DA00003EB83039A000A4B13445B68DA68094B10
:102DB0001A607047486862469100054A0A445060AC
:102DC000EEE700BFD83F0020EC3F0020F83F002096
:102DD0007440002000410020014B1868704700BF7C
:102DE00000410020DFF834D00D480E490E4A002380
:102DF00002E0D458C4500433C4188C42F9D30B4AAF
:102E00000B4C002301E013600432A242FBD3FDF718
:102E1000CBFB00F077F9FDF729FB70470000052098
:102E2000000000206C000020AC4000086C00002076
:102E300054420020FEE70000002310B50446C0E91C
:102E40000033C0E90433836081814366C2818361BA
:102E5000194608225C3000F006F90D4B63620D4BF9
:102E6000A3620D4BE3620D4B23630D4B24629C4226
:102E700006D003F16802944202D0D0339C4205D1BF
:102E800004F15800BDE8104000F060B910BD00BF6B
:102E9000E12F0008033000083B3000085F300008D5
:102EA00004410020024A0349034800F069B800BF0A
:102EB00010000020F53900082000002041680C4B6C
:102EC000994210B5044601D000F094FDA168094B69
:102ED000994202D0204600F08DFDE168064B9942F0
:102EE00004D02046BDE8104000F084BD10BD00BFF6
:102EF000044100206C410020D441002010B50B4B50
:102F00000B4C0C4A1A60204600220421FFF794FF64
:102F100004F1680001220921FFF78EFF04F1D000BF
:102F20000222BDE810401221FFF786BF3C4200207C
:102F300004410020A52E0008014800F008B900BF98
:102F400045420020014800F003B900BF454200207F
:102F500010B50446FFF7F0FF236A1BB1BDE810402F
:102F6000FFF7F0BF044B2362044B1B68002BF5D125
:102F7000FFF7C4FFF2E700BFBD2E00083C4200206F
:102F80002DE9F8430746884614460026D4E9019502
:102F9000B9F1010905D52468002CF7D13046BDE808
:102FA000F883AB89012B07D9B5F90E30013303D073
:102FB00029463846C04706436835E9E70FB407B5E8
:102FC000064904AB086853F8042B8168019300F0AC
:102FD000DBF903B05DF804EB04B070471C0000207F
:102FE00010B50C46B1F90E1000F068F80028ABBF20
:102FF000636DA3891B1823F48053ACBF6365A38161
:1030000010BD2DE9F0411F468B89DB0505460C46B6
:10301000164605D5B1F90E100223002200F03CF847
:10302000A389B4F90E1023F48053A38132463B46A2
:103030002846BDE8F04100F053B810B50C46B1F990
:103040000E1000F029F8431CA38915BF606523F416
:10305000805343F48053A38118BFA38110BDB1F9FD
:103060000E1000F009B802440346934200D17047A5
:1030700003F8011BF9E7000038B5064D00230446AC
:1030800008462B6000F006FE431C02D12B6803B1FA
:10309000236038BD4042002038B5074D044608463D
:1030A000114600222A601A4600F00CFE431C02D191
:1030B0002B6803B1236038BD4042002038B5074D6E
:1030C00004460846114600222A601A4600F002FE15
:1030D000431C02D12B6803B1236038BD404200205D
:1030E00038B5074D04460846114600222A601A46A4
:1030F00000F006FE431C02D12B6803B1236038BDEB
:103100004042002070B50D4D0D4C641BA4100026EC
:10311000A64209D10B4D0C4C00F058FF641BA410C3
:103120000026A64205D170BD55F8043B98470136EC
:10313000EEE755F8043B98470136F2E7A440000853
:10314000A4400008A4400008A84000087047704749
:103150007047000038B50546002941D051F8043CBD
:103160000C1F002BB8BFE41800F0D8F81D4A1368F4
:1031700033B9636014602846BDE8384000F0D4B825
:10318000A34208D9206821188B4201BF19685B68E7
:1031900009182160EDE71A465B680BB1A342FAD922
:1031A00011685018A0420BD1206801445018834286
:1031B0001160E0D118685B68536008441060DAE77A
:1031C00002D90C232B60D6E7206821188B4204BF5C
:1031D00019685B68636004BF091821605460CAE71E
:1031E00038BD00BF4C42002070B50F4E0C46316810
:1031F000054611B900F0BAFC30602146284600F0BF
:10320000B5FC431C03D14FF0FF34204670BDC41CF5
:1032100024F00304A042F8D0211A284600F0A6FCAE
:103220000130F2D1EFE700BF484200202DE9F04124
:10323000CD1C25F0030508350C2D38BF0C25002DBD
:10324000064601DBA94204D90C2333600020BDE807
:10325000F081314F00F062F83B681C4644BB2946C0
:103260003046FFF7C1FF431C044650D13C6821465D
:10327000002941D1002C44D02368304604EB0308D8
:1032800000F074FC80453CD121686D1A2946304617
:10329000FFF7AAFF013034D023682B4423603B683A
:1032A000002B36D05A68A24229D100225A600EE083
:1032B0002268521B1DD40B2A16D96119A34225601E
:1032C00018BF5960636808BF396062514B6030466F
:1032D00000F02AF804F10B00231D20F00700C21AA9
:1032E000B5D01B1AA350B2E7A3426268DED13A60A0
:1032F000EDE723466468B1E70C464968B8E7134632
:10330000CEE70C233360304600F00EF89EE70560F0
:10331000DDE75B60FFDE00BF4C4200200148FFF7A5
:1033200016BF00BF444200200148FFF711BF00BF95
:10333000444200209368013B002B10B4936008DAEC
:103340009469A34201DB0A2903D15DF8044B00F024
:1033500079BB1368581C1060197008465DF8044B5F
:103360007047F8B506460F461446D518AC4201D151
:10337000002007E014F8011B3A463046FFF7DAFF59
:10338000431CF3D1F8BD00002DE9F04F0D469DB070
:1033900014469846064618B1036A0BB9FFF7D8FDE4
:1033A0006B6ED90705D4AB899A0502D4A86DFFF7D7
:1033B000CEFEAB891B0701D52B699BB92946304648
:1033C00000F07EFB70B16B6EDC0704D54FF0FF3070
:1033D0001DB0BDE8F08FAB899805F7D4A86DFFF755
:1033E000B7FEF3E70023099320238DF82930CDF8A9
:1033F0000C803023DFF8AC818DF82A304FF00109C2
:1034000023469A4613F8012B0AB1252AF9D1BAEBC3
:10341000040B0BD05B46224629463046FFF7A1FF3E
:10342000013000F0A780099A5A4409929AF80030B6
:10343000002B00F09F8000234FF0FF32CDE90523E1
:103440000AF1010A049307938DF853301A935446F6
:10345000052214F8011B5348FCF7BAFE049AD8B9A8
:10346000D10644BF20238DF85330130744BF2B23CC
:103470008DF853309AF800302A2B15D0079A54460D
:1034800000204FF00A0C214611F8013B303B092B7C
:103490004BD9B0B1079214E0A0EB080309FA03F38B
:1034A00013430493A246D2E7039B191D1B680391A3
:1034B000002BBBBF5B4242F0020207930793B8BFE9
:1034C000049223782E2B0AD163782A2B32D1039BC6
:1034D0001A1D1B68039243EAE37302340593DFF875
:1034E000D4A0217803225046FCF772FE38B1049B29
:1034F000A0EB0A004022824013430134049314F8E5
:10350000011B29488DF828100622FCF761FE0028CF
:103510003FD0264B1BBB039B073323F00703083325
:103520000393099B3B4409936AE70CFB02320C4668
:103530000120A8E700230134059319464FF00A0C37
:10354000204610F8012B303A092A03D9002BC6D0A7
:103550000591C4E70CFB012104460123F0E703AB0E
:1035600000932A46124B04A93046AFF30080074669
:10357000781CD6D16B6ED90705D4AB899A0502D4D5
:10358000A86DFFF7E5FDAB895B063FF51FAF099816
:103590001EE703AB00932A46054B04A9304600F012
:1035A00079F8E4E769400008734000080000000073
:1035B000633300086F4000082DE9F047164698462F
:1035C0008A680B69DDF820909342B8BF13463360D8
:1035D00091F8432007460C460AB101333360236853
:1035E000990642BF336802333360256815F006053B
:1035F00006D104F1190AE36832689B1AAB4226DC53
:1036000094F843302268003B18BF012392062BD464
:1036100004F1430241463846C84701301ED02368B2
:10362000226903F00603042B02BFE5683368ED1A34
:10363000A3680CBF25EAE57500259342C4BF9B1A19
:10364000ED1800261A34B5421AD1002008E00123F3
:10365000524641463846C847013003D14FF0FF304B
:10366000BDE8F0870135C6E7E1185A1C302081F823
:103670004300224494F8451082F843100233C7E710
:103680000123224641463846C8470130E6D001367C
:10369000D9E700002DE9FF470F7E0C9E782F914659
:1036A00080460C469A4601F1430207D8622F0AD899
:1036B000002F00F0DD80582F00F0C38004F1420697
:1036C00084F842703AE0A7F16303152BF6D801A104
:1036D00051F823F02D37000841370008BD360008A7
:1036E000BD360008BD360008BD3600084137000869
:1036F000BD360008BD360008BD360008BD360008DE
:1037000057380008CF3700080F380008BD360008CA
:10371000BD36000879380008BD360008CF370008EC
:10372000BD360008BD3600081738000833681A1D7A
:103730001B68326004F1420684F842300123A8E09D
:1037400031682368081D30601E0601D50D6803E04E
:103750005D06FBD5B1F900506168002D78DA2D20A7
:10376000002984F84300A1602DDA5E486D420A23E7
:103770001646B5FBF3F103FB1157C75D06F8017D53
:103780002F46BB420D46F4D9082B0BD12368DF0727
:1037900008D5236961689942DEBF302306F8013CF1
:1037A00006F1FF36921B2261CDF800A04B4603AA1A
:1037B00021464046FFF700FF01306FD14FF0FF3048
:1037C00004B0BDE8F08723F004032360CDE721684F
:1037D0003368080653F8045B02D4490648BFADB20B
:1037E0006F2F4048336014BF0A230823002184F858
:1037F00043106668A660002EBADB216821F0040140
:103800002160002DB4D1002EB2D11646BCE723684A
:1038100043F0200323603448782784F845702368F8
:1038200031681F0651F8045B02D45F0648BFADB291
:103830003160D90744BF43F0200323601DB110233A
:10384000D4E72848E9E7236823F020032360F6E75C
:1038500024480A23CDE7336825686169181D306064
:103860002E061B6801D5196002E06806FBD5198099
:1038700000232361164697E733681A1D32601E68DD
:10388000626800213046FCF7A3FC08B1801B606031
:1038900063682361002384F8433085E72369324657
:1038A00049464046D047013088D023689B0714D44E
:1038B000E068039B9842B8BF184681E7012332466F
:1038C00049464046D04701303FF478AF0135E368C0
:1038D00003995B1AAB42F1DCEAE7002504F1190613
:1038E000F5E700BF7A4000088B400008B1F90C20D2
:1038F0002DE9F041170705460C4656D44B68002BBE
:1039000002DC0B6C002B3DDDE66A002E3AD0002372
:1039100012F480522F68216A2B6025D0626DA38932
:10392000580705D56368D21A636B0BB1236CD21AA2
:10393000216AE66A00232846B047411C24D00023B0
:10394000636023692360A389DA0400D56065616B35
:103950002F60B9B104F14403994202D02846FFF721
:10396000F9FB002363630DE001232846B047461CA2
:103970000246D4D12B68002BD1D01D2B01D0162BA1
:103980002BD12F6000202FE02A68B4F90C3042B10F
:103990001D2A01D0162A22D10023636023692360E7
:1039A000D5E7626022692260CEE70F69002FE9D077
:1039B00093070E6808BF4B690F6018BF0023A6EB82
:1039C00007088B60B8F1000FDCDD216AA66A434668
:1039D0003A462846B047002808DCB4F90C3043F0DA
:1039E0004003A3814FF0FF30BDE8F0810744A8EB0E
:1039F0000008E7E738B50B6905460C4613B9002502
:103A0000284638BD18B1036A0BB9FFF7A1FAB4F91B
:103A10000C30002BF3D0626ED00704D4990502D489
:103A2000A06DFFF794FB28462146FFF75FFF636E0A
:103A3000DA070546E4D4A3899B05E1D4A06DFFF71E
:103A400087FBDDE7F8B50E461446054618B1036A54
:103A50000BB9FFF77DFAA369A360A3891A0701D503
:103A6000236943B92146284600F02AF818B14FF0DF
:103A7000FF373846F8BD23682269981A6369F6B2A1
:103A80008342374605DC21462846FFF7B3FF00286E
:103A9000EDD1A368013BA36023685A1C22601E700D
:103AA0006269431C9A4204D0A389DB07E1D50A2E40
:103AB000DFD121462846FFF79DFF0028D9D0D6E761
:103AC00038B5294B054618680C4618B1036A0BB97E
:103AD000FFF73EFAB4F90C30190722D4DA0607D4FE
:103AE00009222A6043F04003A3814FF0FF3033E006
:103AF000580712D5616B41B104F14403994202D0D9
:103B00002846FFF727FB00236363A38923F02403E0
:103B1000A3810023636023692360A38943F0080322
:103B2000A38123694BB9A38903F42073B3F5007F04
:103B300003D02146284600F04FF8B4F90C3013F0BA
:103B400001020AD00022A26062695242A261226987
:103B500042B913F08000C5D138BD990758BF6269DA
:103B6000A260F4E70020F7E71C00002038B5064DFE
:103B70000023044608462B6000F0B4F8431C02D131
:103B80002B6803B1236038BD4042002070B50C465D
:103B9000B1F90E10002996B015461E460DDAA3891C
:103BA00013F0800F4FF0000114BF40234FF48063E7
:103BB000002031602B6016B070BD6A4600F048F8F6
:103BC0000028ECDB019901F47041A1F50053594242
:103BD00059414FF48063EBE78B89F7B59D070646A3
:103BE0000C4607D504F14703236023610123636179
:103BF00003B0F0BD01AB6A46FFF7C8FF009F054662
:103C000039463046FFF712FB48B9B4F90C309A0533
:103C1000EED423F0030343F00203A381E2E7A38978
:103C2000206043F08003A381019BC4E904075BB1DA
:103C3000B4F90E10304600F01DF828B1A38923F026
:103C4000030343F00103A381A3891D43A581CFE7AB
:103C500038B5074D00230446084611462B6000F096
:103C600021F8431C02D12B6803B1236038BD00BF8B
:103C70004042002038B5064D0023044608462B601C
:103C800000F018F8431C02D12B6803B1236038BD43
:103C900040420020024B58221A604FF0FF3070471C
:103CA00040420020024B58221A604FF0FF3070470C
:103CB00040420020024B58221A600020704700BF8B
:103CC00040420020024B58221A604FF0FF307047EC
:103CD00040420020024B58221A604FF0FF307047DC
:103CE00040420020044A05491368002B08BF0B46D8
:103CF0001844106018467047504200205842002077
:103D0000024B58221A604FF0FF30704740420020AB
:103D10002DE9F047089D0C46002B4ED194468C456A
:103D20008646B2FA82F262D94AB1C2F120039140CA
:103D300020FA03F30CFA02FC194300FA02FE4FEAE0
:103D40001C471FFA8CF6B1FBF7F44FEA1E4307FB42
:103D5000141143EA014304FB06F199420AD91CEB12
:103D6000030304F1FF3080F01381994240F2108187
:103D7000023C6344591A1FFA8EF3B1FBF7F007FBBC
:103D8000101143EA014300FB06F69E420AD91CEBE0
:103D9000030300F1FF3180F0FD809E4240F2FA8083
:103DA000634402389B1B40EA044000211DB1D3400C
:103DB0000022C5E90032BDE8F0878B4205D90DB17C
:103DC000C5E9000100210846F5E7B3FA83F10029AF
:103DD00046D1A34202D39042C0F0F180861A64EB30
:103DE00003030120002DE6D0C5E90063E3E7002AC4
:103DF00040F09180A1EB0C044FEA1C481FFA8CF7AD
:103E00000121B4FBF8F64FEA1E4308FB164443EACF
:103E1000044307FB06F0984208D91CEB030306F1A4
:103E2000FF3402D2984200F2CE8026461C1A1FFAB6
:103E30008EF3B4FBF8F008FB104443EA044300FBA4
:103E400007F79F4208D91CEB030300F1FF3402D2AD
:103E50009F4200F2B1802046DB1B40EA0640A5E706
:103E6000C1F120068B4022FA06F71F4320FA06FC18
:103E700004FA01F343EA0C03F44000FA01F8380CA9
:103E80004FEA1349B4FBF0FE1FFA87FC00FB1E4407
:103E900049EA04440EFB0CF9A14502FA01F20AD9E1
:103EA0003C190EF1FF3A80F08580A14540F28280F6
:103EB000AEF1020E3C44A4EB09041FFA83F9B4FBF3
:103EC000F0F300FB134449EA044403FB0CFCA44553
:103ED00007D93C1903F1FF3068D2A44566D9023BEB
:103EE0003C4443EA0E40A0FB0293A4EB0C049C422A
:103EF000CE469C4652D34FD055B1B8EB0E0364EB7F
:103F00000C0404FA06F6CB40CC401E43C5E900641D
:103F10000021BDE8F087C2F1200320FA03F10CFA7A
:103F200002FC24FA03F394400C434FEA1C4800FAC5
:103F300002FE1FFA8CF7B3FBF8F008FB1031230CDC
:103F400043EA014300FB07F1994208D91CEB030344
:103F500000F1FF362CD299422AD9023863445B1A09
:103F6000A4B2B3FBF8F108FB113344EA034401FBAC
:103F700007F3A34208D91CEB040401F1FF3613D266
:103F8000A34211D902396444E41A41EA004138E7F6
:103F90000446EFE6084605E7C845ADD2B9EB020E88
:103FA00063EB070C0138A7E73146EDE7034698E7D6
:103FB0003046D4E7D6467EE7634402384CE70646EF
:103FC000234608460EE7023E63442FE7F8B500BFDC
:103FD000F8BC08BC9E467047F8B500BFF8BC08BCEA
:043FE0009E46704742
:103FE40000400008E5020008000000000000000096
:103FF40080000000000000000000000064656661AD
:10400400756C745461736B004A6520737569732011
:104014006C61207461636865202573206574206A6F
:1040240065206D27656E646F727320706F757220E2
:10403400256420706572696F6465730A000000006E
:104044005461736B3100000000000000010203049E
:104054000000000000000000010203040607080934
:1040640049444C4500232D302B2000686C4C0065DE
:104074006667454647003031323334353637383990
:1040840041424344454600303132333435363738C3
:08409400396162636465660096
:08409C0074FCFF7F010000002D
:0440A400C902000845
:0440A800A502000865
:1040AC000024F4000100000010000000AAAAAAAA33
:1040BC00000000000300000004410020200000204C
:1040CC0000000000044100206C410020D44100207D
:1040DC0000000000000000000000000000000000D4
:1040EC0000000000000000000000000000000000C4
:1040FC0000000000000000000000000000000000B4
:0C410C00000000000000000000000000A7
:0400000508002DE5DD
:00000001FF
