:020000040800F2
:100000000000052065140008FD090008FF0900082C
:10001000010A0008030A0008050A000800000000A1
:10002000000000000000000000000000070A0008B7
:10003000090A0008000000000B0A00080D0A000869
:10004000B5140008B5140008B5140008B51400086C
:10005000B5140008B5140008B5140008B51400085C
:10006000B5140008B5140008B5140008B51400084C
:10007000B5140008B5140008B5140008B51400083C
:10008000B5140008B5140008B5140008B51400082C
:10009000B5140008B5140008B5140008B51400081C
:1000A000B5140008B5140008B5140008B51400080C
:1000B000B5140008B5140008B5140008B5140008FC
:1000C000B5140008B5140008B5140008B5140008EC
:1000D000B5140008B5140008B5140008B5140008DC
:1000E000B5140008B5140008B5140008B5140008CC
:1000F000B5140008B5140008B5140008B5140008BC
:10010000B5140008B5140008B5140008B5140008AB
:10011000B5140008B5140008B5140008B51400089B
:10012000B5140008B5140008B5140008B51400088B
:10013000B5140008B5140008B5140008B51400087B
:10014000B5140008B5140008B5140008B51400086B
:10015000B5140008B5140008B5140008B51400085B
:10016000B5140008B5140008B5140008B51400084B
:10017000B5140008B5140008B5140008000000000C
:10018000B5140008B5140008B5140008B51400082B
:10019000B5140008B5140008B5140008B51400081B
:1001A000B5140008B5140008B5140008B51400080B
:1001B000B5140008B5140008B5140008B5140008FB
:0801C000B5140008B514000895
:1001C80053B94AB9002908BF00281CBF4FF0FF31B6
:1001D8004FF0FF3000F00CB8ADF1080C6DE904CE1B
:1001E80001F092F9DDF804E0DDE9022304B070477C
:1001F800704700BF10B5054C237833B9044B13B1D1
:100208000448AFF300800123237010BD0C000020C8
:1002180000000000CC17000808B5034B1BB10349C8
:100228000348AFF3008008BD000000001000002064
:10023800CC1700082DE9F04F91B000240B940C94D2
:100248000D940E940F94AA4B1A6B42F010021A6385
:100258001A6B02F010020092009A1A6B42F04002E8
:100268001A631A6B02F040020192019A1A6B42F06B
:1002780002021A631A6B02F002020292029A1A6BC5
:1002880042F008021A631A6B02F008020392039AFA
:100298001A6B42F004021A631A6B02F00402049209
:1002A800049A1A6B42F001021A631A6B02F00102F7
:1002B8000592059A1A6B42F400721A631A6B02F4DB
:1002C80000720692069A1A6B42F480721A631A6BCD
:1002D80002F480720792079A1A6B42F480621A63DA
:1002E8001A6B02F480620892089A1A6B42F0200294
:1002F8001A631A6B02F020020992099A1A6B42F0EB
:1003080080021A631B6B03F080030A930A9BDFF8D1
:10031800048201222021404600F037FD224641F2A6
:100328000E01744800F031FD22460821724800F0A1
:100338002CFD22464FF40051704800F026FD22465D
:10034800C8216F4800F021FD10230B9302250C955E
:100358000D940E940E230F93DFF8BCA10BA9504601
:1003680000F00AFC08230B930C940D940BA950463B
:1003780000F002FC04230B930C950D9403260E96B3
:1003880009230F930BA9504600F0F6FB4FF4D04316
:100398000B930C950D940E960B230F930BA95848AD
:1003A80000F0EAFB4FF683730B930C950D940E96B1
:1003B8004FF00C0BCDF83CB00BA9504600F0DCFB1D
:1003C8004FF440730B9312230C930D940E94042353
:1003D8000F930BA94B4800F0CFFB43F623430B9335
:1003E8000C950D940E964FF00A09CDF83C900BA988
:1003F800444800F0C1FB10230B930C950D940E9408
:100408000F950BA93F4800F0B7FB80230B930C9581
:100418000D940E9408230F930BA9404600F0ACFBF3
:100428004FF4F8530B930C950D940E96CDF83CB001
:100438000BA9354800F0A0FB4FF400430B930C9533
:100448000D940E9401270F970BA9304800F094FBE8
:1004580060230B930C950D940E940D230F930BA909
:10046800504600F089FB80230B930C950D940E9455
:1004780007230F930BA9234800F07EFB40230B931F
:100488000C950D940E96CDF83C900BA91D4800F0E4
:1004980073FB48F233130B930C950D940E96CDF81D
:1004A8003CB00BA9164800F067FB4EF6FF730B93A0
:1004B8000C950D940E940E230F930BA9144800F07D
:1004C8005BFB4FF4805ACDF82CA00C940D940BA92B
:1004D8000F4800F051FB40230B934FF490130C93FB
:1004E8000D940BA9404600F047FB4CF2037315E04E
:1004F800003802400020024000280240001C024050
:1005080000180240000402400008024000000240B7
:1005180000240240000C0240001002400B930C958E
:100528000D940E96CDF83CB00BA9404600F024FB84
:100538004FF4E0530B930C950D940E96CDF83C9028
:100548000BA9A44800F018FBF0230B930C950D940D
:100558000E94CDF83C900BA99F4800F00DFBF723B3
:100568000B930C950D940E940E230F930BA99B4897
:1005780000F002FBCDF82CA00C950D940E940923E5
:100588000F930BA9964800F0F7FA4FF480630B938A
:100598000C950D940E94CDF83C900BA9904800F062
:1005A800EBFA20230B930C970D940E940BA940465D
:1005B80000F0E2FA08230B930C950D940E940D238A
:1005C8000F930BA9404600F0D7FA41F20E030B93A4
:1005D8000C970D940E940BA97F4800F0CDFA4FF4B8
:1005E800005ACDF82CA00C940D940BA97D4800F06E
:1005F800C3FA4FF63F030B930C950D940E96CDF866
:100608003CB00BA9784800F0B7FA4FF446430B9377
:100618000C950D940E940E230F930BA96E4800F0C1
:10062800ABFA08230B930C970D940E940BA96B4807
:1006380000F0A2FA4FF400730B930C950D940E94EE
:100648000D230F930BA9664800F096FA10230B931D
:100658000C940D940BA9404600F08EFA04230B93DA
:100668000C950D940E96CDF83CB00BA9404600F0C1
:1006780083FA48F204030B930C940D940BA95B487E
:1006880000F07AFACDF82CA00C970D940E940BA9D3
:10069800564800F071FA4FF4BC430B930C950D9437
:1006A8000E940D230F930BA9504800F065FA0B9791
:1006B8000C950D940E940F950BA9474800F05CFA21
:1006C8004FF400730B930C950D940E9407230F931E
:1006D8000BA9404800F050FA4FF400630B930C94B8
:1006E8000D940BA93C4800F047FA4FF480730B9324
:1006F8000C950D940E940F970BA9364800F03CFA10
:10070800CDF82CA04FF490130C930D940BA93248FC
:1007180000F032FAC0230B930C950D940E96082323
:100728000F930BA92F4800F027FA10230B930C9571
:100738000D940E96CDF83C900BA92C4800F01CFAAD
:100748004FF0280ACDF82CA00C950D940E96CDF8F4
:100758003CB00BA9254800F00FFAC8230B930C975F
:100768000D940E940BA91E4800F006FA4FF4F86396
:100778000B930C960D940BA91B4800F0FDF9082368
:100788000B930C950D940E96CDF83CB00BA915481B
:1007980000F0F2F94FF0050BCDF82CB00C950D9444
:1007A8000E96CDF83C900BA90E4800F0E5F93223DF
:1007B8000B930C950D940E960B230F930BA90948D8
:1007C80000F0DAF904230B930C950D940E96092387
:1007D8000EE000BF00000240002002400028024056
:1007E800001802400008024000140240001C0240A9
:1007F8000F930BA9324800F0BFF94FF460530B93E5
:100808000C950D940E9609230F930BA9404600F002
:10081800B3F904230B930C940D940BA9294800F009
:10082800ABF986230B930C950D940E960B230F931F
:100838000BA9254800F0A0F90B970C960D940BA96D
:10084800214800F099F950230B930C950D940E94C0
:100858000D230F930BA91C4800F08EF94FF4C073B9
:100868000B9312230C930D940E9604230F930BA94C
:10087800164800F081F9CDF82CA00C950D940E9631
:10088800CDF83C900BA9104800F076F940230B9363
:100898000C950D940E9409230F930BA90B4800F0A7
:1008A8006BF94FF440430B930C950D940E94CDF8CF
:1008B8003CB00BA9024800F05FF911B0BDE8F08F19
:1008C800000402400018024000000240001C0240E0
:1008D80072B6FEE700B595B03022002108A800F0F6
:1008E800E6FD002303930493059306930793214A97
:1008F800116C41F080511164126C02F08052019227
:10090800019A1D4A116841F440411160126802F4CD
:1009180040420292029A0222089201210B91102170
:100928000C910E920F9308231093D82311931292CF
:10093800139208A800F06EFAB0B900F02DFAA8B921
:100948000F23039302230493002305934FF4A0532A
:1009580006934FF480530793072103A800F0C8FCBF
:1009680030B915B05DF804FBFFF7B2FFFFF7B0FF31
:10097800FFF7AEFF003802400070004008B500F0F5
:1009880075F8FFF7A7FFFFF755FC05E04FF4006186
:100998000B4800F0F3F960B14FF40061084800F02B
:1009A800EDF90128F2D101220221054800F0EDF904
:1009B800F2E700220221024800F0E7F9ECE700BF65
:1009C8000020024082B00A4B1A6C42F080521A642E
:1009D8001A6C02F080520092009A5A6C42F48042DB
:1009E8005A645B6C03F480430193019B02B0704727
:1009F80000380240FEE7FEE7FEE7FEE7FEE7704745
:100A08007047704708B500F03DF808BD034AD2F8B2
:100A1800883043F47003C2F88830704700ED00E076
:100A280010B504460E4B1A784FF47A73B3FBF2F301
:100A38000C4A1068B0FBF3F000F08AF868B90F2C84
:100A480001D901200AE0002221464FF0FF3000F0D2
:100A58006FF8054B1C60002000E0012010BD00BFAE
:100A680004000020000000200800002008B5032032
:100A780000F04CF80020FFF7D3FFFFF7A3FF00209A
:100A880008BD0000034A1168034B1B780B44136030
:100A9800704700BF2800002004000020014B1868A0
:100AA800704700BF28000020002804DB0901C9B2F4
:100AB800044B1954704700F00F000901C9B2024BEA
:100AC8001954704700E400E014ED00E000B500F0B0
:100AD8000700C0F1070CBCF1040F28BF4FF0040C4D
:100AE800031D062B0FD9C31E4FF0FF3E0EFA0CF064
:100AF80021EA000199400EFA03FE22EA0E0241EAB9
:100B080002005DF804FB0023EEE700000649CB680D
:100B180023F4E0631B041B0C000200F4E0600343B1
:100B2800024A1A43CA60704700ED00E00000FA0567
:100B380010B50446054BD868C0F30220FFF7C6FF7E
:100B480001462046FFF7B0FF10BD00BF00ED00E0F2
:100B58000138B0F1807F0BD24FF0E0235861054A8D
:100B6800F02182F823100020986107221A6170474B
:100B78000120704700ED00E000230F2B00F2F48005
:100B880070B582B066E085684FEA430E032404FA24
:100B98000EF425EA0405CC6804FA0EF42C438460AC
:100BA800446824EA02044A68C2F300129A402243C5
:100BB80042605DE0DC08083450F8242003F00705A3
:100BC800AD004FF00F0E0EFA05FE22EA0E0E0A696E
:100BD800AA4042EA0E0240F824205DE0092200E023
:100BE800002202FA0EF22A430234604D45F824200E
:100BF8005F4A94686FEA0C0224EA0C054E6816F402
:100C0800801F01D04CEA0405594CA560E46802EA4B
:100C180004054E6816F4001F01D04CEA0405544C34
:100C2800E560646802EA04054E6816F4003F01D0E6
:100C38004CEA04054E4C6560246822404D6815F462
:100C4800803F01D04CEA0402494C226001330F2B4B
:100C580000F2888001229A400C6804EA020C32EA09
:100C68000404F3D14C6804F00304013C012C8AD934
:100C78004A6802F00302032A09D0C4685D0003220F
:100C8800AA4024EA02048A68AA402243C2604A6849
:100C980002F00302022A8DD004684FEA430E0322B1
:100CA80002FA0EF224EA02044A6802F0030202FA87
:100CB8000EF2224302604A6812F4403FC6D02D4A21
:100CC800546C44F480445464526C02F4804201929F
:100CD800019A9C08A51C254A52F8255003F0030EDA
:100CE8004FEA8E0E0F2202FA0EF225EA0205224A78
:100CF80090423FF475AF02F58062904222D002F52F
:100D08008062904220D002F5806290421ED002F5A7
:100D1800806290421CD002F5806290421AD002F59F
:100D28008062904218D002F58062904216D002F597
:100D38008062904214D002F5806290423FF44EAF38
:100D48000A224EE701224CE702224AE7032248E73B
:100D5800042246E7052244E7062242E7072240E745
:100D680008223EE702B070BD704700BF003801405E
:100D7800003C01400038024000000240036919426B
:100D880001D001207047002070470AB18161704787
:100D9800090481617047000010B582B01B4B1A6CC2
:100DA80042F080521A641B6C03F080530193019B3C
:100DB800174A136843F480331360FFF76FFE044645
:100DC800134B5B6813F4803F08D1FFF767FE001BE5
:100DD800B0F57A7FF4D9032002B010BD0C4A13682D
:100DE80043F400331360FFF759FE0446084B5B6871
:100DF80013F4003F07D1FFF751FE001BB0F57A7FCF
:100E0800F4D90320E8E70020E6E700BF00380240F5
:100E180000700040002800F0FF8170B582B00446E1
:100E2800036813F0010F29D0954B9B6803F00C035E
:100E3800042B1AD0924B9B6803F00C03082B0FD09D
:100E48006368B3F5803F40D0002B54D18C4B1A68AF
:100E580022F480321A601A6822F480221A6039E07B
:100E6800874B5B6813F4800FEAD0854B1B6813F43B
:100E7800003F03D06368002B00F0D081236813F093
:100E8800020F74D07E4B9B6813F00C0F5ED07C4B26
:100E98009B6803F00C03082B53D0E368002B00F089
:100EA8008980774A136843F001031360FFF7F6FD62
:100EB8000546734B1B6813F0020F72D1FFF7EEFD66
:100EC800401B0228F5D90320ADE16D4A136843F4AD
:100ED8008033136063682BB3FFF7E0FD0546684B6A
:100EE8001B6813F4003FC9D1FFF7D8FD401B6428E5
:100EF800F5D9032097E1B3F5A02F09D0604B1A6804
:100F080022F480321A601A6822F480221A60E1E71B
:100F18005B4B1A6842F480221A601A6842F48032E5
:100F28001A60D7E7FFF7BAFD0546554B1B6813F45F
:100F3800003FA3D0FFF7B2FD401B6428F5D903207A
:100F480071E14F4B5B6813F4800FA6D14C4B1B68C3
:100F580013F0020F03D0E368012B40F06181484A87
:100F6800136823F0F803216943EAC1031360236877
:100F780013F0080F46D0636983B3414A536F43F0B7
:100F880001035367FFF78AFD05463D4B5B6F13F07E
:100F9800020F37D1FFF782FD401B0228F5D9032045
:100FA80041E1374A136823F0F803216943EAC10392
:100FB8001360DCE7324A136823F001031360FFF77C
:100FC8006DFD05462E4B1B6813F0020FCFD0FFF7BF
:100FD80065FD401B0228F5D9032024E1284A536FF8
:100FE80023F001035367FFF759FD0546244B5B6F58
:100FF80013F0020F06D0FFF751FD401B0228F5D968
:10100800032010E1236813F0040F7DD01C4B1B6CE8
:1010180013F0805F1ED11A4B1A6C42F080521A648A
:101028001B6C03F080530193019B0125154B1B6832
:1010380013F4807F10D0A368012B25D0002B3BD15F
:101048000F4B1A6F22F001021A671A6F22F004027E
:101058001A671EE00025E9E70A4A136843F480731B
:101068001360FFF71BFD0646064B1B6813F4807FD1
:10107800E1D1FFF713FD801B6428F5D90320D2E0E6
:1010880000380240007000406E4A136F43F00103BD
:101098001367A36833B3FFF701FD0646694B1B6F5F
:1010A80013F0020F2FD1FFF7F9FC801B41F28833B0
:1010B8009842F3D90320B6E0052B09D0614B1A6F8B
:1010C80022F001021A671A6F22F004021A67E0E799
:1010D8005C4B1A6F42F004021A671A6F42F0010261
:1010E8001A67D6E7FFF7DAFC0646564B1B6F13F074
:1010F800020F08D0FFF7D2FC801B41F288339842D8
:10110800F3D903208FE0FDB9A369002B00F08A8092
:101118004C4A926802F00C02082A58D0022B19D0C7
:10112800484A136823F080731360FFF7B7FC04463E
:10113800444B1B6813F0007F47D0FFF7AFFC001B40
:101148000228F5D903206EE03E4A136C23F0805341
:101158001364D9E73B4A136823F080731360FFF7E1
:101168009DFC0546374B1B6813F0007F06D0FFF740
:1011780095FC401B0228F5D9032054E0E369226A54
:101188001343626A43EA8213A26A5208013A43EAA5
:101198000243E26A43EA026343F00053294A536078
:1011A800136843F080731360FFF778FC0446254BFF
:1011B8001B6813F0007F06D1FFF770FC001B0228A4
:1011C800F5D903202FE000202DE000202BE01D4A58
:1011D8005268012B29D002F48003E1698B4226D1A1
:1011E80002F03F03216A8B4223D1616A47F6C0733C
:1011F8001340B3EB811F1ED102F44031A36A5B0890
:10120800013BB1EB034F18D102F07062E36AB2EB15
:10121800036F14D1002006E001207047012002E08E
:10122800012000E0002002B070BD0120FBE7012092
:10123800F9E70120F7E70120F5E70120F3E70120AE
:10124800F1E700BF0038024008B5264B9B6803F061
:101258000C03042B41D0082B41D1224B5A6802F0D1
:101268003F025B6813F4800F12D01E4B5968C1F31C
:1012780088111D480023A1FB0001FEF7A1FF194BAF
:101288005B68C3F3014301335B00B0FBF3F027E075
:10129800144B5868C0F388104FEA401CBCEB000C94
:1012A8006EEB0E0E4FEA8E1343EA9C634FEA8C11E5
:1012B800B1EB0C0163EB0E03DB0043EA5173C90089
:1012C80011EB000C43F10003990200234FEA8C2034
:1012D80041EA9C51FEF774FFD1E7034800E0034858
:1012E80008BD00BF0038024040787D010024F400AA
:1012F800002800F0A08070B50D460446524B1B68CC
:1013080003F00F038B420BD24F4A136823F00F03ED
:101318000B431360136803F00F038B4240F08D807A
:10132800236813F0020F17D013F0040F04D0474AB4
:10133800936843F4E0539360236813F0080F04D0D4
:10134800424A936843F460439360404A936823F0A9
:10135800F003A1680B439360236813F0010F31D0A9
:101368006368012B20D0022B25D0384A126812F06E
:10137800020F64D035498A6822F0030213438B6058
:10138800FFF78CFB0646314B9B6803F00C03626841
:10139800B3EB820F16D0FFF781FB801B41F2883335
:1013A8009842F0D9032045E0284A126812F4003F19
:1013B800E0D101203EE0254A126812F0007FD9D121
:1013C800012037E0204B1B6803F00F03AB420AD91A
:1013D8001D4A136823F00F032B431360136803F0AF
:1013E8000F03AB422DD1236813F0040F06D0174A20
:1013F800936823F4E053E1680B439360236813F088
:10140800080F07D0114A936823F46043216943EA1F
:10141800C1039360FFF718FF0C4B9B68C3F30313DA
:101428000B4AD35CD8400B4B18600B4B1868FFF77E
:10143800F7FA002070BD012070470120FAE701206B
:10144800F8E70120F6E700BF003C02400038024000
:10145800E41700080000002008000020DFF834D05E
:101468000D480E490E4A002302E0D458C4500433F4
:10147800C4188C42F9D30B4A0B4C002301E01360CB
:101488000432A242FBD3FFF7C1FA00F019F8FFF7C4
:1014980075FA704700000520000000200C000020AD
:1014A800041800080C0000202C000020FEE702446D
:1014B8000346934200D1704703F8011BF9E7000087
:1014C80070B50D4D0D4C641BA4100026A64209D121
:1014D8000B4D0C4C00F076F9641BA4100026A642B4
:1014E80005D170BD55F8043B98470136EEE755F82D
:1014F800043B98470136F2E7FC170008FC17000880
:10150800FC170008001800082DE9F047089D0C4654
:10151800002B4ED194468C458646B2FA82F262D9A7
:101528004AB1C2F12003914020FA03F30CFA02FCFD
:10153800194300FA02FE4FEA1C471FFA8CF6B1FB6A
:10154800F7F44FEA1E4307FB141143EA014304FB77
:1015580006F199420AD91CEB030304F1FF3080F02D
:101568001381994240F21081023C6344591A1FFAD0
:101578008EF3B1FBF7F007FB101143EA014300FBC0
:1015880006F69E420AD91CEB030300F1FF3180F0F6
:10159800FD809E4240F2FA80634402389B1B40EA79
:1015A800044000211DB1D3400022C5E90032BDE846
:1015B800F0878B4205D90DB1C5E900010021084625
:1015C800F5E7B3FA83F1002946D1A34202D390424A
:1015D800C0F0F180861A64EB03030120002DE6D0E9
:1015E800C5E90063E3E7002A40F09180A1EB0C0411
:1015F8004FEA1C481FFA8CF70121B4FBF8F64FEAB2
:101608001E4308FB164443EA044307FB06F09842CE
:1016180008D91CEB030306F1FF3402D2984200F20A
:10162800CE8026461C1A1FFA8EF3B4FBF8F008FB8E
:10163800104443EA044300FB07F79F4208D91CEB18
:10164800030300F1FF3402D29F4200F2B18020462A
:10165800DB1B40EA0640A5E7C1F120068B4022FAD1
:1016680006F71F4320FA06FC04FA01F343EA0C03C9
:10167800F44000FA01F8380C4FEA1349B4FBF0FEC5
:101688001FFA87FC00FB1E4449EA04440EFB0CF9D0
:10169800A14502FA01F20AD93C190EF1FF3A80F08D
:1016A8008580A14540F28280AEF1020E3C44A4EB55
:1016B80009041FFA83F9B4FBF0F300FB134449EA69
:1016C800044403FB0CFCA44507D93C1903F1FF3083
:1016D80068D2A44566D9023B3C4443EA0E40A0FBCD
:1016E8000293A4EB0C049C42CE469C4652D34FD0A6
:1016F80055B1B8EB0E0364EB0C0404FA06F6CB40C4
:10170800CC401E43C5E900640021BDE8F087C2F162
:10171800200320FA03F10CFA02FC24FA03F39440A4
:101728000C434FEA1C4800FA02FE1FFA8CF7B3FB81
:10173800F8F008FB1031230C43EA014300FB07F1E2
:10174800994208D91CEB030300F1FF362CD29942C9
:101758002AD9023863445B1AA4B2B3FBF8F108FB38
:10176800113344EA034401FB07F3A34208D91CEBF5
:10177800040401F1FF3613D2A34211D9023964449B
:10178800E41A41EA004138E70446EFE6084605E76F
:10179800C845ADD2B9EB020E63EB070C0138A7E7D9
:1017A8003146EDE7034698E73046D4E7D6467EE76C
:1017B800634402384CE70646234608460EE7023ED5
:1017C80063442FE7F8B500BFF8BC08BC9E467047D5
:0C17D800F8B500BFF8BC08BC9E46704786
:1017E40000000000000000000102030406070809CD
:0817F4001CFDFF7F0100000055
:0417FC0021020008BE
:04180000FD010008DE
:0C1804000024F4000100000010000000AF
:040000050800146576
:00000001FF
