:020000040800F2
:1000000000000520193A00085107000853070008AE
:1000100055070008570700085907000800000000AE
:100020000000000000000000000000005124000853
:100030005B07000800000000F124000855250008B7
:10004000693A0008693A0008693A0008693A000804
:10005000693A0008693A0008693A0008693A0008F4
:10006000693A0008693A0008693A0008693A0008E4
:10007000693A0008693A0008693A0008693A0008D4
:10008000693A0008693A0008693A0008693A0008C4
:10009000693A0008693A0008693A0008693A0008B4
:1000A000693A0008693A0008693A0008693A0008A4
:1000B000693A0008693A0008693A0008693A000894
:1000C000693A0008693A0008693A0008693A000884
:1000D000693A0008693A0008693A0008693A000874
:1000E000693A0008693A0008693A0008693A000864
:1000F000693A0008693A0008693A0008693A000854
:10010000693A0008693A0008693A0008693A000843
:10011000693A0008693A00085D070008693A000872
:10012000693A0008693A0008693A0008693A000823
:10013000693A0008693A0008693A0008693A000813
:10014000693A0008693A0008693A0008693A000803
:10015000693A0008693A0008693A0008693A0008F3
:10016000693A0008693A0008693A0008693A0008E3
:10017000693A0008693A0008693A0008000000007E
:10018000693A0008693A0008693A0008693A0008C3
:10019000693A0008693A0008693A0008693A0008B3
:1001A000693A0008693A0008693A0008693A0008A3
:1001B000693A0008693A0008693A0008693A000893
:0801C000693A0008693A0008E1
:1001D000034613F8012B002AFBD1181A0138704787
:1001E00001F0FF01102A2BDB10F0070F08D010F8E8
:1001F000013B013A8B422DD010F0070F42B3F6D1EC
:10020000F0B441EA012141EA014122F007047FF004
:1002100000070023F0E80256083C85EA010586EA5B
:10022000010685FA47F5A3FA87F586FA47F6A5FA97
:1002300087F68EB9EED1F0BC01F0FF0102F00702A3
:1002400032B110F8013B013A83EA010313B1F8D14E
:100250000020704701387047002D06BF354603382F
:10026000073815F0010F07D1013015F4807F02BF68
:10027000013015F4C03F0130F0BC0138704700BFB9
:1002800053B94AB9002908BF00281CBF4FF0FF31FD
:100290004FF0FF3000F00CB8ADF1080C6DE904CE62
:1002A00004F090F8DDF804E0DDE9022304B07047C3
:1002B000704700BF10B5054C237833B9044B13B118
:1002C0000448AFF300800123237010BD60000020BC
:1002D000000000008046000808B5034B1BB103492D
:1002E0000348AFF3008008BD000000006400002058
:1002F0008046000808B5012002F006F8FBE7000080
:10030000034B0360034B0B6080231360704700BFF7
:100310007C0200207C00002010B588B00DF1040C98
:10032000074C0FCCACE80F0094E807008CE80700FE
:10033000002101A801F0B5FF024B186008B010BD04
:1003400098460008D002002030B58BB000240594F8
:1003500006940794089409941B4B1A6B42F001020F
:100360001A631A6B02F001020192019A1A6B42F0B1
:1003700002021A631A6B02F002020292029A1A6BCC
:1003800042F480721A631A6B02F480720392039A29
:100390001A6B42F080021A631B6B03F08003049314
:1003A000049B0A4D22460221284600F0F9FB022355
:1003B0000593012306930794089405A9284600F0A5
:1003C000EDFA0BB030BD00BF003802400020024003
:1003D00070B59AB0064603F0DFF902F08BFF0546D0
:1003E00002E0304603F0A8F8214B1B68002B30D008
:1003F0002A46204901A803F039FB01A8FFF7E8FECF
:100400004FF0FF3382B201A91B4801F08AFE184C5D
:1004100000231A461946206802F063FB00220221DD
:10042000164800F0BDFB206802F002FD0028D8D07D
:1004300033462A46124901A803F018FB01A8FFF72A
:10044000C7FE4FF0FF3382B201A90B4801F069FEED
:10045000C7E74FF0FF331C220A49074801F061FE4D
:100460004FF47A7003F068F800F094FABCE700BF2C
:10047000D4020020C04600082403002000200240CF
:10048000F44600083847000830B59BB003F084F903
:1004900002F030FF05460CE04FF0FF331C221E49EE
:1004A0001E4801F03EFE4FF47A7003F045F800F06C
:1004B00071FA1B4B1B68002BEED02A46194901A884
:1004C00003F0D4FA01A8FFF783FE4FF0FF3382B2A6
:1004D00001A9124801F025FE114C4FF0FF312068B0
:1004E00002F0CBFB012202210F4800F059FB2068EB
:1004F00002F09EFC0028DCD02A460C4901A803F03B
:10050000B5FA01A8FFF764FE4FF0FF3382B201A9EC
:10051000024801F006FECCE738470008240300201B
:10052000D402002058470008002002408C470008F1
:1005300008B50268034B9A4200D008BD00F0A4F948
:10054000FBE700BF0010004072B6FEE700B595B0B3
:100550003022002108A803F0A9FA00230393049392
:10056000059306930793234B1A6C42F080521A644A
:100570001B6C03F080530193019B1F4B1A6842F4DC
:1005800040421A601B6803F440430293029B01231C
:1005900008934FF48033099302230E934FF48002A3
:1005A0000F92192210924FF4D87211921293139352
:1005B00008A800F039FBB0B900F0F8FAA8B90F2389
:1005C000039302230493002305934FF4A05306934F
:1005D0004FF480530793072103A800F093FD30B92F
:1005E00015B05DF804FBFFF7AFFFFFF7ADFFFFF7B6
:1005F000ABFF00BF003802400070004010B584B06F
:1006000000240394029400F033F9FFF79FFFFFF7F3
:100610009BFE00F0B5F803222146012002F038FAD3
:100620000E4B186003AB0193012300934FF47A73D0
:100630001A460B490B4802F0E6FD02AB0193022378
:10064000009323464FF47A720749084802F0DBFD15
:10065000FFF762FE01F020FEFEE700BFD40200209B
:10066000C0470008D1030008C847000889040008F3
:1006700000B583B00D4B1A6C42F080521A641A6CAC
:1006800002F080520092009A5A6C42F480425A64FE
:100690005B6C03F480430193019B00220F216FF0F8
:1006A000010000F059F903B05DF804FB0038024086
:1006B00030B589B00446214B1A6C42F010021A641E
:1006C0001B6C03F010030193019B02A903A800F027
:1006D000F5FD069BCBB900F0D1FD0346184AA2FBFD
:1006E00003239B0C013B1748174A026040F2E73294
:1006F000C2604360002303618360836101F076FA86
:10070000054630B1284609B030BD00F0B7FD4300C2
:10071000E4E70C4801F0C8F805460028F2D136207D
:1007200000F02AF90F2C01D90125EBE70022214620
:10073000362000F011F9054B1C60E3E70038024059
:1007400083DE1B43D8020020001000400800002078
:10075000FEE7FEE7FEE7FEE7FEE7704708B5024862
:1007600001F0EEF808BD00BFD8020020034AD2F81D
:10077000883043F47003C2F88830704700ED00E021
:1007800008B50B480B4B03604FF4E1334360002383
:100790008360C36003610C2242618361C3610362B1
:1007A000436201F042FD00B908BDFFF7CDFEFBE753
:1007B0002403002000100140F0B5ABB00446002136
:1007C00025912691279128912991842204A803F04C
:1007D0006DF92268224B9A4201D02BB0F0BD402324
:1007E000049304A800F088FD002835D11D4B5A6CF5
:1007F00042F010025A645A6C02F010020192019AFF
:100800001A6B42F002021A631A6B02F002020292A1
:10081000029A1A6B42F001021A631B6B03F0010388
:100820000393039B80232593022726970026279670
:10083000032528950724299425A90B4800F0AEF834
:100840004FF400732593269727962895299425A978
:10085000064800F0A3F8C0E7FFF776FEC6E700BF42
:100860000010014000380240000402400000024035
:1008700008B5032000F05EF80F20FFF719FFFFF71F
:10088000F7FE002008BD0000034A1168034B1B78E7
:100890000B441360704700BFAC030020040000202D
:1008A000014B1868704700BFAC030020002804DB30
:1008B0000901C9B2044B1954704700F00F00090137
:1008C000C9B2024B1954704700E400E014ED00E097
:1008D00000B500F00700C0F1070CBCF1040F28BF01
:1008E0004FF0040C031D062B0FD9C31E4FF0FF3E23
:1008F0000EFA0CF021EA000199400EFA03FE22EAFA
:100900000E0241EA02005DF804FB0023EEE700005E
:10091000BFF34F8F0549CA6802F4E062044B1343EA
:10092000CB60BFF34F8F00BFFDE700BF00ED00E0DD
:100930000400FA050649CB6823F4E0631B041B0C92
:10094000000200F4E0600343024A1A43CA607047A1
:1009500000ED00E00000FA0510B50446054BD8682C
:10096000C0F30220FFF7B4FF01462046FFF79EFFC9
:1009700010BD00BF00ED00E0002807DB00F01F0203
:10098000400901239340024A42F82030704700BFDB
:1009900000E100E008B5FFF7BBFF000000230F2BCC
:1009A00000F2F48070B582B066E085684FEA430ECD
:1009B000032404FA0EF425EA0405CC6804FA0EF4C4
:1009C0002C438460446824EA02044A68C2F300129B
:1009D0009A40224342605DE0DC08083450F824204D
:1009E00003F00705AD004FF00F0E0EFA05FE22EAE8
:1009F0000E0E0A69AA4042EA0E0240F824205DE089
:100A0000092200E0002202FA0EF22A430234604D6D
:100A100045F824205F4A94686FEA0C0224EA0C052A
:100A20004E6816F4801F01D04CEA0405594CA560AD
:100A3000E46802EA04054E6816F4001F01D04CEA8F
:100A40000405544CE560646802EA04054E6816F437
:100A5000003F01D04CEA04054E4C656024682240FA
:100A60004D6815F4803F01D04CEA0402494C2260E5
:100A700001330F2B00F2888001229A400C6804EAAF
:100A8000020C32EA0404F3D14C6804F00304013C84
:100A9000012C8AD94A6802F00302032A09D0C468EB
:100AA0005D000322AA4024EA02048A68AA40224385
:100AB000C2604A6802F00302022A8DD004684FEA3D
:100AC000430E032202FA0EF224EA02044A6802F0FC
:100AD000030202FA0EF2224302604A6812F4403F17
:100AE000C6D02D4A546C44F480445464526C02F4D1
:100AF00080420192019A9C08A51C254A52F8255073
:100B000003F0030E4FEA8E0E0F2202FA0EF225EAD0
:100B10000205224A90423FF475AF02F5806290428E
:100B200022D002F58062904220D002F5806290428D
:100B30001ED002F5806290421CD002F58062904285
:100B40001AD002F58062904218D002F5806290427D
:100B500016D002F58062904214D002F58062904275
:100B60003FF44EAF0A224EE701224CE702224AE749
:100B7000032248E7042246E7052244E7062242E72B
:100B8000072240E708223EE702B070BD704700BF71
:100B900000380140003C01400038024000000240A3
:100BA0000AB18161704709048161704710B582B054
:100BB0001B4B1A6C42F080521A641B6C03F080537A
:100BC0000193019B174A136843F480331360FFF7C6
:100BD00067FE0446134B5B6813F4803F08D1FFF7B0
:100BE0005FFE001BB0F57A7FF4D9032002B010BD80
:100BF0000C4A136843F400331360FFF751FE0446B8
:100C0000084B5B6813F4003F07D1FFF749FE001B58
:100C1000B0F57A7FF4D90320E8E70020E6E700BFCB
:100C20000038024000700040002800F0FF8170B5DD
:100C300082B00446036813F0010F29D0954B9B68DE
:100C400003F00C03042B1AD0924B9B6803F00C03A7
:100C5000082B0FD06368B3F5803F40D0002B54D1F0
:100C60008C4B1A6822F480321A601A6822F48022AF
:100C70001A6039E0874B5B6813F4800FEAD0854B2C
:100C80001B6813F4003F03D06368002B00F0D08191
:100C9000236813F0020F74D07E4B9B6813F00C0F87
:100CA0005ED07C4B9B6803F00C03082B53D0E368A9
:100CB000002B00F08980774A136843F0010313602A
:100CC000FFF7EEFD0546734B1B6813F0020F72D160
:100CD000FFF7E6FD401B0228F5D90320ADE16D4A80
:100CE000136843F48033136063682BB3FFF7D8FDB8
:100CF0000546684B1B6813F4003FC9D1FFF7D0FDD0
:100D0000401B6428F5D9032097E1B3F5A02F09D043
:100D1000604B1A6822F480321A601A6822F480222A
:100D20001A60E1E75B4B1A6842F480221A601A6885
:100D300042F480321A60D7E7FFF7B2FD0546554B03
:100D40001B6813F4003FA3D0FFF7AAFD401B6428E3
:100D5000F5D9032071E14F4B5B6813F4800FA6D1E6
:100D60004C4B1B6813F0020F03D0E368012B40F0DB
:100D70006181484A136823F0F803216943EAC103FB
:100D80001360236813F0080F46D0636983B3414AA8
:100D9000536F43F001035367FFF782FD05463D4B58
:100DA0005B6F13F0020F37D1FFF77AFD401B02286B
:100DB000F5D9032041E1374A136823F0F80321698C
:100DC00043EAC1031360DCE7324A136823F00103EE
:100DD0001360FFF765FD05462E4B1B6813F0020FED
:100DE000CFD0FFF75DFD401B0228F5D9032024E199
:100DF000284A536F23F001035367FFF751FD05465F
:100E0000244B5B6F13F0020F06D0FFF749FD401B28
:100E10000228F5D9032010E1236813F0040F7DD0D8
:100E20001C4B1B6C13F0805F1ED11A4B1A6C42F0E6
:100E300080521A641B6C03F080530193019B0125BF
:100E4000154B1B6813F4807F10D0A368012B25D0AD
:100E5000002B3BD10F4B1A6F22F001021A671A6F59
:100E600022F004021A671EE00025E9E70A4A136827
:100E700043F480731360FFF713FD0646064B1B68AF
:100E800013F4807FE1D1FFF70BFD801B6428F5D9B7
:100E90000320D2E000380240007000406E4A136F19
:100EA00043F001031367A36833B3FFF7F9FC064669
:100EB000694B1B6F13F0020F2FD1FFF7F1FC801B62
:100EC00041F288339842F3D90320B6E0052B09D0CC
:100ED000614B1A6F22F001021A671A6F22F00402A6
:100EE0001A67E0E75C4B1A6F42F004021A671A6F48
:100EF00042F001021A67D6E7FFF7D2FC0646564BCE
:100F00001B6F13F0020F08D0FFF7CAFC801B41F2E1
:100F100088339842F3D903208FE0FDB9A369002BF1
:100F200000F08A804C4A926802F00C02082A58D0DD
:100F3000022B19D0484A136823F080731360FFF71F
:100F4000AFFC0446444B1B6813F0007F47D0FFF70B
:100F5000A7FC001B0228F5D903206EE03E4A136C63
:100F600023F080531364D9E73B4A136823F080735E
:100F70001360FFF795FC0546374B1B6813F0007FA5
:100F800006D0FFF78DFC401B0228F5D9032054E062
:100F9000E369226A1343626A43EA8213A26A52082F
:100FA000013A43EA0243E26A43EA026343F0005330
:100FB000294A5360136843F080731360FFF770FC95
:100FC0000446254B1B6813F0007F06D1FFF768FC31
:100FD000001B0228F5D903202FE000202DE000207F
:100FE0002BE01D4A5268012B29D002F48003E169ED
:100FF0008B4226D102F03F03216A8B4223D1616AE2
:1010000047F6C0731340B3EB811F1ED102F4403189
:10101000A36A5B08013BB1EB034F18D102F0706289
:10102000E36AB2EB036F14D1002006E001207047A1
:10103000012002E0012000E0002002B070BD01208C
:10104000FBE70120F9E70120F7E70120F5E70120A0
:10105000F3E70120F1E700BF0038024008B5264B56
:101060009B6803F00C03042B41D0082B41D1224B89
:101070005A6802F03F025B6813F4800F12D01E4BD7
:101080005968C1F388111D480023A1FB0001FFF737
:10109000F7F8194B5B68C3F3014301335B00B0FB06
:1010A000F3F027E0144B5868C0F388104FEA401C57
:1010B000BCEB000C6EEB0E0E4FEA8E1343EA9C6302
:1010C0004FEA8C11B1EB0C0163EB0E03DB0043EA3A
:1010D0005173C90011EB000C43F100039902002386
:1010E0004FEA8C2041EA9C51FFF7CAF8D1E7034848
:1010F00000E0034808BD00BF0038024040787D0191
:101100000024F400002800F0A08070B50D460446CD
:10111000524B1B6803F00F038B420BD24F4A1368EC
:1011200023F00F030B431360136803F00F038B428C
:1011300040F08D80236813F0020F17D013F0040FD6
:1011400004D0474A936843F4E0539360236813F054
:10115000080F04D0424A936843F460439360404AC6
:10116000936823F0F003A1680B439360236813F0A6
:10117000010F31D06368012B20D0022B25D0384AD3
:10118000126812F0020F64D035498A6822F0030217
:1011900013438B60FFF784FB0646314B9B6803F0DB
:1011A0000C036268B3EB820F16D0FFF779FB801B4C
:1011B00041F288339842F0D9032045E0284A12686A
:1011C00012F4003FE0D101203EE0254A126812F0FF
:1011D000007FD9D1012037E0204B1B6803F00F03BB
:1011E000AB420AD91D4A136823F00F032B43136047
:1011F000136803F00F03AB422DD1236813F0040FE3
:1012000006D0174A936823F4E053E1680B439360D8
:10121000236813F0080F07D0114A936823F4604342
:10122000216943EAC1039360FFF718FF0C4B9B68E9
:10123000C3F303130B4AD35CD8400B4B18600B4B22
:101240001868FFF735FA002070BD012070470120B3
:10125000FAE70120F8E70120F6E700BF003C024072
:1012600000380240D8470008000000200800002095
:10127000014B1868704700BF0000002008B5FFF759
:10128000F7FF044B9B68C3F38223034AD35CD84027
:1012900008BD00BF00380240D047000808B5FFF77E
:1012A000E7FF044B9B68C3F34233034AD35CD84047
:1012B00008BD00BF00380240D04700080F2303607C
:1012C0000B4B9A6802F0030242609A6802F0F00247
:1012D00082609A6802F4E052C2609B68DB0803F403
:1012E000E0530361034B1B6803F00F030B6070476F
:1012F00000380240003C0240F0B583B00446066866
:1013000016F001060DD0A74B9A6822F400029A60ED
:101310009A68416B0A439A60436B002B00F0398155
:101320000026256815F4002511D09E4AD2F88C308D
:1013300023F44013E16B0B43C2F88C30E36BB3F53D
:10134000801F00F02881002B00F0278100252368F2
:1013500013F4801F0FD0934AD2F88C3023F440034B
:10136000216C0B43C2F88C30236CB3F5800F00F076
:10137000168103B90125236813F0807F00D0012670
:1013800013F0200F40F01081236813F0100F0CD0E1
:10139000844BD3F88C2022F08072C3F88C20D3F8D1
:1013A0008C20A16B0A43C3F88C20236813F4804F70
:1013B00008D07C4AD2F8903023F44033616E0B435E
:1013C000C2F89030236813F4004F08D0754AD2F861
:1013D000903023F44023A16E0B43C2F89030236871
:1013E00013F4803F08D06F4AD2F8903023F44013B2
:1013F000E16E0B43C2F89030236813F4003F08D02D
:10140000684AD2F8903023F44003216F0B43C2F8AE
:101410009030236813F0400F08D0624AD2F8903021
:1014200023F00303616C0B43C2F89030236813F080
:10143000800F08D05B4AD2F8903023F00C03A16CE7
:101440000B43C2F89030236813F4807F08D0554ACC
:10145000D2F8903023F03003E16C0B43C2F89030A7
:10146000236813F4007F08D04E4AD2F8903023F05E
:10147000C003216D0B43C2F89030236813F4806FD2
:1014800008D0484AD2F8903023F44073616D0B4382
:10149000C2F89030236813F4006F08D0414AD2F8A4
:1014A000903023F44063A16D0B43C2F89030236861
:1014B00013F4805F08D03B4AD2F8903023F44053B5
:1014C000E16D0B43C2F89030236813F4005F08D03D
:1014D000344AD2F8903023F44043216E0B43C2F8D3
:1014E0009030236813F4800F08D02E4AD2F8903041
:1014F00023F08063A16F0B43C2F89030236813F48C
:10150000001F0DD0274AD2F8903023F00063E16F1E
:101510000B43C2F89030E36FB3F1006F00F0AA8084
:10152000236813F0080F00D0012513F4802F08D092
:101530001C4AD2F8903023F04073616F0B43C2F81D
:101540009030236813F4000F09D0164AD2F8903077
:1015500023F08053D4F880100B43C2F8903026B9A2
:10156000236813F0007F00F005810E4A136823F012
:1015700080631360FFF794F906460A4B1B6813F06B
:10158000006F79D0FFF78CF9801B6428F5D9032010
:10159000F3E00126C5E60126D5E60125D7E60126BA
:1015A000E7E600BF003802407F4B1A6C42F08052E1
:1015B0001A641B6C03F080530193019B7B4A1368F0
:1015C00043F480731360FFF76BF90746774B1B6892
:1015D00013F4807F06D1FFF763F9C01B6428F5D9A7
:1015E0000320CAE0704B1B6F13F4407315D0226BBD
:1015F00002F440729A4210D06B4B1A6F22F4407280
:10160000196F41F480311967196F21F4803119671E
:101610001A671B6F13F0010F12D1236B03F4407292
:10162000B2F5407F1DD0604A936823F4F8139360AD
:101630005D490B6F226BC2F30B0213430B67A3E6EA
:10164000FFF72EF90746584B1B6F13F0020FE4D13A
:10165000FFF726F9C01B41F288339842F3D90320E3
:101660008BE05148826822F4F812514919400A432C
:101670008260DDE7012553E7236813F0010F13D0E3
:10168000636B8BB9484AD2F88430D2F88410606812
:1016900003F4403343EA801301F070610B43A16807
:1016A00043EA0173C2F88430236813F4002F03D097
:1016B000E26BB2F5801F06D013F4801F1ED0236C9E
:1016C000B3F5800F1AD1384AD2F88430D2F884109A
:1016D000606803F4403343EA8013E06843EA006340
:1016E00001F0E0410B43C2F88430D2F88C3023F093
:1016F0001F03616A01390B43C2F88C30236813F071
:10170000807F11D0284AD2F88400D2F8841066680D
:1017100023691B0443EA861300F07060034301F061
:10172000E0410B43C2F88430236813F0007F0DD0F2
:10173000626823691B0443EA8213E26843EA026396
:10174000A26843EA0273184AC2F88430164A136842
:1017500043F080631360FFF7A3F80646124B1B6843
:1017600013F0006F06D1FFF79BF8801B6428F5D9B2
:10177000032002E0012D02D0002003B0F0BD0A4A90
:10178000136823F080531360FFF78AF80546064B71
:101790001B6813F0005F0DD0FFF782F8401B642830
:1017A000F5D90320E9E700BF00380240007000408F
:1017B000FFFCFF0F236813F4002F01D0E26B22B16E
:1017C00013F4801F1DD0236CDBB9354AD2F8883062
:1017D000D2F88810606903F4403343EA8013A069AB
:1017E00043EA006301F0E0410B43C2F88830D2F8CD
:1017F0008C3023F4F853A16A013943EA0123C2F87B
:101800008C30236813F4001F03D0E36FB3F1006F33
:1018100031D0236813F0080F19D0214AD2F888106C
:10182000D2F88830606903F4403343EA801301F052
:1018300070610B43E16943EA0173C2F88830D2F862
:101840008C3023F44033E16A0B43C2F88C30144AE5
:10185000136843F080531360FFF722F80446104BDF
:101860001B6813F0005F19D1FFF71AF8001B6428FA
:10187000F5D9032081E70A4AD2F88800D2F8881007
:101880006569236A1B0443EA851300F07060034313
:1018900001F0E0410B43C2F88830BAE700206CE762
:1018A000003802407047000090F83D30DBB2012B59
:1018B0003AD1022380F83D300268D36843F0010337
:1018C000D36003681A4AB3F1804F18BF93421DD00A
:1018D000A2F57C42934219D002F58062934215D062
:1018E00002F58062934211D002F5784293420DD006
:1018F00002F57052934209D0A2F59432934205D07A
:101900001A6842F001021A60002070479968094A7B
:101910000A40062A18BFB2F5803F07D01A6842F085
:1019200001021A60002070470120704700207047B4
:101930000000014007000100704770477047704782
:1019400010B5044603681A6912F0020F11D0DA6864
:1019500012F0020F0DD06FF002021A61012303771B
:1019600003689B6913F0030F79D0FFF7E6FF0023AC
:10197000237723681A6912F0040F12D0DA6812F084
:10198000040F0ED06FF004021A610223237723683C
:101990009B6913F4407F68D02046FFF7CEFF0023F9
:1019A000237723681A6912F0080F12D0DA6812F050
:1019B000080F0ED06FF008021A6104232377236802
:1019C000DB6913F0030F57D02046FFF7B6FF002363
:1019D000237723681A6912F0100F12D0DA6812F018
:1019E000100F0ED06FF010021A61082323772368BE
:1019F000DB6913F4407F46D02046FFF79EFF0023AB
:101A0000237723681A6912F0010F03D0DA6812F005
:101A1000010F3FD123681A6912F0800F03D0DA68F2
:101A200012F0800F3DD123681A6912F4807F03D031
:101A3000DA6812F0800F3BD123681A6912F0400F68
:101A400003D0DA6812F0400F39D123681A6912F016
:101A5000200F03D0DA6812F0200F37D110BDFFF746
:101A60006BFF2046FFF76AFF81E72046FFF764FF20
:101A70002046FFF763FF92E72046FFF75DFF204611
:101A8000FFF75CFFA3E72046FFF756FF2046FFF76E
:101A900055FFB4E76FF001021A612046FEF748FDDA
:101AA000B8E76FF080021A61204600F0D0F8BAE77C
:101AB0006FF480721A61204600F0CAF8BCE76FF03C
:101AC00040021A612046FFF73AFFBEE76FF020029E
:101AD0001A61204600F0BAF8C0E7000030B503688C
:101AE0003B4A904214BF4FF0000E4FF0010EB0F190
:101AF000804F14BF72464EF00102AAB9354CA04285
:101B000014BF00240124344DA8420DD064B904F15F
:101B1000804404F58234A04214BF0024012405F55A
:101B20000065A84200D01CB123F070034C68234329
:101B3000002A33D1274A904214BF00220122264CAA
:101B4000A0422BD052BB02F1804202F58232904279
:101B500014BF0022012204F50064A0421ED0EAB99D
:101B60001E4A904214BF0022012204F59A34A0427A
:101B700014D09AB91A4A904214BF0022012204F5E7
:101B80000064A0420AD04AB9164A904214BF00220B
:101B90000122A4F59634A04200D022B123F4407C67
:101BA000CB6843EA0C0323F080034A6913430360C4
:101BB0008A68C2620A6882620B4A904214BF734606
:101BC0004EF001030BB10B6903630123436130BD88
:101BD00000000140000800400004004000440140B3
:101BE00000180040002000400004014060B310B520
:101BF000044690F83D3013B3022384F83D3021466B
:101C000051F8040BFFF76AFF012384F8483084F889
:101C10003E3084F83F3084F8403084F8413084F816
:101C2000423084F8433084F8443084F8453084F8F6
:101C3000463084F8473084F83D30002010BD80F8ED
:101C40003C30FFF72FFED7E7012070477047704701
:101C50007047000010B50446836802691343426967
:101C60001343C269134301680868934A02401A4348
:101C70000A602268536823F44053E1680B435360C1
:101C8000A269236A1A4321688B6823F430631343E3
:101C90008B602368894A934219D0894A934229D09C
:101CA000884A93423ED0884A934262D0874A934200
:101CB00071D0874A934200F08380864A934200F0B5
:101CC0009480854A934200F0A58010233AE0834B2C
:101CD000D3F8903003F00303032B09D8DFE803F0B7
:101CE0000204AE0601232DE004232BE0082329E0A3
:101CF000102327E0794BD3F8903003F00C030C2B22
:101D00000ED8DFE803F0070D0D0D090D0D0D9D0D2B
:101D10000D0D0B00002315E0042313E0082311E050
:101D200010230FE06D4BD3F8903003F03003202BDD
:101D300000F0888019D8002B00F08680102B40F02E
:101D400085800423E069B0F5004F00F0AB80082BDC
:101D500000F20C81DFE813F0E800FB00E6000A0166
:101D6000FE000A010A010A010101302B70D108238B
:101D7000E8E75A4BD3F8903003F0C003802B69D0CA
:101D800005D8002B68D0402B68D10423DAE7C02B9C
:101D900066D10823D6E7514BD3F8903003F4407353
:101DA000B3F5007F5ED006D8002B5DD0B3F5807F01
:101DB0005CD10423C6E7B3F5407F59D10823C1E7BE
:101DC000464BD3F8903003F44063B3F5006F51D025
:101DD00006D8002B50D0B3F5806F4FD10423B1E764
:101DE000B3F5406F4CD10823ACE73C4BD3F89030AF
:101DF00003F44053B3F5005F44D006D8002B43D022
:101E0000B3F5805F42D104239CE7B3F5405F3FD137
:101E1000082397E7314BD3F8903003F44043B3F5F0
:101E2000004F37D005D8BBB3B3F5804F36D104236C
:101E300088E7B3F5404F33D1082383E7022381E7D6
:101E400002237FE702237DE700237BE7102379E766
:101E5000102377E7022375E7002373E7102371E768
:101E600010236FE702236DE700236BE7102369E778
:101E7000102367E7022365E7012363E7102361E787
:101E800010235FE702235DE700235BE7102359E798
:101E9000102357E7022355E7002353E7102351E7A8
:101EA00010234FE7082B5BD8DFE803F01A343A5AC7
:101EB000375A5A5A1E0000BFF369FFEF0010014065
:101EC0000044004000480040004C004000500040EA
:101ED0000014014000780040007C004000380240BF
:101EE000FFF7CCF900283DD06268530803EB4003AC
:101EF000B3FBF2F3A3F110014FF6EF72914233D826
:101F00009AB222F00F02C3F3420313432268D36054
:101F1000002030E0FFF7C2F9E4E7FFF79FF8E1E7C0
:101F20001748E1E7164802E0FFF7A8F900B3636835
:101F300000EB5300B0FBF3F0A0F110024FF6EF738B
:101F40009A4217D8236880B2D860002013E0FFF7C8
:101F5000A5F9EBE7FFF782F8E8E74FF40040E6E782
:101F6000012008E0002006E0012004E0012002E05A
:101F7000002000E001200023A366E36610BD00BF3F
:101F80000024F400436A13F0010F06D0026853687E
:101F900023F40033816A0B435360436A13F0020F4A
:101FA00006D00268536823F48033C16A0B43536040
:101FB000436A13F0040F06D00268536823F48023A9
:101FC000016B0B435360436A13F0080F06D002689D
:101FD000536823F40043416B0B435360436A13F08F
:101FE000100F06D00268936823F48053816B0B4373
:101FF0009360436A13F0200F06D00268936823F4BD
:102000000053C16B0B439360436A13F0400F0AD037
:102010000268536823F48013016C0B435360036C14
:10202000B3F5801F0BD0436A13F0800F06D002680F
:10203000536823F40023816C0B435360704702689C
:10204000536823F4C003416C0B435360EBE72DE965
:10205000F84305460F4616469946DDF820802B6862
:10206000DC6937EA04040CBF01240024B44255D1D2
:10207000B8F1FF3FF3D0FEF713FCA0EB0900404599
:102080002ED8B8F1000F2BD02B681A6812F0040F6D
:10209000E5D0DA6912F4006FE1D04FF400621A6201
:1020A0002A6852E8003F23F4D07342E80031002947
:1020B000F6D12A6802F1080353E8003F23F0010338
:1020C000083242E800310029F3D12023EB67C5F83C
:1020D0008030C5F88430002385F8783003201EE076
:1020E0002A6852E8003F23F4D07342E80031002907
:1020F000F6D12A6802F1080353E8003F23F00103F8
:10210000083242E800310029F3D12023EB67C5F8FB
:102110008030002385F87830032000E00020BDE8FF
:10212000F8832DE9F04182B01E46C36F202B4ED1BB
:1021300004460D469046002A18BF002901D101200F
:1021400046E00023C0F884302123C367FEF7A8FBD4
:102150000746A4F85080A4F85280A368B3F5805FC6
:1021600002D04FF0000811E0236913B34FF00008CC
:102170000CE038F8023B2268C3F308039362B4F81A
:10218000522092B2013A92B2A4F85220B4F85230DE
:102190009BB28BB100963B46002280212046FFF780
:1021A00056FFC0B9002DE4D015F8012B23689A62C0
:1021B000E5E7A8460025E9E700963B4600224021D6
:1021C0002046FFF744FF40B92023E36700E00220E8
:1021D00002B0BDE8F0810320FAE70320F8E710B56C
:1021E00082B004460023C0F88430FEF759FB236810
:1021F0001B6813F0080F0AD12023E367C4F880306E
:1022000000202066606684F8780002B010BD6FF090
:102210007E430093034600224FF400112046FFF74F
:1022200016FF0028E8D00320EFE768B310B5044696
:10223000C36F03B32423E3672268136823F0010309
:1022400013602046FFF706FD012813D0636ABBB96F
:102250002268536823F4904353602268936823F004
:102260002A0393602268136843F001031360204639
:10227000FFF7B5FF10BD80F87830FEF79DFAD9E77B
:102280002046FFF77FFEE3E701207047842801D056
:10229000033070470020704708B500F0E7FF0020CA
:1022A00008BD2DE9F04387B00E464469C4B1856985
:1022B000B5B14768D0F80080D0F81090B0F90800A8
:1022C000FFF7E4FF02950194009033464A464146E9
:1022D000384600F057FF0590059807B0BDE8F08339
:1022E000446805680769B0F90800FFF7CFFF05AB40
:1022F000019300903346BAB22946204600F083FF8E
:102300000128E9D00020E8E708B500B9012001F074
:1023100013F9002008BD00F1080343604FF0FF32BD
:102320008260C36003610023036070470023036180
:10233000704743684B609A688A6051609960086191
:10234000036801330360704730B40D68B5F1FF3F97
:1023500011D000F108031C465B681A68AA42FAD93A
:1023600063684B6099608C60616008610368013349
:10237000036030BC70470469F2E703694168826812
:102380008A60416851605A68824206D00022026128
:102390001A68013A1A601868704782685A60F5E74F
:1023A00082B0002301930F4B1B68B3F1FF3F0AD0AB
:1023B0004FF0500372B683F31188BFF36F8FBFF3F2
:1023C0004F8F62B6FEE74FF0500372B683F3118869
:1023D000BFF36F8FBFF34F8F62B6019B002BFCD012
:1023E00002B070470C00002008480068006880F3C5
:1023F00008884FF0000080F3148862B661B6BFF31E
:102400004F8FBFF36F8F00DF00BF000008ED00E0CB
:10241000DFF80C00016841F47001016070470000B2
:1024200088ED00E04FF0807340F8043C21F001019A
:1024300040F8081C054B40F80C3C40F8202C6FF08D
:10244000020340F8243C4438704700BFA123000831
:10245000074B19680868B0E8F04F80F30988BFF3AC
:102460006F8F4FF0000080F311887047AFF300804A
:10247000F84000204FF0500372B683F31188BFF389
:102480006F8FBFF34F8F62B60C4A1368013313602E
:10249000012B00D070474FF0E023D3F8043D13F038
:1024A000FF0FF7D04FF0500372B683F31188BFF3DC
:1024B0006F8FBFF34F8F62B6FEE700BF0C000020A6
:1024C0000A4B1B6853B94FF0500372B683F311885F
:1024D000BFF36F8FBFF34F8F62B6FEE7013B034A36
:1024E00013600BB983F31188704700BF0C00002004
:1024F000EFF30980BFF36F8F154B1A681EF0100FB2
:1025000008BF20ED108A20E9F04F10602DE9090086
:102510004FF0500072B680F31188BFF34F8FBFF3B6
:102520006F8F62B601F030F84FF0000080F3118831
:1025300009BC19680868B0E8F04F1EF0100F08BF1A
:10254000B0EC108A80F30988BFF36F8F704700BF2B
:10255000F840002008B54FF0500372B683F311889D
:10256000BFF36F8FBFF34F8F62B600F0D9FE28B173
:102570004FF0E0234FF08052C3F8042D002383F383
:10258000118808BD4FF0E022002313619361054BD1
:102590001B680549A1FB03139B09013B53610723FA
:1025A0001361704700000020D34D621030B583B036
:1025B0002F4B1A78D2B20192FF221A701B78DBB22D
:1025C0008DF803309DF8033003F05003294A13704F
:1025D000294B07221A6009E0274A1368013B136060
:1025E0009DF803305B00DBB28DF803309DF80330BB
:1025F00013F0800FF0D1204B1B68032B0AD04FF053
:10260000500372B683F31188BFF36F8FBFF34F8F00
:1026100062B6FEE71B02184A136003F4E06313601E
:10262000019BDBB2124A13704FF0E024D4F8203D36
:1026300043F47003C4F8203DD4F8203D43F07043C8
:10264000C4F8203DFFF79EFF00250C4B1D60FFF7EF
:10265000DFFED4F8343F43F04043C4F8343FFFF783
:10266000C3FE00F091FFFFF79BFE284603B030BD8C
:1026700000E400E0B4030020B00300200C000020C0
:10268000124A12F0070F1ED0D11D21F00701C1F52B
:10269000705313440A460E480260002141601344FF
:1026A000083B23F007030B48036059601960991A2F
:1026B00051601360084B1960084B1960084B4FF0CC
:1026C00000421A6070474FF47053E4E7D0030020D3
:1026D000C8030020C4030020BC030020C003002066
:1026E000B8030020164B1A461B688342FBD351687F
:1026F00002EB010C844509D0416800EB010C6345F5
:1027000009D00360904219D01060704740680144BE
:1027100051601046F0E710B40A4C2468A3420BD075
:102720005B681944416013681B680360904200D0E5
:1027300010605DF8044B70470460F7E7704700BF16
:10274000C8030020C403002038B5044600F0CAFDC9
:10275000384B1B68B3B1384B1B681C424ED1002C60
:102760004ED004F1080214F0070F02D022F0070245
:102770000832002A55D0314B1B68934253D330495D
:102780000C6804E0FFF77CFFE5E721461C46636820
:10279000934202D22368002BF7D1264B1B68A34239
:1027A00043D00D68083523680B6063689B1A102BB3
:1027B00012D9A01810F0070F0AD04FF0500372B6CC
:1027C00083F31188BFF36F8FBFF34F8F62B6FEE7BD
:1027D00043606260FFF786FF626818490B689B1AC6
:1027E0000B60184909688B4201D216490B60124BE5
:1027F0001B68134363600023236002E0002500E0B0
:10280000002500F01BFE15F0070F10D04FF050030D
:1028100072B683F31188BFF36F8FBFF34F8F62B629
:10282000FEE70025EDE70025EBE70025E9E7284670
:1028300038BD00BFC4030020B8030020C00300203F
:10284000C8030020BC030020002834D038B504465B
:10285000A0F1080550F8043C174A126813420AD147
:102860004FF0500372B683F31188BFF36F8FBFF33D
:102870004F8F62B6FEE750F8081C51B14FF050037D
:1028800072B683F31188BFF36F8FBFF34F8F62B6B9
:10289000FEE723EA020340F8043C00F023FD54F86D
:1028A000041C064A13680B4413602846FFF71AFFFE
:1028B00000F0C4FD38BD7047B8030020C0030020FD
:1028C0000346406A18B11B6B1868C0F107007047D7
:1028D00010B50446FFF7CEFDA26BE36B9A4204D01D
:1028E0000024FFF7EDFD204610BD0124F9E710B5E7
:1028F0000446FFF7BFFDA36B23B90124FFF7E0FDFA
:10290000204610BD0024F9E770B504461546866BD5
:10291000026C5AB903681BB100200136A66370BD72
:10292000806800F0ABFF0023A360F6E76DB9406854
:1029300001F0EAF86368226C13446360A268934272
:1029400019D3236863602846E7E7C06801F0DCF824
:10295000E368226C51429B1AE3602268934202D2E0
:10296000A3680B44E360022D01D00020D5E726B117
:10297000013E0020D1E72846CFE70020CDE738B55B
:102980000546FFF777FD95F8454064B201E0013C4C
:1029900064B2002C0ADD6B6A43B105F1240000F03B
:1029A0005BFE0028F3D000F0F1FEF0E7FF2385F88E
:1029B0004530FFF785FDFFF75DFD95F8444064B2B3
:1029C00001E0013C64B2002C0ADD2B6943B105F142
:1029D000100000F041FE0028F3D000F0D7FEF0E731
:1029E000FF2385F84430FFF76BFD38BD38B5E0B103
:1029F0000D460446FFF73EFD2368E26B216C01FBA8
:102A00000230A0600020A0636360013A02FB013342
:102A1000E360FF2384F8443084F845300DBB23691C
:102A200073B9FFF74DFD012038BD4FF0500372B66A
:102A300083F31188BFF36F8FBFF34F8F62B6FEE74A
:102A400004F1100000F008FE0028EAD04FF0E02367
:102A50004FF08052C3F8042DBFF34F8FBFF36F8F39
:102A6000DFE704F11000FFF756FC04F12400FFF744
:102A700052FCD6E710B5034602980C4631B9006007
:102A8000C36304640121FFF7B1FF10BD0260F7E7E3
:102A900050B94FF0500372B683F31188BFF36F8FB4
:102AA000BFF34F8F62B6FEE7F0B583B00C46154614
:102AB0000746A1B101FB00F04830FFF745FE06468E
:102AC00050B1002380F8463000902B4600F14802B8
:102AD00021463846FFF7CEFF304603B0F0BD08462A
:102AE000EAE7F0B585B0019298B10F461D4604465D
:102AF000D1B1022D26D1E36B012B23D04FF050032F
:102B000072B683F31188BFF36F8FBFF34F8F62B636
:102B1000FEE74FF0500372B683F31188BFF36F8F57
:102B2000BFF34F8F62B6FEE7036C002BE1D04FF08E
:102B3000500372B683F31188BFF36F8FBFF34F8FCB
:102B400062B6FEE700F02EFE064668B9019B002B38
:102B50004AD04FF0500372B683F31188BFF36F8FE2
:102B6000BFF34F8F62B6FEE700263DE02A463946A6
:102B70002046FFF7C9FE636A7BB948B14FF0E023F6
:102B80004FF08052C3F8042DBFF34F8FBFF36F8F08
:102B9000FFF796FC012005B0F0BD04F1240000F021
:102BA0005BFD0028F4D04FF0E0234FF08052C3F8D3
:102BB000042DBFF34F8FBFF36F8FE9E7FFF780FC62
:102BC0000020E8E702A800F08FFD012619E00023AD
:102BD00084F8443021E0002384F8453023E0204687
:102BE000FFF7CDFE00F02AFCFFF744FCA26BE36B7D
:102BF0009A42BBD3022DB9D0019B002BDED0002E10
:102C0000E0D0FFF75DFC00F06DFBFFF733FC94F8BC
:102C1000442052B2B2F1FF3FD9D094F8452052B2CD
:102C2000B2F1FF3FD7D0FFF74BFC01A902A800F09B
:102C300067FDD8B92046FFF74BFE0028CFD0019999
:102C400004F1100000F0EEFC2046FFF798FE00F0C3
:102C5000F5FB0028C8D14FF0E0234FF08052C3F8B5
:102C6000042DBFF34F8FBFF36F8FBDE72046FFF7F3
:102C700086FE00F0E3FB00208DE770B584B0019183
:102C800068B10446036CABB14FF0500372B683F3E6
:102C90001188BFF36F8FBFF34F8F62B6FEE74FF01F
:102CA000500372B683F31188BFF36F8FBFF34F8F5A
:102CB00062B6FEE700F076FD054660B9019B6BB198
:102CC0004FF0500372B683F31188BFF36F8FBFF3D9
:102CD0004F8F62B6FEE70026354657E0064655E0C0
:102CE000013BA36323683BB123694BB9FFF7E8FBC2
:102CF0000126304604B070BD00F080FEA060F3E70E
:102D000004F1100000F0A8FC0028EFD04FF0E02301
:102D10004FF08052C3F8042DBFF34F8FBFF36F8F76
:102D2000E4E756B14FF0500372B683F31188BFF356
:102D30006F8FBFF34F8F62B6FEE7FFF7C1FBD8E797
:102D400002A800F0D1FC01252AE0002384F84430D9
:102D500032E0002384F8453034E0FFF78BFBA068B5
:102D600000F030FD0646FFF7ABFB3BE02046FFF7E7
:102D700006FE00F063FB09E02046FFF700FE00F0CE
:102D80005DFB2046FFF7B3FD002842D1FFF772FB41
:102D9000A36B002BA4D1019B002BC2D0002DCFD060
:102DA000FFF78EFB00F09EFAFFF764FB94F84430C7
:102DB0005BB2B3F1FF3FC8D094F845305BB2B3F1DA
:102DC000FF3FC6D0FFF77CFB01A902A800F098FCEA
:102DD0000028D1D12046FFF78AFD0028C6D02368FD
:102DE000002BBAD0019904F1240000F01BFC20460E
:102DF000FFF7C5FD00F022FB0028C7D14FF0E0230C
:102E00004FF08052C3F8042DBFF34F8FBFF36F8F85
:102E1000BCE70EB900266CE7FFF72CFB2046FFF756
:102E20004FFD0146A06800F085FDFFF749FBF1E783
:102E300040B110B50446FFF71DFBA46BFFF740FB44
:102E4000204610BD4FF0500372B683F31188BFF3D4
:102E50006F8FBFF34F8F62B6FEE70000084B1B6811
:102E60001B6823B9074B4FF0FF321A607047044BC1
:102E70001B68DB68DB685A68024B1A60704700BF4A
:102E800040400020D83F00202DE9F04707469846F3
:102E9000089DDDF824900A9C266B6FF04043134494
:102EA00006EB830626F00706C1B308464FF0000C78
:102EB000BCF10F0F09D810F80C2004EB0C0383F8B9
:102EC000342012B10CF1010CF2E7002384F84330F6
:102ED000062D00D90625E56265644FF0000AC4F8A6
:102EE00048A0201DFFF722FA04F11800FFF71EFA90
:102EF0002461C5F10705A5616462C4F84CA084F89B
:102F000050A0424639463046FFF78CFA2060B9F1AE
:102F1000000F01D0C9F80040BDE8F087002384F815
:102F20003430D5E738B5002407E004EB8402930081
:102F30000E481844FFF7EFF90134062CF5D90C4D73
:102F40002846FFF7E8F90B4C2046FFF7E4F90A485A
:102F5000FFF7E1F90948FFF7DEF90948FFF7DBF968
:102F6000084B1D60084B1C6038BD00BF6C40002042
:102F700058400020444000202840002014400020F9
:102F8000FC3F0020404000203C40002010B504469B
:102F9000FFF770FA214A136801331360204B1B6856
:102FA0005BB1204B1B686BB91D4B1B68DA6AE36A87
:102FB0009A4207D81A4B1C6004E0194B1C60136836
:102FC000012B28D0184A136801331360E06A0123EB
:102FD0008340164A11680B43136000EB8000211DEB
:102FE000134B03EB8000FFF7A4F9FFF769FA0D4BD1
:102FF0001B687BB10A4B1B68DA6AE36A9A4209D202
:103000004FF0E0234FF08052C3F8042DBFF34F8FF1
:10301000BFF36F8F10BDFFF785FFD3E7F83F0020A8
:10302000F8400020EC3F0020DC3F0020F03F002073
:103030006C40002010B5044690F8513073B1012B5C
:1030400013D0022B10D04FF0500372B683F31188C7
:10305000BFF36F8FBFF34F8F62B6FEE7006BFFF7D2
:10306000F3FB2046FFF7F0FB10BDFFF7EDFBFBE79E
:103070000F4B1B68D3B110B5FFF7FCF90D4BDB68A4
:10308000DC68201DFFF779F90B4A1368013B1360D8
:10309000074A1368013B1360FFF712FA2046FFF757
:1030A000C9FF034B1B68002BE6D110BD704700BF62
:1030B0001040002014400020F83F002008B5FFF722
:1030C000D7FF074B1B68012BF9D94FF0E0234FF0D6
:1030D0008052C3F8042DBFF34F8FBFF36F8FEEE71D
:1030E0006C40002070B504460D461F4B1E681F4BF8
:1030F00018680430FFF741F948B91C4B1B68DB6ABC
:1031000001229A401A490B6823EA02030B60B4F1CA
:10311000FF3F14BF00230123002D08BF00236BB91C
:103120003444124B1B685C60A6420ED9114B1868E0
:103130000E4B19680431FFF707F970BD0B4B196886
:1031400004310D48FFF7F5F8F7E70C4B1868074B0B
:1031500019680431FFF7F8F8094B1B68A342ECD952
:10316000074B1C60E9E700BFF43F0020F840002057
:10317000F03F00203C400020FC3F00204040002069
:10318000D83F002030B587B00B9C8CB10C9DD5B1D9
:1031900054250495049D542D20D04FF0500372B651
:1031A00083F31188BFF36F8FBFF34F8F62B6FEE7D3
:1031B0004FF0500372B683F31188BFF36F8FBFF3E4
:1031C0004F8F62B6FEE74FF0500372B683F311885B
:1031D000BFF36F8FBFF34F8F62B6FEE7049D0C9D68
:1031E0002C63022485F8514000240394029505AC19
:1031F00001940A9C0094FFF747FE0C98FFF7C6FE67
:10320000059807B030BD2DE9F04385B007468846E4
:1032100014461E469000FFF797FA08B381465420E3
:10322000FFF792FA0546A8B1C0F83090002380F865
:103230005130039302900D9B01930C9B00933346F6
:10324000224641463846FFF71FFE2846FFF79EFEFE
:10325000012007E04846FFF7F7FA4FF0FF3001E0A2
:103260004FF0FF3005B0BDE8F083000010B588B026
:1032700000240594069407AA06A905A8FDF740F8BE
:10328000059B0293069B019300942346079A0F49DE
:103290000F48FFF777FF0F4B1860A0B14FF05003B6
:1032A00072B683F31188BFF36F8FBFF34F8F62B68F
:1032B000094B4FF0FF321A60084B01221A60084B8D
:1032C0001C60FFF773F908B010BD00BFE8470008A5
:1032D000BD300008D43F0020D83F0020EC3F002044
:1032E000F43F0020024A136801331360704700BFA7
:1032F000D03F0020034610B103F134007047074B64
:103300001B68002BF8D14FF0500372B683F311887D
:10331000BFF36F8FBFF34F8F62B6FEE7F840002018
:10332000F8B53B4B1B68002B66D13A4B1D68013545
:103330001D60D5B9384B1B681B6853B14FF0500363
:1033400072B683F31188BFF36F8FBFF34F8F62B6EE
:10335000FEE7314A1168314B186810601960304A35
:10336000136801331360FFF779FD2E4B1B68AB42E6
:1033700038D900272C4B1B68DB6A03EB83039A00C8
:103380002A4B9B58012B3CD901273AE00127224BBD
:103390001B681B6843B3204B1B68DB68DC686368F1
:1033A0009D4226D3261D3046FEF7E7FFA36A1BB1D8
:1033B00004F11800FEF7E1FFE36A01229A401C497C
:1033C000086802430A6003EB83039A0031461748FA
:1033D0001044FEF7AEFFE26A134B1B68DB6A9A42A9
:1033E000D4D2D4E70027D2E70E4B4FF0FF321A6059
:1033F000C0E70C4A1360BDE70E4A1368013313603F
:1034000000270D4B1B6803B101273846F8BD00BFEC
:10341000D03F0020F43F0020404000203C400020EE
:10342000E03F0020D83F0020F84000206C40002002
:10343000F03F0020E83F0020E43F002038B5364B45
:103440001B6853B94FF0500372B683F31188BFF372
:103450006F8FBFF34F8F62B6FEE7FFF70BF82E4B6F
:103460001A68013A1A601B68002B4FD12B4B1B685E
:103470000BB900244BE00024294B1B681BB3284BDD
:10348000DB68DC6804F11800FEF777FF251D28468D
:10349000FEF773FFE06A01238340224A11680B4361
:1034A000136000EB800029461F4B03EB8000FEF702
:1034B00040FFE26A1D4B1B68DB6A9A42DCD31C4B5F
:1034C00001221A60D8E70CB1FFF7C8FC194B1C6841
:1034D00084B9174B1C68D4B14FF0E0234FF08052F1
:1034E000C3F8042DBFF34F8FBFF36F8F01240EE09D
:1034F000013C07D0FFF714FF0028F9D00C4B012244
:103500001A60F5E70B4B00221A60E2E70024FEF791
:10351000D7FF204638BD00BFD03F0020F83F002035
:1035200028400020F03F00206C400020F8400020A0
:10353000E43F0020E83F002010B5B8B10446114B2D
:103540001B6853B14FF0500372B683F31188BFF379
:103550006F8FBFF34F8F62B6FEE7FFF7C3FE002108
:103560002046FFF7BFFDFFF769FF48B94FF0E023A2
:103570004FF08052C3F8042DBFF34F8FBFF36F8F0E
:1035800010BD00BFD03F0020214B1B681BB1214B59
:1035900001221A6070471F4B00221A601E4B1B68E5
:1035A000B3FA83F3DBB2C3F11F0303EB83018A0099
:1035B0001A498A5852B94FF0500372B683F31188F2
:1035C000BFF36F8FBFF34F8F62B6FEE7134803EB75
:1035D00083018A00024451684968516003EB830CFF
:1035E0004FEA8C0208320244914209D003EB830374
:1035F0009A000A4B13445B68DA68094B1A607047FB
:10360000486862469100054A0A445060EEE700BFF0
:10361000D03F0020E43F0020F03F00206C4000201D
:10362000F840002058B110B50C460A4A116818310C
:10363000FEF78AFE01212046FFF754FD10BD4FF032
:10364000500372B683F31188BFF36F8FBFF34F8FB0
:1036500062B6FEE7F840002038B5C368DC6824B3E2
:1036600004F118052846FEF788FE194B1B683BBB82
:10367000251D2846FEF781FEE06A01238340154A96
:1036800011680B43136000EB80002946124B03EBDB
:103690008000FEF74EFEE26A104B1B68DB6A9A421E
:1036A00013D901200E4B186038BD4FF0500372B68D
:1036B00083F31188BFF36F8FBFF34F8F62B6FEE7BE
:1036C00029460848FEF735FEE5E70020ECE700BF95
:1036D000D03F0020F03F00206C400020F840002048
:1036E000E43F002028400020034B1B680360034B8D
:1036F0001B684360704700BFE03F0020F43F00209C
:10370000F8B5C8B10C46054609B3FEF7B3FE1D4B2C
:1037100019686B68C81A2268B2F1FF3F2AD01A4EA6
:1037200036682F68B74201D08B4228D9824219D817
:103730000023236001241EE04FF0500372B683F390
:103740001188BFF36F8FBFF34F8F62B6FEE74FF064
:10375000500372B683F31188BFF36F8FBFF34F8F9F
:1037600062B6FEE75B1A134423602846FFF7BCFFEE
:10377000002400E00024FEF7A3FE2046F8BD01244B
:10378000F9E700BFF43F0020E03F0020014B012299
:103790001A607047E43F0020014B1868704700BF73
:1037A000F8400020054B1B6833B1054B1B680BB17B
:1037B000002070470220704701207047EC3F002036
:1037C000D03F002000284FD038B50446C36A284AAD
:1037D0001268D26A93423FD28269002A05DB244AEA
:1037E0001268D26AC2F107028261616903EB830346
:1037F000204A02EB8303994205D01D4B1B68DB6A0C
:10380000E362012038BD251D2846FEF7B6FD70B9DC
:10381000E26A02EB82039B001649CB583BB90123B5
:1038200003FA02F214490B6823EA02030B60104BFF
:103830001B68D86AE062012404FA00F30E4A11689A
:103840000B43136000EB800029460A4B03EB80001A
:10385000FEF76FFD2046D5E7426C054B1B68DB6A1F
:103860009A4203D30020CDE7002070470120C9E72A
:10387000F84000206C400020F03F002000284FD08E
:1038800038B50446284B1B6883420AD04FF05003DA
:1038900072B683F31188BFF36F8FBFF34F8F62B699
:1038A000FEE7836C53B94FF0500372B683F311886F
:1038B000BFF36F8FBFF34F8F62B6FEE7013B8364A8
:1038C000C16A426C91422DD00BB1002038BD051D5C
:1038D0002846FEF752FD68B9E36A03EB83029200C3
:1038E00012498A5832B901229A4011490B6823EAD9
:1038F00002030B60606CE062C0F10703A361012466
:1039000004FA00F30A4A11680B43136000EB8000CD
:103910002946064B03EB8000FEF70BFD2046D5E75A
:10392000002070470020D1E7F84000206C400020C4
:10393000F03F0020002859D038B50446836C53B9B5
:103940004FF0500372B683F31188BFF36F8FBFF34C
:103950004F8F62B6FEE7426C8A4200D20A46E16AA5
:10396000914201D0012B00D038BD214B1B68A342EE
:1039700031D0E262A369002B02DBC2F10702A2612F
:10398000626901EB81011B4B03EB81039A42EBD18E
:10399000251D2846FEF7F1FC68B9E36A03EB8302B4
:1039A000920014498A5832B901229A4012490B6890
:1039B00023EA02030B60E06A012383400E4A116888
:1039C0000B43136000EB800029460A4B03EB800099
:1039D000FEF7AFFCC8E74FF0500372B683F31188CF
:1039E000BFF36F8FBFF34F8F62B6FEE7704700BF24
:1039F000F84000206C400020F03F0020054B1B6881
:103A000023B1044B1A68936C01339364014B18681B
:103A1000704700BFF8400020DFF834D00D480E4951
:103A20000E4A002302E0D458C4500433C4188C4218
:103A3000F9D30B4A0B4C002301E013600432A2427D
:103A4000FBD3FCF793FE00F039F8FCF7D7FD704785
:103A50000000052000000020600000203048000821
:103A60006000002048420020FEE700000EB400B5D0
:103A70009CB01DAB029006906FF000410948079181
:103A80000491094953F8042B05910068019302A998
:103A900000F094F9029B00221A701CB05DF804EB50
:103AA00003B07047100000200802FFFF02440346E5
:103AB000934200D1704703F8011BF9E770B50D4D33
:103AC0000D4C641BA4100026A64209D10B4D0C4CD2
:103AD00000F0D6FD641BA4100026A64205D170BDDF
:103AE00055F8043B98470136EEE755F8043B9847F4
:103AF0000136F2E72848000828480008284800084E
:103B00002C480008704770470A44914200F1FF3387
:103B100000D1704710B511F8014B03F8014F9142E5
:103B2000F9D110BD38B50546002941D051F8043C03
:103B30000C1F002BB8BFE41800F0D8F81D4A13681A
:103B400033B9636014602846BDE8384000F0D4B84B
:103B5000A34208D9206821188B4201BF19685B680D
:103B600009182160EDE71A465B680BB1A342FAD948
:103B700011685018A0420BD12068014450188342AC
:103B80001160E0D118685B68536008441060DAE7A0
:103B900002D90C232B60D6E7206821188B4204BF82
:103BA00019685B68636004BF091821605460CAE744
:103BB00038BD00BF4042002070B50F4E0C46316842
:103BC000054611B900F0AAFB30602146284600F0F6
:103BD000A5FB431C03D14FF0FF34204670BDC41C2D
:103BE00024F00304A042F8D0211A284600F096FBE6
:103BF0000130F2D1EFE700BF3C4200202DE9F04157
:103C0000CD1C25F0030508350C2D38BF0C25002DE3
:103C1000064601DBA94204D90C2333600020BDE82D
:103C2000F081314F00F062F83B681C4644BB2946E6
:103C30003046FFF7C1FF431C044650D13C68214683
:103C4000002941D1002C44D02368304604EB0308FE
:103C500000F064FB80453CD121686D1A294630464E
:103C6000FFF7AAFF013034D023682B4423603B6860
:103C7000002B36D05A68A24229D100225A600EE0A9
:103C80002268521B1DD40B2A16D96119A342256044
:103C900018BF5960636808BF396062514B60304695
:103CA00000F02AF804F10B00231D20F00700C21ACF
:103CB000B5D01B1AA350B2E7A3426268DED13A60C6
:103CC000EDE723466468B1E70C464968B8E7134658
:103CD000CEE70C233360304600F00EF89EE7056017
:103CE000DDE75B60FFDE00BF404200200148FFF7D8
:103CF00009BF00BF384200200148FFF704BF00BFE2
:103D0000384200202DE9F0478E681F46BE420B68FE
:103D100082460C4690462DD8B1F90C2012F4906FD3
:103D200026D06569096905EB4505A3EB010905EB9B
:103D3000D5757B1C4B446D109D4238BF1D46530505
:103D400027D52946FFF75AFF064660B321694A4640
:103D5000FFF7DAFEA38923F4906343F08003A38185
:103D6000266165614E44A5EB09052660A5603E46C7
:103D7000BE4200D93E4620683246414600F0B4FAC1
:103D8000A3689B1BA3602368334423600020BDE825
:103D9000F0872A4600F0D2FA06460028E0D12169D1
:103DA0005046FFF7BFFE0C23CAF80030A38943F04A
:103DB0004003A3814FF0FF30E9E700002DE9F04F09
:103DC00098468B891B069DB007460D46144610D5B4
:103DD0000B6973B94021FFF711FF2860286130B9E2
:103DE0000C233B604FF0FF301DB0BDE8F08F402347
:103DF0006B610023099320238DF82930CDF80C80C6
:103E00003023DFF89C818DF82A304FF001092346DA
:103E10009A4613F8012B0AB1252AF9D1BAEB040B03
:103E20000BD05B46224629463846FFF76BFF013030
:103E300000F0A780099A5A4409929AF80030002BA2
:103E400000F09F8000234FF0FF32CDE905230AF1F7
:103E5000010A049307938DF853301A9354460522B0
:103E600014F8011B4E48FCF7BBF9049AD8B9D006E8
:103E700044BF20238DF85330110744BF2B238DF806
:103E800053309AF800302A2B15D0079A5446002058
:103E90004FF00A0C214611F8013B303B092B4BD95E
:103EA000B0B1079214E0A0EB080309FA03F313433F
:103EB0000493A246D2E7039B191D1B680391002BB4
:103EC000BBBF5B4242F0020207930793B8BF049264
:103ED00023782E2B0AD163782A2B32D1039B1A1D0B
:103EE0001B68039243EAE37302340593DFF8C0A032
:103EF000217803225046FCF773F938B1049BA0EBFC
:103F00000A004022824013430134049314F8011B39
:103F100024488DF828100622FCF762F9002836D0D4
:103F2000214B1BBB039B073323F007030833039389
:103F3000099B334409936AE70CFB02320C460120CB
:103F4000A8E700230134059319464FF00A0C2046D8
:103F500010F8012B303A092A03D9002BC6D005915D
:103F6000C4E70CFB012104460123F0E703AB0093F7
:103F70002A460E4B04A93846AFF30080421C064681
:103F8000D6D1AB895B063FF52DAF09982CE703AB83
:103F900000932A46054B04A9384600F079F8EDE76E
:103FA000ED470008F747000800000000053D000845
:103FB000F34700082DE9F047164698468A680B69D2
:103FC000DDF820909342B8BF1346336091F8432048
:103FD00007460C460AB1013333602368990642BF95
:103FE000336802333360256815F0060506D104F105
:103FF000190AE36832689B1AAB4226DC94F8433016
:104000002268003B18BF012392062BD404F143021F
:1040100041463846C84701301ED02368226903F064
:104020000603042B02BFE5683368ED1AA3680CBFD2
:1040300025EAE57500259342C4BF9B1AED180026BA
:104040001A34B5421AD1002008E0012352464146F5
:104050003846C847013003D14FF0FF30BDE8F08744
:104060000135C6E7E1185A1C302081F8430022448C
:1040700094F8451082F843100233C7E70123224623
:1040800041463846C8470130E6D00136D9E700003E
:104090002DE9FF470F7E0C9E782F914680460C46F7
:1040A0009A4601F1430207D8622F0AD8002F00F088
:1040B000DD80582F00F0C38004F1420684F842707E
:1040C0003AE0A7F16303152BF6D801A151F823F0CC
:1040D000294100083D410008B9400008B9400008E6
:1040E000B9400008B94000083D410008B940000847
:1040F000B9400008B9400008B94000085342000820
:10410000CB4100080B420008B9400008B940000844
:1041100075420008B9400008CB410008B9400008CA
:10412000B94000081342000833681A1D1B6832604A
:1041300004F1420684F842300123A8E03168236884
:10414000081D30601E0601D50D6803E05D06FBD535
:10415000B1F900506168002D78DA2D20002984F82B
:104160004300A1602DDA5E486D420A231646B5FB76
:10417000F3F103FB1157C75D06F8017D2F46BB42E3
:104180000D46F4D9082B0BD12368DF0708D5236926
:1041900061689942DEBF302306F8013C06F1FF3624
:1041A000921B2261CDF800A04B4603AA214640464F
:1041B000FFF700FF01306FD14FF0FF3004B0BDE8D2
:1041C000F08723F004032360CDE7216833680806F5
:1041D00053F8045B02D4490648BFADB26F2F404884
:1041E000336014BF0A230823002184F84310666853
:1041F000A660002EBADB216821F004012160002DA9
:10420000B4D1002EB2D11646BCE7236843F0200398
:1042100023603448782784F84570236831681F0686
:1042200051F8045B02D45F0648BFADB23160D907D4
:1042300044BF43F0200323601DB11023D4E7284876
:10424000E9E7236823F020032360F6E724480A23E4
:10425000CDE7336825686169181D30602E061B683C
:1042600001D5196002E06806FBD51980002323619F
:10427000164697E733681A1D32601E68626800218F
:104280003046FBF7ADFF08B1801B606063682361B7
:10429000002384F8433085E7236932464946404687
:1042A000D047013088D023689B0714D4E068039B73
:1042B0009842B8BF184681E7012332464946404636
:1042C000D04701303FF478AF0135E36803995B1ABA
:1042D000AB42F1DCEAE7002504F11906F5E700BF7F
:1042E000FE4700080F480008884210B501EB0204A1
:1042F00002D98442234607D8431EA14208D011F8B0
:10430000012B03F8012FF8E7024401468A4200D14D
:1043100010BD13F8014D02F8014DF7E738B5064D11
:104320000023044608462B6000F03EF8431C02D1EF
:104330002B6803B1236038BD344200202DE9F041E1
:10434000804615460C4621B9BDE8F0411146FFF7FD
:1043500055BC2AB9FFF7E6FB00242046BDE8F081F2
:1043600000F01AF88542064602D8B5EB500FF4D893
:1043700029464046FFF742FC07460028ECD0B542EC
:104380002A46214628BF3246FFF7BEFB214640465B
:10439000FFF7C8FB3C46E0E751F8043C181F002B30
:1043A000BCBF0B58C0187047044A05491368002B5E
:1043B00008BF0B461844106018467047444200205E
:1043C000484200202DE9F047089D0C46002B4ED1B5
:1043D00094468C458646B2FA82F262D94AB1C2F15D
:1043E0002003914020FA03F30CFA02FC194300FA6F
:1043F00002FE4FEA1C471FFA8CF6B1FBF7F44FEAB6
:104400001E4307FB141143EA014304FB06F19942E2
:104410000AD91CEB030304F1FF3080F013819942A9
:1044200040F21081023C6344591A1FFA8EF3B1FB2B
:10443000F7F007FB101143EA014300FB06F69E422A
:104440000AD91CEB030300F1FF3180F0FD809E428E
:1044500040F2FA80634402389B1B40EA044000218A
:104460001DB1D3400022C5E90032BDE8F0878B4280
:1044700005D90DB1C5E9000100210846F5E7B3FAF9
:1044800083F1002946D1A34202D39042C0F0F180CB
:10449000861A64EB03030120002DE6D0C5E9006312
:1044A000E3E7002A40F09180A1EB0C044FEA1C489E
:1044B0001FFA8CF70121B4FBF8F64FEA1E4308FB04
:1044C000164443EA044307FB06F0984208D91CEB64
:1044D000030306F1FF3402D2984200F2CE80264652
:1044E0001C1A1FFA8EF3B4FBF8F008FB104443EAE1
:1044F000044300FB07F79F4208D91CEB030300F1BC
:10450000FF3402D29F4200F2B1802046DB1B40EA1A
:104510000640A5E7C1F120068B4022FA06F71F43AB
:1045200020FA06FC04FA01F343EA0C03F44000FA13
:1045300001F8380C4FEA1349B4FBF0FE1FFA87FC70
:1045400000FB1E4449EA04440EFB0CF9A14502FAA3
:1045500001F20AD93C190EF1FF3A80F08580A1459D
:1045600040F28280AEF1020E3C44A4EB09041FFA33
:1045700083F9B4FBF0F300FB134449EA044403FB62
:104580000CFCA44507D93C1903F1FF3068D2A445BF
:1045900066D9023B3C4443EA0E40A0FB0293A4EBE5
:1045A0000C049C42CE469C4652D34FD055B1B8EB3A
:1045B0000E0364EB0C0404FA06F6CB40CC401E4319
:1045C000C5E900640021BDE8F087C2F1200320FAAC
:1045D00003F10CFA02FC24FA03F394400C434FEA73
:1045E0001C4800FA02FE1FFA8CF7B3FBF8F008FB38
:1045F0001031230C43EA014300FB07F1994208D92B
:104600001CEB030300F1FF362CD299422AD9023861
:1046100063445B1AA4B2B3FBF8F108FB113344EA1C
:10462000034401FB07F3A34208D91CEB040401F186
:10463000FF3613D2A34211D902396444E41A41EA85
:10464000004138E70446EFE6084605E7C845ADD225
:10465000B9EB020E63EB070C0138A7E73146EDE733
:10466000034698E73046D4E7D6467EE763440238EF
:104670004CE70646234608460EE7023E63442FE712
:10468000F8B500BFF8BC08BC9E467047F8B500BF3F
:08469000F8BC08BC9E4670470F
:10469800B4460008F5020008000000000000000011
:1046A80080000000000000000000000064656661F2
:1046B800756C745461736B004A6520737569732057
:1046C8006C61207461636865202573206176616E72
:1046D8007420646520646F6E6E6572206C6520734B
:1046E800656D6170686F72650A0000004A65207325
:1046F800756973206C612074616368652025732077
:1047080061707265732061766F697220646F6E6E76
:1047180065722073656D6170686F726520746F755E
:1047280073206C6573202564206D730A00000000F7
:10473800457272657572203A2053656D6170686FB5
:104748007265206E6F6E20637265650A0000000056
:104758004A652073756973206C61207461636865AC
:10476800202573206176616E7420646520707265FF
:104778006E647265206C652073656D6170686F7218
:10478800650A00004A652073756973206C6120749E
:104798006163686520257320617072657320617696
:1047A8006F69722070726973206C652073656D6122
:1047B80070686F7265200A0047697665000000001E
:1047C80054616B6500000000000000000102030452
:1047D80000000000000000000102030406070809A9
:1047E80049444C4500232D302B2000686C4C006553
:1047F8006667454647003031323334353637383905
:104808004142434445460030313233343536373837
:0848180039616263646566000A
:08482000A4FBFF7F0100000072
:04482800D9020008A9
:04482C00B5020008C9
:104830000024F4000100000010000000AAAAAAAAA7
:104840001400002000000000FC4000206441002013
:10485000CC4100200000000000000000000000002B
:104860000000000000000000000000000000000048
:104870000000000000000000000000000000000038
:104880000000000000000000000000000000000028
:0400000508003A199C
:00000001FF
