:020000040800F2
:1000000000000520453B0008C90B0008CB0B000889
:10001000CD0B0008CF0B0008D10B0008000000003A
:10002000000000000000000000000000B1250008F2
:10003000D30B00080000000051260008D50B000873
:10004000953B0008953B0008953B0008953B000850
:10005000953B0008953B0008953B0008953B000840
:10006000953B0008953B0008953B0008953B000830
:10007000953B0008953B0008953B0008953B000820
:10008000953B0008953B0008953B0008953B000810
:10009000953B0008953B0008953B0008953B000800
:1000A000953B0008953B0008953B0008953B0008F0
:1000B000953B0008953B0008953B0008953B0008E0
:1000C000953B0008953B0008953B0008953B0008D0
:1000D000953B0008953B0008953B0008953B0008C0
:1000E000953B0008953B0008953B0008953B0008B0
:1000F000953B0008953B0008953B0008953B0008A0
:10010000953B0008953B0008953B0008953B00088F
:10011000953B0008953B0008953B0008953B00087F
:10012000953B0008953B0008953B0008953B00086F
:10013000953B0008953B0008953B0008953B00085F
:10014000953B0008953B0008953B0008953B00084F
:10015000953B0008953B0008953B0008953B00083F
:10016000953B0008953B0008953B0008953B00082F
:10017000953B0008953B0008953B000800000000F7
:10018000953B0008953B0008953B0008953B00080F
:10019000953B0008953B0008953B0008953B0008FF
:1001A000953B0008953B0008953B0008953B0008EF
:1001B000953B0008953B0008953B0008953B0008DF
:0801C000953B0008953B000887
:1001D00001F0FF01102A2BDB10F0070F08D010F8F8
:1001E000013B013A8B422DD010F0070F42B3F6D1FC
:1001F000F0B441EA012141EA014122F007047FF015
:1002000000070023F0E80256083C85EA010586EA6B
:10021000010685FA47F5A3FA87F586FA47F6A5FAA7
:1002200087F68EB9EED1F0BC01F0FF0102F00702B3
:1002300032B110F8013B013A83EA010313B1F8D15E
:100240000020704701387047002D06BF354603383F
:10025000073815F0010F07D1013015F4807F02BF78
:10026000013015F4C03F0130F0BC0138704700BFC9
:1002700053B94AB9002908BF00281CBF4FF0FF310D
:100280004FF0FF3000F00CB8ADF1080C6DE904CE72
:1002900004F0C4FBDDF804E0DDE9022304B070479C
:1002A000704700BF10B5054C237833B9044B13B128
:1002B0000448AFF300800123237010BD6C000020C0
:1002C00000000000D84C000808B5034B1BB10349DF
:1002D0000348AFF3008008BD00000000700000205C
:1002E000D84C000808B5012002F0BAF8FBE700007E
:1002F000034B0360034B0B6080231360704700BF08
:10030000880200208800002010B588B00DF1040C90
:10031000074C0FCCACE80F0094E807008CE807000E
:10032000002101A802F069F8024B186008B010BD66
:10033000F04C0008DC0200202DE9F04F91B00024C1
:100340000B940C940D940E940F94AB4B1A6B42F0DB
:1003500010021A631A6B02F010020092009A1A6BD4
:1003600042F040021A631A6B02F040020192019AB5
:100370001A6B42F002021A631A6B02F00202029236
:10038000029A1A6B42F008021A631A6B02F0080212
:100390000392039A1A6B42F004021A631A6B02F07A
:1003A00004020492049A1A6B42F001021A631A6B57
:1003B00002F001020592059A1A6B42F400721A6368
:1003C0001A6B02F400720692069A1A6B42F480725B
:1003D0001A631A6B02F480720792079A1A6B42F43E
:1003E00080621A631A6B02F480620892089A1A6B90
:1003F00042F020021A631A6B02F020020992099A55
:100400001A6B42F080021A631B6B03F080030A939D
:100410000A9BDFF8088201222021404600F062FE9C
:10042000224641F20C01754800F05CFE224608218C
:10043000734800F057FE22464FF40051714800F017
:1004400051FE2246C821704800F04CFE10230B9349
:1004500002250C950D940E940E230F93DFF8C0A186
:100460000BA9504600F03CFD08230B930C940D940F
:100470000BA9504600F034FD04230B930C950D940A
:1004800003260E9609230F930BA9504600F028FD72
:100490004FF4D0430B930C950D940E960B230F93B2
:1004A0000BA9594800F01CFD4FF683730B930C9574
:1004B0000D940E964FF00C09CDF83C900BA95046C8
:1004C00000F00EFD4FF440730B9312230C930D9428
:1004D0000E9404230F930BA94C4800F001FD43F642
:1004E00023430B930C950D940E964FF00A0BCDF809
:1004F0003CB00BA9454800F0F3FC10230B930C957E
:100500000D940E940F950BA9404800F0E9FC802350
:100510000B930C950D940E9408230F930BA9404652
:1005200000F0DEFC4FF4F8530B930C950D940E96EF
:10053000CDF83C900BA9364800F0D2FC4FF40043B4
:100540000B930C950D940E9401270F970BA931482E
:1005500000F0C6FC60230B930C950D940E940D23B4
:100560000F930BA9504600F0BBFC40230B930C9556
:100570000D940E96CDF83CB00BA9244800F0B0FCC9
:1005800048F233130B930C950D940E96CDF83C90D6
:100590000BA91D4800F0A4FC4EF6FF730B930C95BD
:1005A0000D940E940E230F930BA91B4800F098FC9A
:1005B0004FF4805ACDF82CA00C940D940BA916483A
:1005C00000F08EFC40230B934FF490130C930D948A
:1005D0000BA9404600F084FC4CF203730B930C957E
:1005E0000D940E96CDF83C900BA9404600F078FC97
:1005F0004FF4E0530B9315E0003802400020024016
:1006000000280240001C0240001802400004024082
:10061000000802400000024000240240000C02409A
:10062000001002400C950D940E96CDF83CB00BA92D
:10063000A24800F055FCF0230B930C950D940E94FA
:10064000CDF83CB00BA99E4800F04AFCF7230B9371
:100650000C950D940E940E230F930BA9994800F05E
:100660003FFCCDF82CA00C950D940E9409230F930C
:100670000BA9954800F034FC4FF480630B930C9564
:100680000D940E94CDF83CB00BA98F4800F028FCD7
:1006900020230B930C970D940E940BA9404600F069
:1006A0001FFC08230B930C950D940E940D230F93B0
:1006B0000BA9404600F014FC41F20C030B930C977D
:1006C0000D940E940BA97E4800F00AFC4FF4005ADA
:1006D000CDF82CA00C940D940BA97C4800F000FCE4
:1006E0004FF63F030B930C950D940E96CDF83C906E
:1006F0000BA9774800F0F4FB4FF446430B930C959D
:100700000D940E940E230F930BA96D4800F0E8FB97
:1007100008230B930C970D940E940BA9694800F0D5
:10072000DFFB4FF400730B930C950D940E940D2387
:100730000F930BA9644800F0D3FB10230B930C9488
:100740000D940BA9404600F0CBFB04230B930C95B2
:100750000D940E96CDF83C900BA9404600F0C0FBDE
:1007600048F204030B930C940D940BA9594800F024
:10077000B7FB0B950C950D940E9405230F930BA9C5
:100780004F4800F0ADFBCDF82CA00C970D940E94C3
:100790000BA9504800F0A4FB4FF4BC430B930C95FD
:1007A0000D940E940D230F930BA94A4800F098FB6B
:1007B0000B970C950D940E940F950BA9404800F0E3
:1007C0008FFB4FF480730B930C950D940E940F9741
:1007D0000BA93A4800F084FBCDF82CA04FF49013FD
:1007E0000C930D940BA9364800F07AFBC0230B93B1
:1007F0000C950D940E9608230F930BA9334800F027
:100800006FFB10230B930C950D940E96CDF83CB016
:100810000BA9304800F064FB4FF0280ACDF82CA05B
:100820000C950D940E96CDF83C900BA9294800F03C
:1008300057FBC8230B930C970D940E940BA92248D9
:1008400000F04EFB4FF4F8630B930C960D940BA93C
:100850001F4800F045FB08230B930C950D940E9652
:10086000CDF83C900BA9194800F03AFB05230B93F7
:100870000C950D940E96CDF83CB00BA9134800F0E2
:100880002FFB32230B930C950D940E960B230F9395
:100890000BA90E4800F024FB04230B930C950D9438
:1008A0000E9609230F930BA90B4800F019FB4FF488
:1008B00060530B930C950D940E960FE000000240D0
:1008C00000200240002802400018024000080240B8
:1008D00000140240001C02400004024009230F9350
:1008E0000BA9404600F0FCFA04230B930C940D94E2
:1008F0000BA9294800F0F4FA86230B930C950D946C
:100900000E960B230F930BA9244800F0E9FA0B97DE
:100910000C960D940BA9214800F0E2FA50230B939A
:100920000C950D940E940D230F930BA91B4800F00A
:10093000D7FA4FF4C0730B9312230C930D940E96B9
:1009400004230F930BA9164800F0CAFACDF82CA087
:100950000C950D940E96CDF83CB00BA90F4800F005
:10096000BFFA40230B930C950D940E9409230F931B
:100970000BA90B4800F0B4FA4FF440430B930C95CD
:100980000D940E9405230F930BA9064800F0A8FAC6
:1009900011B0BDE8F08F00BF001802400000024017
:1009A000001C02400004024038B50546094C4FF0D7
:1009B000FF31206802F028FA2946074803F0AEF913
:1009C00000231A461946206802F03BF9284602F037
:1009D0004FFEEBE7E0020020184D000838B5054651
:1009E000094C4FF0FF31206802F00EFA2946074803
:1009F00003F094F900231A461946206802F021F901
:100A0000284602F035FEEBE7E00200204C4D0008DE
:100A100000B583B001904FF0FF33012201A90348D4
:100A200001F02BFC019803B05DF804FBE802002004
:100A300072B6FEE700B595B03022002108A803F099
:100A4000C2F9002303930493059306930793234B62
:100A50001A6C42F080521A641B6C03F080530193AD
:100A6000019B1F4B1A6842F440421A601B6803F452
:100A700040430293029B012308934FF48033099370
:100A800002230E934FF480020F92192210924FF41A
:100A9000D87211921293139308A800F067FBB0B9B3
:100AA00000F026FBA8B90F2303930223049300232D
:100AB00005934FF4A05306934FF4805307930721F7
:100AC00003A800F0C1FD30B915B05DF804FBFFF7D5
:100AD000AFFFFFF7ADFFFFF7ABFF00BF00380240ED
:100AE0000070004000B585B000F074F9FFF7A2FF78
:100AF000FFF722FC00F0D2F800230393029303AB2C
:100B00000193012300934FF480721A491A4802F0AE
:100B10002CFC01280AD04FF0500372B683F31188E1
:100B2000BFF36F8FBFF34F8F62B6FEE702AB019347
:100B3000022300934FF480721049114802F015FC13
:100B400001280AD04FF0500372B683F31188BFF327
:100B50006F8FBFF34F8F62B6FEE7012002F049F9B5
:100B6000084B186002F034FCFFF7CEFB01F040FCAC
:100B7000FEE700BF804D0008A9090008884D000865
:100B8000DD090008E002002000B583B00D4B1A6CAF
:100B900042F080521A641A6C02F080520092009A5D
:100BA0005A6C42F480425A645B6C03F480430193B4
:100BB000019B00220F216FF0010000F06DF903B0DE
:100BC0005DF804FB00380240FEE7FEE7FEE7FEE7C3
:100BD000FEE7704708B500F009F902F079FE012838
:100BE00000D108BD01F066FDFBE770B50C46164666
:100BF000002506E0AFF30080214601F8010B013526
:100C00000C46B542F6DB304670BD70B50C46164654
:100C1000002504E014F8010BFFF7FAFE0135B54298
:100C2000F8DB304670BD4FF0FF3070474FF4005393
:100C30004B60002070470120704700207047000083
:100C400010B503460C4A0D490D48006840B10C48E8
:100C500000680344521A934206D8094A136010BD33
:100C60000748084C0460F2E703F0FCF80C2303602B
:100C70004FF0FF30F3E700BF000005200004000044
:100C8000E402002010420020034AD2F8883043F4E6
:100C90007003C2F88830704700ED00E008B50B48DB
:100CA0000B4B03604FF4E133436000238360C36068
:100CB00003610C2242618361C3610362436201F0FC
:100CC00060FB00B908BDFFF7B3FEFBE7E8020020B8
:100CD0000010014070B5AAB004460021259126916C
:100CE000279128912991842204A803F06CF82268A6
:100CF000214B9A4201D02AB070BD4023049304A82E
:100D000000F07EFD002834D11C4B5A6C42F01002DA
:100D10005A645A6C02F010020192019A1A6B42F066
:100D200002021A631A6B02F002020292029A1A6B12
:100D300042F001021A631B6B03F001030393039B50
:100D4000802325930226269600242794289407259D
:100D5000299525A90A4800F0C3F84FF4007325939C
:100D6000269627942894299525A9064800F0B8F8D6
:100D7000C1E7FFF75DFEC7E7001001400038024001
:100D8000000402400000024010B504460E4B1A78E1
:100D90004FF47A73B3FBF2F30C4A1068B0FBF3F034
:100DA00000F08AF868B90F2C01D901200AE000226E
:100DB00021464FF0FF3000F06FF8054B1C6000201B
:100DC00000E0012010BD00BF040000200000002052
:100DD0000800002008B5032000F04CF80F20FFF7B2
:100DE000D3FFFFF7D1FE002008BD0000034A1168C1
:100DF000034B1B780B441360704700BF7003002047
:100E000004000020014B1868704700BF70030020E9
:100E1000002804DB0901C9B2044B1954704700F0E3
:100E20000F000901C9B2024B1954704700E400E0F9
:100E300014ED00E000B500F00700C0F1070CBCF1B4
:100E4000040F28BF4FF0040C031D062B0FD9C31E3F
:100E50004FF0FF3E0EFA0CF021EA000199400EFA25
:100E600003FE22EA0E0241EA02005DF804FB0023C1
:100E7000EEE700000649CB6823F4E0631B041B0C7B
:100E8000000200F4E0600343024A1A43CA6070475C
:100E900000ED00E00000FA0510B50446054BD868E7
:100EA000C0F30220FFF7C6FF01462046FFF7B0FF60
:100EB00010BD00BF00ED00E00138B0F1807F0BD223
:100EC0004FF0E0235861054AF02182F823100020FA
:100ED000986107221A6170470120704700ED00E019
:100EE00000230F2B00F2F48070B582B066E08568B5
:100EF0004FEA430E032404FA0EF425EA0405CC68F5
:100F000004FA0EF42C438460446824EA02044A681C
:100F1000C2F300129A40224342605DE0DC080834CC
:100F200050F8242003F00705AD004FF00F0E0EFA25
:100F300005FE22EA0E0E0A69AA4042EA0E0240F8B5
:100F400024205DE0092200E0002202FA0EF22A438A
:100F50000234604D45F824205F4A94686FEA0C0221
:100F600024EA0C054E6816F4801F01D04CEA0405F3
:100F7000594CA560E46802EA04054E6816F4001FA7
:100F800001D04CEA0405544CE560646802EA0405AB
:100F90004E6816F4003F01D04CEA04054E4C6560E3
:100FA000246822404D6815F4803F01D04CEA0402C9
:100FB000494C226001330F2B00F2888001229A40B5
:100FC0000C6804EA020C32EA0404F3D14C6804F021
:100FD0000304013C012C8AD94A6802F00302032A67
:100FE00009D0C4685D000322AA4024EA02048A688A
:100FF000AA402243C2604A6802F00302022A8DD04E
:1010000004684FEA430E032202FA0EF224EA0204B5
:101010004A6802F0030202FA0EF2224302604A68B2
:1010200012F4403FC6D02D4A546C44F480445464BA
:10103000526C02F480420192019A9C08A51C254A38
:1010400052F8255003F0030E4FEA8E0E0F2202FADB
:101050000EF225EA0205224A90423FF475AF02F5EE
:101060008062904222D002F58062904220D002F548
:10107000806290421ED002F5806290421CD002F540
:10108000806290421AD002F58062904218D002F538
:101090008062904216D002F58062904214D002F530
:1010A000806290423FF44EAF0A224EE701224CE7A5
:1010B00002224AE7032248E7042246E7052244E7E2
:1010C000062242E7072240E708223EE702B070BD51
:1010D000704700BF00380140003C0140003802402A
:1010E000000002400AB181617047090481617047C4
:1010F00010B582B01B4B1A6C42F080521A641B6C04
:1011000003F080530193019B174A136843F4803323
:101110001360FFF777FE0446134B5B6813F4803FC0
:1011200008D1FFF76FFE001BB0F57A7FF4D90320DA
:1011300002B010BD0C4A136843F400331360FFF78C
:1011400061FE0446084B5B6813F4003F07D1FFF7CC
:1011500059FE001BB0F57A7FF4D90320E8E70020A0
:10116000E6E700BF0038024000700040002800F0B1
:10117000FF8170B582B00446036813F0010F29D0D7
:10118000954B9B6803F00C03042B1AD0924B9B6881
:1011900003F00C03082B0FD06368B3F5803F40D0F9
:1011A000002B54D18C4B1A6822F480321A601A68D2
:1011B00022F480221A6039E0874B5B6813F4800FB9
:1011C000EAD0854B1B6813F4003F03D06368002B03
:1011D00000F0D081236813F0020F74D07E4B9B681F
:1011E00013F00C0F5ED07C4B9B6803F00C03082BB4
:1011F00053D0E368002B00F08980774A136843F0EE
:1012000001031360FFF7FEFD0546734B1B6813F0E7
:10121000020F72D1FFF7F6FD401B0228F5D903201B
:10122000ADE16D4A136843F48033136063682BB3F8
:10123000FFF7E8FD0546684B1B6813F4003FC9D172
:10124000FFF7E0FD401B6428F5D9032097E1B3F5D3
:10125000A02F09D0604B1A6822F480321A601A68F5
:1012600022F480221A60E1E75B4B1A6842F4802284
:101270001A601A6842F480321A60D7E7FFF7C2FD9D
:101280000546554B1B6813F4003FA3D0FFF7BAFD8A
:10129000401B6428F5D9032071E14F4B5B6813F4C0
:1012A000800FA6D14C4B1B6813F0020F03D0E368EC
:1012B000012B40F06181484A136823F0F80321694B
:1012C00043EAC1031360236813F0080F46D0636933
:1012D00083B3414A536F43F001035367FFF792FD15
:1012E00005463D4B5B6F13F0020F37D1FFF78AFDC8
:1012F000401B0228F5D9032041E1374A136823F047
:10130000F803216943EAC1031360DCE7324A13683A
:1013100023F001031360FFF775FD05462E4B1B6894
:1013200013F0020FCFD0FFF76DFD401B0228F5D957
:10133000032024E1284A536F23F001035367FFF78A
:1013400061FD0546244B5B6F13F0020F06D0FFF7DB
:1013500059FD401B0228F5D9032010E1236813F042
:10136000040F7DD01C4B1B6C13F0805F1ED11A4BF9
:101370001A6C42F080521A641B6C03F08053019384
:10138000019B0125154B1B6813F4807F10D0A368C7
:10139000012B25D0002B3BD10F4B1A6F22F00102FD
:1013A0001A671A6F22F004021A671EE00025E9E7A7
:1013B0000A4A136843F480731360FFF723FD06465F
:1013C000064B1B6813F4807FE1D1FFF71BFD801BE8
:1013D0006428F5D90320D2E00038024000700040B4
:1013E0006E4A136F43F001031367A36833B3FFF72B
:1013F00009FD0646694B1B6F13F0020F2FD1FFF753
:1014000001FD801B41F288339842F3D90320B6E0F6
:10141000052B09D0614B1A6F22F001021A671A6F6F
:1014200022F004021A67E0E75C4B1A6F42F00402F4
:101430001A671A6F42F001021A67D6E7FFF7E2FC5B
:101440000646564B1B6F13F0020F08D0FFF7DAFC6D
:10145000801B41F288339842F3D903208FE0FDB915
:10146000A369002B00F08A804C4A926802F00C02BB
:10147000082A58D0022B19D0484A136823F08073E9
:101480001360FFF7BFFC0446444B1B6813F0007F5A
:1014900047D0FFF7B7FC001B0228F5D903206EE008
:1014A0003E4A136C23F080531364D9E73B4A136818
:1014B00023F080731360FFF7A5FC0546374B1B68CC
:1014C00013F0007F06D0FFF79DFC401B0228F5D9E2
:1014D000032054E0E369226A1343626A43EA8213F9
:1014E000A26A5208013A43EA0243E26A43EA02630B
:1014F00043F00053294A5360136843F0807313602C
:10150000FFF780FC0446254B1B6813F0007F06D1D3
:10151000FFF778FC001B0228F5D903202FE00020FC
:101520002DE000202BE01D4A5268012B29D002F447
:101530008003E1698B4226D102F03F03216A8B428E
:1015400023D1616A47F6C0731340B3EB811F1ED1EC
:1015500002F44031A36A5B08013BB1EB034F18D1A1
:1015600002F07062E36AB2EB036F14D1002006E070
:1015700001207047012002E0012000E0002002B0BD
:1015800070BD0120FBE70120F9E70120F7E701200A
:10159000F5E70120F3E70120F1E700BF0038024042
:1015A00008B5264B9B6803F00C03042B41D0082B95
:1015B00041D1224B5A6802F03F025B6813F4800F5E
:1015C00012D01E4B5968C1F388111D480023A1FB9E
:1015D0000001FEF74DFE194B5B68C3F30143013375
:1015E0005B00B0FBF3F027E0144B5868C0F38810A1
:1015F0004FEA401CBCEB000C6EEB0E0E4FEA8E1354
:1016000043EA9C634FEA8C11B1EB0C0163EB0E03D0
:10161000DB0043EA5173C90011EB000C43F10003F6
:10162000990200234FEA8C2041EA9C51FEF720FEEC
:10163000D1E7034800E0034808BD00BF003802407E
:1016400040787D010024F400002800F0A08070B5EF
:101650000D460446524B1B6803F00F038B420BD21E
:101660004F4A136823F00F030B431360136803F012
:101670000F038B4240F08D80236813F0020F17D0C8
:1016800013F0040F04D0474A936843F4E053936087
:10169000236813F0080F04D0424A936843F4604370
:1016A0009360404A936823F0F003A1680B43936072
:1016B000236813F0010F31D06368012B20D0022B77
:1016C00025D0384A126812F0020F64D035498A6872
:1016D00022F0030213438B60FFF794FB0646314B65
:1016E0009B6803F00C036268B3EB820F16D0FFF720
:1016F00089FB801B41F288339842F0D9032045E0F2
:10170000284A126812F4003FE0D101203EE0254A49
:10171000126812F0007FD9D1012037E0204B1B68FE
:1017200003F00F03AB420AD91D4A136823F00F03DD
:101730002B431360136803F00F03AB422DD12368D2
:1017400013F0040F06D0174A936823F4E053E168BE
:101750000B439360236813F0080F07D0114A936876
:1017600023F46043216943EAC1039360FFF718FF44
:101770000C4B9B68C3F303130B4AD35CD8400B4B51
:1017800018600B4B1868FFF7FFFA002070BD0120AE
:1017900070470120FAE70120F8E70120F6E700BFD3
:1017A000003C024000380240984D00080000002034
:1017B00008000020014B1868704700BF000000209F
:1017C00008B5FFF7F7FF044B9B68C3F38223034A76
:1017D000D35CD84008BD00BF00380240904D0008DF
:1017E00008B5FFF7E7FF044B9B68C3F34233034A96
:1017F000D35CD84008BD00BF00380240904D0008BF
:10180000F0B583B00446066816F001060DD0A74B6C
:101810009A6822F400029A609A68416B0A439A60BF
:10182000436B002B00F039810026256815F4002554
:1018300011D09E4AD2F88C3023F44013E16B0B4355
:10184000C2F88C30E36BB3F5801F00F02881002BC9
:1018500000F027810025236813F4801F0FD0934ADE
:10186000D2F88C3023F44003216C0B43C2F88C3047
:10187000236CB3F5800F00F0168103B901252368AE
:1018800013F0807F00D0012613F0200F40F010816C
:10189000236813F0100F0CD0844BD3F88C2022F067
:1018A0008072C3F88C20D3F88C20A16B0A43C3F854
:1018B0008C20236813F4804F08D07C4AD2F89030F3
:1018C00023F44033616E0B43C2F89030236813F465
:1018D000004F08D0754AD2F8903023F44023A16E0F
:1018E0000B43C2F89030236813F4803F08D06F4A4E
:1018F000D2F8903023F44013E16E0B43C2F89030DD
:10190000236813F4003F08D0684AD2F8903023F4DB
:101910004003216F0B43C2F89030236813F0400F4F
:1019200008D0624AD2F8903023F00303616C0B4375
:10193000C2F89030236813F0800F08D05B4AD2F8C9
:10194000903023F00C03A16C0B43C2F89030236855
:1019500013F4807F08D0554AD2F8903023F030033A
:10196000E16C0B43C2F89030236813F4007F08D079
:101970004E4AD2F8903023F0C003216D0B43C2F8D9
:101980009030236813F4806F08D0484AD2F8903022
:1019900023F44073616D0B43C2F89030236813F455
:1019A000006F08D0414AD2F8903023F44063A16D13
:1019B0000B43C2F89030236813F4805F08D03B4A91
:1019C000D2F8903023F44053E16D0B43C2F89030CD
:1019D000236813F4005F08D0344AD2F8903023F41F
:1019E0004043216E0B43C2F89030236813F4800FFC
:1019F00008D02E4AD2F8903023F08063A16F0B43B9
:101A0000C2F89030236813F4001F0DD0274AD2F893
:101A1000903023F00063E16F0B43C2F89030E36F26
:101A2000B3F1006F00F0AA80236813F0080F00D014
:101A3000012513F4802F08D01C4AD2F8903023F0EF
:101A40004073616F0B43C2F89030236813F4000FAA
:101A500009D0164AD2F8903023F08053D4F8801081
:101A60000B43C2F8903026B9236813F0007F00F0D2
:101A700005810E4A136823F080631360FFF7C2F9F3
:101A800006460A4B1B6813F0006F79D0FFF7BAF9CE
:101A9000801B6428F5D90320F3E00126C5E6012662
:101AA000D5E60125D7E60126E7E600BF003802406B
:101AB0007F4B1A6C42F080521A641B6C03F0805307
:101AC0000193019B7B4A136843F480731360FFF713
:101AD00099F90746774B1B6813F4807F06D1FFF70F
:101AE00091F9C01B6428F5D90320CAE0704B1B6F25
:101AF00013F4407315D0226B02F440729A4210D056
:101B00006B4B1A6F22F44072196F41F480311967E0
:101B1000196F21F4803119671A671B6F13F0010FD9
:101B200012D1236B03F44072B2F5407F1DD0604A9E
:101B3000936823F4F81393605D490B6F226BC2F333
:101B40000B0213430B67A3E6FFF75CF90746584BFC
:101B50001B6F13F0020FE4D1FFF754F9C01B41F2E1
:101B600088339842F3D903208BE05148826822F4ED
:101B7000F812514919400A438260DDE7012553E715
:101B8000236813F0010F13D0636B8BB9484AD2F866
:101B90008430D2F88410606803F4403343EA801341
:101BA00001F070610B43A16843EA0173C2F884300D
:101BB000236813F4002F03D0E26BB2F5801F06D028
:101BC00013F4801F1ED0236CB3F5800F1AD1384A4E
:101BD000D2F88430D2F88410606803F4403343EACA
:101BE0008013E06843EA006301F0E0410B43C2F870
:101BF0008430D2F88C3023F01F03616A01390B4323
:101C0000C2F88C30236813F0807F11D0284AD2F8B4
:101C10008400D2F88410666823691B0443EA8613A3
:101C200000F07060034301F0E0410B43C2F88430E0
:101C3000236813F0007F0DD0626823691B0443EA18
:101C40008213E26843EA0263A26843EA0273184A15
:101C5000C2F88430164A136843F080631360FFF7BC
:101C6000D1F80646124B1B6813F0006F06D1FFF740
:101C7000C9F8801B6428F5D9032002E0012D02D0A9
:101C8000002003B0F0BD0A4A136823F080531360AC
:101C9000FFF7B8F80546064B1B6813F0005F0DD040
:101CA000FFF7B0F8401B6428F5D90320E9E700BF2F
:101CB0000038024000700040FFFCFF0F236813F45F
:101CC000002F01D0E26B22B113F4801F1DD0236CD2
:101CD000DBB9354AD2F88830D2F88810606903F44D
:101CE000403343EA8013A06943EA006301F0E04116
:101CF0000B43C2F88830D2F88C3023F4F853A16A31
:101D0000013943EA0123C2F88C30236813F4001F21
:101D100003D0E36FB3F1006F31D0236813F0080FE5
:101D200019D0214AD2F88810D2F88830606903F4BB
:101D3000403343EA801301F070610B43E16943EAE9
:101D40000173C2F88830D2F88C3023F44033E16A52
:101D50000B43C2F88C30144A136843F0805313606D
:101D6000FFF750F80446104B1B6813F0005F19D1C1
:101D7000FFF748F8001B6428F5D9032081E70A4AD9
:101D8000D2F88800D2F888106569236A1B0443EAF8
:101D9000851300F07060034301F0E0410B43C2F88B
:101DA0008830BAE700206CE70038024010B50446DE
:101DB00083680269134342691343C269134301688C
:101DC0000868934A02401A430A602268536823F461
:101DD0004053E1680B435360A269236A1A432168A8
:101DE0008B6823F4306313438B602368894A9342E2
:101DF00019D0894A934229D0884A93423ED0884AD2
:101E0000934262D0874A934271D0874A934200F04E
:101E10008380864A934200F09480854A934200F082
:101E2000A58010233AE0834BD3F8903003F00303EE
:101E3000032B09D8DFE803F00204AE0601232DE0EE
:101E400004232BE0082329E0102327E0794BD3F863
:101E5000903003F00C030C2B0ED8DFE803F0070DD5
:101E60000D0D090D0D0D9D0D0D0D0B00002315E041
:101E7000042313E0082311E010230FE06D4BD3F887
:101E8000903003F03003202B00F0888019D8002B0D
:101E900000F08680102B40F085800423E069B0F5C7
:101EA000004F00F0AB80082B00F20C81DFE813F04C
:101EB000E800FB00E6000A01FE000A010A010A012F
:101EC0000101302B70D10823E8E75A4BD3F890304A
:101ED00003F0C003802B69D005D8002B68D0402BBD
:101EE00068D10423DAE7C02B66D10823D6E7514B2B
:101EF000D3F8903003F44073B3F5007F5ED006D87A
:101F0000002B5DD0B3F5807F5CD10423C6E7B3F529
:101F1000407F59D10823C1E7464BD3F8903003F4F2
:101F20004063B3F5006F51D006D8002B50D0B3F505
:101F3000806F4FD10423B1E7B3F5406F4CD1082334
:101F4000ACE73C4BD3F8903003F44053B3F5005F5B
:101F500044D006D8002B43D0B3F5805F42D1042390
:101F60009CE7B3F5405F3FD1082397E7314BD3F8A7
:101F7000903003F44043B3F5004F37D005D8BBB3DE
:101F8000B3F5804F36D1042388E7B3F5404F33D102
:101F9000082383E7022381E702237FE702237DE70B
:101FA00000237BE7102379E7102377E7022375E707
:101FB000002373E7102371E710236FE702236DE717
:101FC00000236BE7102369E7102367E7022365E727
:101FD000012363E7102361E710235FE702235DE736
:101FE00000235BE7102359E7102357E7022355E747
:101FF000002353E7102351E710234FE7082B5BD84A
:10200000DFE803F01A343A5A375A5A5A1E0000BF12
:10201000F369FFEF00100140004400400048004019
:10202000004C004000500040001401400078004087
:10203000007C004000380240FFF7C2FB00283DD082
:102040006268530803EB4003B3FBF2F3A3F1100102
:102050004FF6EF72914233D89AB222F00F02C3F3D7
:10206000420313432268D360002030E0FFF7B8FB3F
:10207000E4E7FFF795FAE1E71748E1E7164802E0E1
:10208000FFF79EFB00B3636800EB5300B0FBF3F077
:10209000A0F110024FF6EF739A4217D8236880B26E
:1020A000D860002013E0FFF79BFBEBE7FFF778FA1F
:1020B000E8E74FF40040E6E7012008E0002006E0F2
:1020C000012004E0012002E0002000E001200023C4
:1020D000A366E36610BD00BF0024F400436A13F05A
:1020E000010F06D00268536823F40033816A0B4362
:1020F0005360436A13F0020F06D00268536823F45A
:102100008033C16A0B435360436A13F0040F06D057
:102110000268536823F48023016B0B435360436AC6
:1021200013F0080F06D00268536823F40043416B94
:102130000B435360436A13F0100F06D00268936894
:1021400023F48053816B0B439360436A13F0200F99
:1021500006D00268936823F40053C16B0B4393606D
:10216000436A13F0400F0AD00268536823F48013C7
:10217000016C0B435360036CB3F5801F0BD0436AB3
:1021800013F0800F06D00268536823F40023816C9B
:102190000B43536070470268536823F4C003416CDB
:1021A0000B435360EBE72DE9F84305460F4616460F
:1021B0009946DDF820802B68DC6937EA04040CBFFF
:1021C00001240024B44255D1B8F1FF3FF3D0FEF70B
:1021D00019FEA0EB090040452ED8B8F1000F2BD016
:1021E0002B681A6812F0040FE5D0DA6912F4006F58
:1021F000E1D04FF400621A622A6852E8003F23F4EB
:10220000D07342E800310029F6D12A6802F10803B0
:1022100053E8003F23F00103083242E8003100296F
:10222000F3D12023EB67C5F88030C5F88430002354
:1022300085F8783003201EE02A6852E8003F23F436
:10224000D07342E800310029F6D12A6802F1080370
:1022500053E8003F23F00103083242E8003100292F
:10226000F3D12023EB67C5F88030002385F8783060
:10227000032000E00020BDE8F8832DE9F04182B0A2
:102280001E46C36F202B4ED104460D469046002AB1
:1022900018BF002901D1012046E00023C0F8843096
:1022A0002123C367FEF7AEFD0746A4F85080A4F8CB
:1022B0005280A368B3F5805F02D04FF0000811E0B0
:1022C000236913B34FF000080CE038F8023B226892
:1022D000C3F308039362B4F8522092B2013A92B267
:1022E000A4F85220B4F852309BB28BB100963B4612
:1022F000002280212046FFF756FFC0B9002DE4D010
:1023000015F8012B23689A62E5E7A8460025E9E75E
:1023100000963B46002240212046FFF744FF40B98B
:102320002023E36700E0022002B0BDE8F081032033
:10233000FAE70320F8E710B582B004460023C0F89E
:102340008430FEF75FFD23681B6813F0080F0AD185
:102350002023E367C4F8803000202066606684F89C
:10236000780002B010BD6FF07E4300930346002258
:102370004FF400112046FFF716FF0028E8D0032095
:10238000EFE768B310B50446C36F03B32423E367D4
:102390002268136823F0010313602046FFF706FD4F
:1023A000012813D0636ABBB92268536823F49043B1
:1023B00053602268936823F02A03936022681368AD
:1023C00043F0010313602046FFF7B5FF10BD80F80E
:1023D0007830FEF77FFCD9E72046FFF77FFEE3E782
:1023E00001207047842801D00330704700207047D7
:1023F00008B500F0EDFF002008BD2DE9F04387B0DF
:102400000E464469C4B18569B5B14768D0F800800B
:10241000D0F81090B0F90800FFF7E4FF029501949E
:10242000009033464A464146384600F05DFF05902D
:10243000059807B0BDE8F083446805680769B0F9FE
:102440000800FFF7CFFF05AB019300903346BAB207
:102450002946204600F089FF0128E9D00020E8E75E
:1024600008B500B9012001F003F9002008BD00F112
:10247000080343604FF0FF328260C36003610023B2
:102480000360704700230361704743684B609A689C
:102490008A60516099600861036801330360704786
:1024A00030B40D68B5F1FF3F11D000F108031C46B0
:1024B0005B681A68AA42FAD963684B6099608C60BD
:1024C0006160086103680133036030BC70470469D0
:1024D000F2E70369416882688A60416851605A681E
:1024E000824206D0002202611A68013A1A60186816
:1024F000704782685A60F5E782B0002301930F4B62
:102500001B68B3F1FF3F0AD04FF0500372B683F35C
:102510001188BFF36F8FBFF34F8F62B6FEE74FF0A6
:10252000500372B683F31188BFF36F8FBFF34F8FE1
:1025300062B6019B002BFCD002B070470C0000205B
:1025400008480068006880F308884FF0000080F3B6
:10255000148862B661B6BFF34F8FBFF36F8F00DF91
:1025600000BF000008ED00E0DFF80C00016841F456
:10257000700101607047000088ED00E04FF080734B
:1025800040F8043C21F0010140F8081C054B40F8DC
:102590000C3C40F8202C6FF0020340F8243C4438F7
:1025A000704700BFF9240008000000000000000090
:1025B000074B19680868B0E8F04F80F30988BFF34B
:1025C0006F8F4FF0000080F311887047AFF30080E9
:1025D000BC4000204FF0500372B683F31188BFF364
:1025E0006F8FBFF34F8F62B60C4A136801331360CD
:1025F000012B00D070474FF0E023D3F8043D13F0D7
:10260000FF0FF7D04FF0500372B683F31188BFF37A
:102610006F8FBFF34F8F62B6FEE700BF0C00002044
:102620000A4B1B6853B94FF0500372B683F31188FD
:10263000BFF36F8FBFF34F8F62B6FEE7013B034AD4
:1026400013600BB983F31188704700BF0C000020A2
:10265000EFF30980BFF36F8F154B1A681EF0100F50
:1026600008BF20ED108A20E9F04F10602DE9090025
:102670004FF0500072B680F31188BFF34F8FBFF355
:102680006F8F62B601F01CF84FF0000080F31188E4
:1026900009BC19680868B0E8F04F1EF0100F08BFB9
:1026A000B0EC108A80F30988BFF36F8F704700BFCA
:1026B000BC40002008B54FF0500372B683F3118878
:1026C000BFF36F8FBFF34F8F62B600F0C5FE28B126
:1026D0004FF0E0234FF08052C3F8042D002383F322
:1026E000118808BD4FF0E022002313619361054B70
:1026F0001B680549A1FB03139B09013B5361072399
:102700001361704700000020D34D621030B583B0D4
:102710002F4B1A78D2B20192FF221A701B78DBB2CB
:102720008DF803309DF8033003F05003294A1370ED
:10273000294B07221A6009E0274A1368013B1360FE
:102740009DF803305B00DBB28DF803309DF8033059
:1027500013F0800FF0D1204B1B68032B0AD04FF0F1
:10276000500372B683F31188BFF36F8FBFF34F8F9F
:1027700062B6FEE71B02184A136003F4E0631360BD
:10278000019BDBB2124A13704FF0E024D4F8203DD5
:1027900043F47003C4F8203DD4F8203D43F0704367
:1027A000C4F8203DFFF79EFF00250C4B1D60FFF78E
:1027B000DBFED4F8343F43F04043C4F8343FFFF726
:1027C000BFFE00F07DFFFFF797FE284603B030BD47
:1027D00000E400E078030020740300200C000020D7
:1027E000124A12F0070F1ED0D11D21F00701C1F5CA
:1027F000705313440A460E4802600021416013449E
:10280000083B23F007030B48036059601960991ACD
:1028100051601360084B1960084B1960084B4FF06A
:1028200000421A6070474FF47053E4E794030020AD
:102830008C030020880300208003002084030020F4
:102840007C030020164B1A461B688342FBD3516859
:1028500002EB010C844509D0416800EB010C634593
:1028600009D00360904219D010607047406801445D
:1028700051601046F0E710B40A4C2468A3420BD014
:102880005B681944416013681B680360904200D084
:1028900010605DF8044B70470460F7E7704700BFB5
:1028A0008C0300208803002038B5044600F0CCFDDE
:1028B000384B1B68B3B1384B1B681C424ED1002CFF
:1028C0004ED004F1080214F0070F02D022F00702E4
:1028D0000832002A55D0314B1B68934253D33049FC
:1028E0000C6804E0FFF77CFFE5E721461C466368BF
:1028F000934202D22368002BF7D1264B1B68A342D8
:1029000043D00D68083523680B6063689B1A102B51
:1029100012D9A01810F0070F0AD04FF0500372B66A
:1029200083F31188BFF36F8FBFF34F8F62B6FEE75B
:1029300043606260FFF786FF626818490B689B1A64
:102940000B60184909688B4201D216490B60124B83
:102950001B68134363600023236002E0002500E04E
:10296000002500F007FE15F0070F10D04FF05003C0
:1029700072B683F31188BFF36F8FBFF34F8F62B6C8
:10298000FEE70025EDE70025EBE70025E9E728460F
:1029900038BD00BF880300207C0300208403002092
:1029A0008C03002080030020002834D038B5044672
:1029B000A0F1080550F8043C174A126813420AD1E6
:1029C0004FF0500372B683F31188BFF36F8FBFF3DC
:1029D0004F8F62B6FEE750F8081C51B14FF050031C
:1029E00072B683F31188BFF36F8FBFF34F8F62B658
:1029F000FEE723EA020340F8043C00F025FD54F80A
:102A0000041C064A13680B4413602846FFF71AFF9C
:102A100000F0B0FD38BD70477C0300208403002027
:102A20000346406A18B11B6B1868C0F10700704775
:102A300010B50446FFF7CEFDA26BE36B9A4204D0BB
:102A40000024FFF7EDFD204610BD0124F9E710B585
:102A50000446FFF7BFFDA36B23B90124FFF7E0FD98
:102A6000204610BD0024F9E770B504461546866B74
:102A7000026C5AB903681BB100200136A66370BD11
:102A8000806800F091FF0023A360F6E76DB940680D
:102A900001F015FA6368226C13446360A2689342E4
:102AA00019D3236863602846E7E7C06801F007FA96
:102AB000E368226C51429B1AE3602268934202D27F
:102AC000A3680B44E360022D01D00020D5E726B1B6
:102AD000013E0020D1E72846CFE70020CDE738B5FA
:102AE0000546FFF777FD95F8454064B201E0013CEB
:102AF00064B2002C0ADD6B6A43B105F1240000F0DA
:102B000047FE0028F3D000F0DDFEF0E7FF2385F854
:102B10004530FFF785FDFFF75DFD95F8444064B251
:102B200001E0013C64B2002C0ADD2B6943B105F1E0
:102B3000100000F02DFE0028F3D000F0C3FEF0E7F7
:102B4000FF2385F84430FFF76BFD38BD38B5E0B1A1
:102B50000D460446FFF73EFD2368E26B216C01FB46
:102B60000230A0600020A0636360013A02FB0133E1
:102B7000E360FF2384F8443084F845300DBB2369BB
:102B800073B9FFF74DFD012038BD4FF0500372B609
:102B900083F31188BFF36F8FBFF34F8F62B6FEE7E9
:102BA00004F1100000F0F4FD0028EAD04FF0E0231B
:102BB0004FF08052C3F8042DBFF34F8FBFF36F8FD8
:102BC000DFE704F11000FFF752FC04F12400FFF7E7
:102BD0004EFCD6E710B5034602980C4631B90060AA
:102BE000C36304640121FFF7B1FF10BD0260F7E782
:102BF00050B94FF0500372B683F31188BFF36F8F53
:102C0000BFF34F8F62B6FEE7F0B583B00C461546B2
:102C10000746A1B101FB00F04830FFF745FE06462C
:102C200050B1002380F8463000902B4600F1480256
:102C300021463846FFF7CEFF304603B0F0BD0846C8
:102C4000EAE7F0B585B0019298B10F461D460446FB
:102C5000D1B1022D26D1E36B012B23D04FF05003CD
:102C600072B683F31188BFF36F8FBFF34F8F62B6D5
:102C7000FEE74FF0500372B683F31188BFF36F8FF6
:102C8000BFF34F8F62B6FEE7036C002BE1D04FF02D
:102C9000500372B683F31188BFF36F8FBFF34F8F6A
:102CA00062B6FEE700F014FE064668B9019B002BF1
:102CB0004AD04FF0500372B683F31188BFF36F8F81
:102CC000BFF34F8F62B6FEE700263DE02A46394645
:102CD0002046FFF7C9FE636A7BB948B14FF0E02395
:102CE0004FF08052C3F8042DBFF34F8FBFF36F8FA7
:102CF000FFF796FC012005B0F0BD04F1240000F0C0
:102D000047FD0028F4D04FF0E0234FF08052C3F885
:102D1000042DBFF34F8FBFF36F8FE9E7FFF780FC00
:102D20000020E8E702A800F07BFD012619E000235F
:102D300084F8443021E0002384F8453023E0204625
:102D4000FFF7CDFE00F016FCFFF744FCA26BE36B2F
:102D50009A42BBD3022DB9D0019B002BDED0002EAE
:102D6000E0D0FFF75DFC00F06FFBFFF733FC94F859
:102D7000442052B2B2F1FF3FD9D094F8452052B26C
:102D8000B2F1FF3FD7D0FFF74BFC01A902A800F03A
:102D900053FDD8B92046FFF74BFE0028CFD001994C
:102DA00004F1100000F0DAFC2046FFF798FE00F076
:102DB000E1FB0028C8D14FF0E0234FF08052C3F868
:102DC000042DBFF34F8FBFF36F8FBDE72046FFF792
:102DD00086FE00F0CFFB00208DE748B108B500214A
:102DE00081600160C1600B460A46FFF72AFF08BDFB
:102DF000704710B5024600210120FFF7F9FE044696
:102E0000FFF7EBFF204610BD70B584B0019168B1AB
:102E10000446036CABB14FF0500372B683F31188D4
:102E2000BFF36F8FBFF34F8F62B6FEE74FF05003D3
:102E300072B683F31188BFF36F8FBFF34F8F62B603
:102E4000FEE700F045FD054660B9019B6BB14FF010
:102E5000500372B683F31188BFF36F8FBFF34F8FA8
:102E600062B6FEE70026354657E0064655E0013BD0
:102E7000A36323683BB123694BB9FFF7D1FB01265C
:102E8000304604B070BD00F04FFEA060F3E704F1DF
:102E9000100000F07DFC0028EFD04FF0E0234FF051
:102EA0008052C3F8042DBFF34F8FBFF36F8FE4E759
:102EB00056B14FF0500372B683F31188BFF36F8F92
:102EC000BFF34F8F62B6FEE7FFF7AAFBD8E702A871
:102ED00000F0A6FC01252AE0002384F8443032E00B
:102EE000002384F8453034E0FFF774FBA06800F05D
:102EF000FFFC0646FFF794FB3BE02046FFF7EFFDA3
:102F000000F038FB09E02046FFF7E9FD00F032FB56
:102F10002046FFF79CFD002842D1FFF75BFBA36B27
:102F2000002BA4D1019B002BC2D0002DCFD0FFF7E6
:102F300077FB00F089FAFFF74DFB94F844305BB261
:102F4000B3F1FF3FC8D094F845305BB2B3F1FF3F17
:102F5000C6D0FFF765FB01A902A800F06DFC0028B0
:102F6000D1D12046FFF773FD0028C6D02368002B7F
:102F7000BAD0019904F1240000F0F0FB2046FFF7DD
:102F8000AEFD00F0F7FA0028C7D14FF0E0234FF074
:102F90008052C3F8042DBFF34F8FBFF36F8FBCE790
:102FA0000EB900266CE7FFF715FB2046FFF738FD4A
:102FB0000146A06800F054FDFFF732FBF1E7000086
:102FC000084B1B681B6823B9074B4FF0FF321A6090
:102FD0007047044B1B68DB68DB685A68024B1A6059
:102FE000704700BF044000209C3F00202DE9F047BF
:102FF00007469846089DDDF824900A9C266B6FF0E2
:103000004043134406EB830626F00706C1B3084687
:103010004FF0000CBCF10F0F09D810F80C2004EB96
:103020000C0383F8342012B10CF1010CF2E70023F9
:1030300084F84330062D00D90625E56265644FF01B
:10304000000AC4F848A0201DFFF71CFA04F118007C
:10305000FFF718FA2461C5F10705A5616462C4F899
:103060004CA084F850A0424639463046FFF786FA15
:103070002060B9F1000F01D0C9F80040BDE8F08729
:10308000002384F83430D5E738B5002407E004EB9A
:10309000840293000E481844FFF7E9F90134062C26
:1030A000F5D90C4D2846FFF7E2F90B4C2046FFF707
:1030B000DEF90A48FFF7DBF90948FFF7D8F90948B4
:1030C000FFF7D5F9084B1D60084B1C6038BD00BFE9
:1030D000304000201C40002008400020EC3F002031
:1030E000D83F0020C03F00200440002000400020C6
:1030F00010B50446FFF76EFA214A136801331360D6
:10310000204B1B685BB1204B1B686BB91D4B1B68C8
:10311000DA6AE36A9A4207D81A4B1C6004E0194B3A
:103120001C601368012B28D0184A13680133136000
:10313000E06A01238340164A11680B43136000EBD9
:103140008000211D134B03EB8000FFF79EF9FFF772
:1031500067FA0D4B1B687BB10A4B1B68DA6AE36A9E
:103160009A4209D24FF0E0234FF08052C3F8042D69
:10317000BFF34F8FBFF36F8F10BDFFF785FFD3E70E
:10318000BC3F0020BC400020B03F0020A03F0020FA
:10319000B43F00203040002010B5044690F8513074
:1031A00073B1012B13D0022B10D04FF0500372B625
:1031B00083F31188BFF36F8FBFF34F8F62B6FEE7C3
:1031C000006BFFF7F1FB2046FFF7EEFB10BDFFF7AA
:1031D000EBFBFBE70F4B1B68D3B110B5FFF7FAF918
:1031E0000D4BDB68DC68201DFFF773F90B4A136891
:1031F000013B1360074A1368013B1360FFF710FAA5
:103200002046FFF7C9FF034B1B68002BE6D110BD1A
:10321000704700BFD43F0020D83F0020BC3F0020B3
:1032200008B5FFF7D7FF074B1B68012BF9D94FF003
:10323000E0234FF08052C3F8042DBFF34F8FBFF34C
:103240006F8FEEE73040002070B504460D461F4BEF
:103250001E681F4B18680430FFF73BF948B91C4B38
:103260001B68DB6A01229A401A490B6823EA0203B1
:103270000B60B4F1FF3F14BF00230123002D08BFF2
:1032800000236BB93444124B1B685C60A6420ED914
:10329000114B18680E4B19680431FFF701F970BD26
:1032A0000B4B196804310D48FFF7EFF8F7E70C4BAB
:1032B0001868074B19680431FFF7F2F8094B1B68CF
:1032C000A342ECD9074B1C60E9E700BFB83F0020E0
:1032D000BC400020B43F002000400020C03F002040
:1032E000044000209C3F002030B587B00B9C8CB17F
:1032F0000C9DD5B154250495049D542D20D04FF03C
:10330000500372B683F31188BFF36F8FBFF34F8FF3
:1033100062B6FEE74FF0500372B683F31188BFF335
:103320006F8FBFF34F8F62B6FEE74FF0500372B658
:1033300083F31188BFF36F8FBFF34F8F62B6FEE741
:10334000049D0C9D2C63022485F8514000240394B5
:10335000029505AC01940A9C0094FFF747FE0C9877
:10336000FFF7C6FE059807B030BD2DE9F04385B0E4
:103370000746884614461E469000FFF795FA08B3A4
:1033800081465420FFF790FA0546A8B1C0F8309066
:10339000002380F85130039302900D9B01930C9B06
:1033A00000933346224641463846FFF71FFE284623
:1033B000FFF79EFE012007E04846FFF7F5FA4FF0C1
:1033C000FF3001E04FF0FF3005B0BDE8F0830000B2
:1033D00010B588B000240594069407AA06A905A88C
:1033E000FCF786FF059B0293069B019300942346FE
:1033F000079A0F490F48FFF777FF0F4B1860A0B1EE
:103400004FF0500372B683F31188BFF36F8FBFF391
:103410004F8F62B6094B4FF0FF321A60084B012202
:103420001A60084B1C60FFF771F908B010BD00BFAF
:10343000A84D000821320008983F00209C3F002042
:10344000B03F0020B83F0020024A136801331360E8
:10345000704700BF943F0020F8B53B4B1B68002B22
:1034600066D13A4B1D6801351D60D5B9384B1B68D4
:103470001B6853B14FF0500372B683F31188BFF34A
:103480006F8FBFF34F8F62B6FEE7314A1168314B41
:10349000186810601960304A136801331360FFF731
:1034A0008FFD2E4B1B68AB4238D900272C4B1B6875
:1034B000DB6A03EB83039A002A4B9B58012B3CD910
:1034C00001273AE00127224B1B681B6843B3204BBE
:1034D0001B68DB68DC6863689D4226D3261D304686
:1034E000FEF7F7FFA36A1BB104F11800FEF7F1FF26
:1034F000E36A01229A401C49086802430A6003EB10
:1035000083039A00314617481044FEF7BEFFE26A73
:10351000134B1B68DB6A9A42D4D2D4E70027D2E768
:103520000E4B4FF0FF321A60C0E70C4A1360BDE744
:103530000E4A13680133136000270D4B1B6803B15B
:1035400001273846F8BD00BF943F0020B83F002057
:103550000440002000400020A43F00209C3F0020A9
:10356000BC40002030400020B43F0020AC3F002091
:10357000A83F002038B5364B1B6853B94FF05003B5
:1035800072B683F31188BFF36F8FBFF34F8F62B6AC
:10359000FEE7FFF71FF82E4B1A68013A1A601B6806
:1035A000002B4FD12B4B1B680BB900244BE00024A0
:1035B000294B1B681BB3284BDB68DC6804F118003F
:1035C000FEF787FF251D2846FEF783FFE06A0123EB
:1035D0008340224A11680B43136000EB80002946A8
:1035E0001F4B03EB8000FEF750FFE26A1D4B1B6888
:1035F000DB6A9A42DCD31C4B01221A60D8E70CB17B
:10360000FFF7DEFC194B1C6884B9174B1C68D4B15A
:103610004FF0E0234FF08052C3F8042DBFF34F8FDB
:10362000BFF36F8F01240EE0013C07D0FFF714FFBA
:103630000028F9D00C4B01221A60F5E70B4B002251
:103640001A60E2E70024FEF7EBFF204638BD00BF1A
:10365000943F0020BC3F0020EC3F0020B43F0020FE
:1036600030400020BC400020A83F0020AC3F00209C
:1036700010B5B8B10446114B1B6853B14FF050035D
:1036800072B683F31188BFF36F8FBFF34F8F62B6AB
:10369000FEE7FFF7D9FE00212046FFF7D5FDFFF733
:1036A00069FF48B94FF0E0234FF08052C3F8042D72
:1036B000BFF34F8FBFF36F8F10BD00BF943F00204B
:1036C000214B1B681BB1214B01221A6070471F4B15
:1036D00000221A601E4B1B68B3FA83F3DBB2C3F1FE
:1036E0001F0303EB83018A001A498A5852B94FF02D
:1036F000500372B683F31188BFF36F8FBFF34F8F00
:1037000062B6FEE7134803EB83018A000244516866
:103710004968516003EB830C4FEA8C020832024483
:10372000914209D003EB83039A000A4B13445B6870
:10373000DA68094B1A607047486862469100054A8A
:103740000A445060EEE700BF943F0020A83F0020ED
:10375000B43F002030400020BC40002058B110B5DC
:103760000C460A4A11681831FEF79AFE01212046DC
:10377000FFF76AFD10BD4FF0500372B683F3118856
:10378000BFF36F8FBFF34F8F62B6FEE7BC400020E0
:1037900038B5C368DC6824B304F118052846FEF781
:1037A00098FE194B1B683BBB251D2846FEF791FE72
:1037B000E06A01238340154A11680B43136000EB54
:1037C00080002946124B03EB8000FEF75EFEE26AA2
:1037D000104B1B68DB6A9A4213D901200E4B18600C
:1037E00038BD4FF0500372B683F31188BFF36F8F6B
:1037F000BFF34F8F62B6FEE729460848FEF745FE45
:10380000E5E70020ECE700BF943F0020B43F002034
:1038100030400020BC400020A83F0020EC3F0020AA
:10382000034B1B680360034B1B684360704700BF7A
:10383000A43F0020B83F0020F8B5C8B10C460546AB
:1038400009B3FEF7C7FE1D4B19686B68C81A2268DA
:10385000B2F1FF3F2AD01A4E36682F68B74201D026
:103860008B4228D9824219D80023236001241EE00C
:103870004FF0500372B683F31188BFF36F8FBFF31D
:103880004F8F62B6FEE74FF0500372B683F3118894
:10389000BFF36F8FBFF34F8F62B6FEE75B1A13441F
:1038A00023602846FFF7BCFF002400E00024FEF759
:1038B000B7FE2046F8BD0124F9E700BFB83F00205D
:1038C000A43F0020014B01221A607047A83F00204E
:1038D000054B1B6833B1054B1B680BB100207047CB
:1038E0000220704701207047B03F0020943F002025
:1038F00000284FD038B50446C36A284A1268D26AF5
:1039000093423FD28269002A05DB244A1268D26AB8
:10391000C2F107028261616903EB8303204A02EB73
:103920008303994205D01D4B1B68DB6AE3620120CB
:1039300038BD251D2846FEF7CCFD70B9E26A02EBC2
:1039400082039B001649CB583BB9012303FA02F2CC
:1039500014490B6823EA02030B60104B1B68D86AFA
:10396000E062012404FA00F30E4A11680B4313606D
:1039700000EB800029460A4B03EB8000FEF785FD33
:103980002046D5E7426C054B1B68DB6A9A4203D39D
:103990000020CDE7002070470120C9E7BC4000208F
:1039A00030400020B43F002000284FD038B50446F6
:1039B000284B1B6883420AD04FF0500372B683F342
:1039C0001188BFF36F8FBFF34F8F62B6FEE7836C32
:1039D00053B94FF0500372B683F31188BFF36F8F62
:1039E000BFF34F8F62B6FEE7013B8364C16A426C4E
:1039F00091422DD00BB1002038BD051D2846FEF7A1
:103A000068FD68B9E36A03EB8302920012498A58A1
:103A100032B901229A4011490B6823EA02030B6074
:103A2000606CE062C0F10703A361012404FA00F3B3
:103A30000A4A11680B43136000EB80002946064BCD
:103A400003EB8000FEF721FD2046D5E700207047FC
:103A50000020D1E7BC40002030400020B43F0020CF
:103A6000002859D038B50446836C53B94FF0500341
:103A700072B683F31188BFF36F8FBFF34F8F62B6B7
:103A8000FEE7426C8A4200D20A46E16A914201D0C6
:103A9000012B00D038BD214B1B68A34231D0E2621C
:103AA000A369002B02DBC2F10702A261626901EB8C
:103AB00081011B4B03EB81039A42EBD1251D284664
:103AC000FEF707FD68B9E36A03EB8302920014492D
:103AD0008A5832B901229A4012490B6823EA02033C
:103AE0000B60E06A012383400E4A11680B431360A8
:103AF00000EB800029460A4B03EB8000FEF7C5FC73
:103B0000C8E74FF0500372B683F31188BFF36F8F8D
:103B1000BFF34F8F62B6FEE7704700BFBC40002086
:103B200030400020B43F0020054B1B6823B1044BFC
:103B30001A68936C01339364014B1868704700BF97
:103B4000BC400020DFF834D00D480E490E4A002357
:103B500002E0D458C4500433C4188C42F9D30B4A41
:103B60000B4C002301E013600432A242FBD3FDF7AB
:103B70008BF800F07DF9FCF7B5FF704700000520D9
:103B8000000000206C000020F04D00086C000020B8
:103B90000C420020FEE70000002310B50446C0E9F7
:103BA0000033C0E90433836081814366C28183614D
:103BB000194608225C3000F006F90D4B63620D4B8C
:103BC000A3620D4BE3620D4B23630D4B24629C42B9
:103BD00006D003F16802944202D0D0339C4205D152
:103BE00004F15800BDE8104000F066B910BD00BFF8
:103BF000413D0008633D00089B3D0008BF3D0008B3
:103C0000C0400020024A0349034800F069B800BFE1
:103C1000100000207D4700082000002041680C4B68
:103C2000994210B5044601D000F0A8FDA168094BE7
:103C3000994202D0204600F0A1FDE168064B99426E
:103C400004D02046BDE8104000F098BD10BD00BF74
:103C5000C0400020284100209041002010B50B4BAF
:103C60000B4C0C4A1A60204600220421FFF794FFF7
:103C700004F1680001220921FFF78EFF04F1D00052
:103C80000222BDE810401221FFF786BFF841002054
:103C9000C0400020053C0008014800F00EB900BFFC
:103CA00001420020014800F009B900BF0142002094
:103CB00010B50446FFF7F0FF236A1BB1BDE81040C2
:103CC000FFF7F0BF044B2362044B1B68002BF5D1B8
:103CD000FFF7C4FFF2E700BF1D3C0008F8410020D9
:103CE0002DE9F8430746884614460026D4E9019595
:103CF000B9F1010905D52468002CF7D13046BDE89B
:103D0000F883AB89012B07D9B5F90E30013303D005
:103D100029463846C04706436835E9E70FB407B57A
:103D2000064904AB086853F8042B8168019300F03E
:103D3000EFF903B05DF804EB04B070471C000020FD
:103D400010B50C46B1F90E1000F068F80028ABBFB2
:103D5000636DA3891B1823F48053ACBF6365A381F3
:103D600010BD2DE9F0411F468B89DB0505460C4649
:103D7000164605D5B1F90E100223002200F03CF8DA
:103D8000A389B4F90E1023F48053A38132463B4635
:103D90002846BDE8F04100F053B810B50C46B1F923
:103DA0000E1000F029F8431CA38915BF606523F4A9
:103DB000805343F48053A38118BFA38110BDB1F990
:103DC0000E1000F009B802440346934200D1704738
:103DD00003F8011BF9E7000038B5064D002304463F
:103DE00008462B60FCF71FFF431C02D12B6803B170
:103DF000236038BDFC41002038B5074D0446084615
:103E0000114600222A601A46FCF717FF431C02D114
:103E10002B6803B1236038BDFC41002038B5074D45
:103E200004460846114600222A601A46FCF7DDFEC9
:103E3000431C02D12B6803B1236038BDFC41002034
:103E400038B5074D04460846114600222A601A4636
:103E5000FCF7DBFE431C02D12B6803B1236038BDA5
:103E6000FC410020014B1868704700BF1C00002077
:103E700070B50D4D0D4C641BA4100026A64209D14F
:103E80000B4D0C4C00F028FF641BA4100026A6422A
:103E900005D170BD55F8043B98470136EEE755F85B
:103EA000043B98470136F2E7E84D0008E84D00086A
:103EB000E84D0008EC4D00087047704770470A4411
:103EC000914200F1FF3300D1704710B511F8014B5A
:103ED00003F8014F9142F9D110BD000038B50546F5
:103EE000002941D051F8043C0C1F002BB8BFE41846
:103EF00000F0D8F81D4A136833B96360146028468F
:103F0000BDE8384000F0D4B8A34208D92068211891
:103F10008B4201BF19685B6809182160EDE71A46FA
:103F20005B680BB1A342FAD911685018A0420BD1BB
:103F300020680144501883421160E0D118685B6822
:103F4000536008441060DAE702D90C232B60D6E7EF
:103F5000206821188B4204BF19685B68636004BF46
:103F6000091821605460CAE738BD00BF084200202C
:103F700070B50F4E0C463168054611B900F0BAFC19
:103F800030602146284600F0B5FC431C03D14FF0B9
:103F9000FF34204670BDC41C24F00304A042F8D0B6
:103FA000211A284600F0A6FC0130F2D1EFE700BF4D
:103FB000044200202DE9F041CD1C25F00305083511
:103FC0000C2D38BF0C25002D064601DBA94204D973
:103FD0000C2333600020BDE8F081314F00F062F81F
:103FE0003B681C4644BB29463046FFF7C1FF431CD3
:103FF000044650D13C682146002941D1002C44D0D0
:104000002368304604EB030800F074FC80453CD183
:1040100021686D1A29463046FFF7AAFF013034D0D7
:1040200023682B4423603B68002B36D05A68A24299
:1040300029D100225A600EE02268521B1DD40B2A9F
:1040400016D96119A342256018BF5960636808BF7B
:10405000396062514B60304600F02AF804F10B00E1
:10406000231D20F00700C21AB5D01B1AA350B2E7D7
:10407000A3426268DED13A60EDE723466468B1E7A7
:104080000C464968B8E71346CEE70C233360304648
:1040900000F00EF89EE70560DDE75B60FFDE00BF25
:1040A000084200200148FFF708BF00BF004200207F
:1040B0000148FFF703BF00BF004200209368013BA7
:1040C000002B10B4936008DA9469A34201DB0A293B
:1040D00003D15DF8044B00F079BB1368581C1060E5
:1040E000197008465DF8044B7047F8B506460F4650
:1040F0001446D518AC4201D1002007E014F8011B8A
:104100003A463046FFF7DAFF431CF3D1F8BD000012
:104110002DE9F04F0D469DB014469846064618B15D
:10412000036A0BB9FFF7C4FD6B6ED90705D4AB89E1
:104130009A0502D4A86DFFF7C0FEAB891B0701D515
:104140002B699BB92946304600F07EFB70B16B6E3F
:10415000DC0704D54FF0FF301DB0BDE8F08FAB8910
:104160009805F7D4A86DFFF7A9FEF3E7002309939C
:1041700020238DF82930CDF80C803023DFF8AC8176
:104180008DF82A304FF0010923469A4613F8012B87
:104190000AB1252AF9D1BAEB040B0BD05B462246B3
:1041A00029463046FFF7A1FF013000F0A780099AA9
:1041B0005A4409929AF80030002B00F09F800023A7
:1041C0004FF0FF32CDE905230AF1010A049307936A
:1041D0008DF853301A935446052214F8011B5348A6
:1041E000FBF7F6FF049AD8B9D10644BF20238DF817
:1041F0005330130744BF2B238DF853309AF8003007
:104200002A2B15D0079A544600204FF00A0C21465D
:1042100011F8013B303B092B4BD9B0B1079214E0A8
:10422000A0EB080309FA03F313430493A246D2E771
:10423000039B191D1B680391002BBBBF5B4242F01F
:10424000020207930793B8BF049223782E2B0AD15A
:1042500063782A2B32D1039B1A1D1B68039243EA11
:10426000E37302340593DFF8D4A02178032250468B
:10427000FBF7AEFF38B1049BA0EB0A00402282405E
:1042800013430134049314F8011B29488DF82810B6
:104290000622FBF79DFF00283FD0264B1BBB039B4C
:1042A000073323F0070308330393099B3B44099327
:1042B0006AE70CFB02320C460120A8E70023013418
:1042C000059319464FF00A0C204610F8012B303A9E
:1042D000092A03D9002BC6D00591C4E70CFB0121A4
:1042E00004460123F0E703AB00932A46124B04A9CE
:1042F0003046AFF300800746781CD6D16B6ED907E5
:1043000005D4AB899A0502D4A86DFFF7D7FDAB8918
:104310005B063FF51FAF09981EE703AB00932A46E3
:10432000054B04A9304600F079F8E4E7AD4D0008EC
:10433000B74D000800000000EB400008B34D000836
:104340002DE9F047164698468A680B69DDF82090FB
:104350009342B8BF1346336091F8432007460C469A
:104360000AB1013333602368990642BF33680233D0
:104370003360256815F0060506D104F1190AE368D3
:1043800032689B1AAB4226DC94F843302268003B2B
:1043900018BF012392062BD404F14302414638464C
:1043A000C84701301ED02368226903F00603042B9E
:1043B00002BFE5683368ED1AA3680CBF25EAE5750E
:1043C00000259342C4BF9B1AED1800261A34B5424B
:1043D0001AD1002008E00123524641463846C8471A
:1043E000013003D14FF0FF30BDE8F0870135C6E75B
:1043F000E1185A1C302081F84300224494F84510FB
:1044000082F843100233C7E701232246414638466B
:10441000C8470130E6D00136D9E700002DE9FF4753
:104420000F7E0C9E782F914680460C469A4601F1ED
:10443000430207D8622F0AD8002F00F0DD80582FE2
:1044400000F0C38004F1420684F842703AE0A7F11C
:104450006303152BF6D801A151F823F0B5440008E9
:10446000C944000845440008454400084544000884
:1044700045440008C9440008454400084544000874
:104480004544000845440008DF450008574500083A
:1044900097450008454400084544000801460008C7
:1044A00045440008574500084544000845440008B5
:1044B0009F45000833681A1D1B68326004F14206EC
:1044C00084F842300123A8E031682368081D306079
:1044D0001E0601D50D6803E05D06FBD5B1F900505D
:1044E0006168002D78DA2D20002984F84300A1604E
:1044F0002DDA5E486D420A231646B5FBF3F103FB45
:104500001157C75D06F8017D2F46BB420D46F4D911
:10451000082B0BD12368DF0708D52369616899420E
:10452000DEBF302306F8013C06F1FF36921B226104
:10453000CDF800A04B4603AA21464046FFF700FFF6
:1045400001306FD14FF0FF3004B0BDE8F08723F0A9
:1045500004032360CDE721683368080653F8045B41
:1045600002D4490648BFADB26F2F4048336014BF34
:104570000A230823002184F843106668A660002EF1
:10458000BADB216821F004012160002DB4D1002E96
:10459000B2D11646BCE7236843F0200323603448B9
:1045A000782784F84570236831681F0651F8045B4A
:1045B00002D45F0648BFADB23160D90744BF43F0B3
:1045C000200323601DB11023D4E72848E9E72368BE
:1045D00023F020032360F6E724480A23CDE733685D
:1045E00025686169181D30602E061B6801D51960A9
:1045F00002E06806FBD5198000232361164697E781
:1046000033681A1D32601E68626800213046FBF76D
:10461000DFFD08B1801B606063682361002384F8BC
:10462000433085E72369324649464046D04701304A
:1046300088D023689B0714D4E068039B9842B8BFD6
:10464000184681E70123324649464046D0470130AB
:104650003FF478AF0135E36803995B1AAB42F1DCB4
:10466000EAE7002504F11906F5E700BFBE4D000892
:10467000CF4D0008B1F90C202DE9F0411707054690
:104680000C4656D44B68002B02DC0B6C002B3DDD36
:10469000E66A002E3AD0002312F480522F68216A75
:1046A0002B6025D0626DA389580705D56368D21A9F
:1046B000636B0BB1236CD21A216AE66A0023284689
:1046C000B047411C24D00023636023692360A38981
:1046D000DA0400D56065616B2F60B9B104F1440361
:1046E000994202D02846FFF7F9FB002363630DE0EF
:1046F00001232846B047461C0246D4D12B68002B24
:10470000D1D01D2B01D0162B2BD12F6000202FE0F4
:104710002A68B4F90C3042B11D2A01D0162A22D1E0
:104720000023636023692360D5E762602269226009
:10473000CEE70F69002FE9D093070E6808BF4B69D9
:104740000F6018BF0023A6EB07088B60B8F1000FBD
:10475000DCDD216AA66A43463A462846B04700286F
:1047600008DCB4F90C3043F04003A3814FF0FF3074
:10477000BDE8F0810744A8EB0008E7E738B50B690E
:1047800005460C4613B90025284638BD18B1036A02
:104790000BB9FFF78DFAB4F90C30002BF3D0626E31
:1047A000D00704D4990502D4A06DFFF786FB2846F4
:1047B0002146FFF75FFF636EDA070546E4D4A3895D
:1047C0009B05E1D4A06DFFF779FBDDE7F8B50E4658
:1047D0001446054618B1036A0BB9FFF769FAA369D5
:1047E000A360A3891A0701D5236943B92146284646
:1047F00000F02AF818B14FF0FF373846F8BD2368AB
:104800002269981A6369F6B28342374605DC21466D
:104810002846FFF7B3FF0028EDD1A368013BA36052
:1048200023685A1C22601E706269431C9A4204D09D
:10483000A389DB07E1D50A2EDFD121462846FFF701
:104840009DFF0028D9D0D6E738B5294B0546186812
:104850000C4618B1036A0BB9FFF72AFAB4F90C3009
:10486000190722D4DA0607D409222A6043F040034C
:10487000A3814FF0FF3033E0580712D5616B41B18F
:1048800004F14403994202D02846FFF727FB002396
:104890006363A38923F02403A38100236360236956
:1048A0002360A38943F00803A38123694BB9A3893B
:1048B00003F42073B3F5007F03D02146284600F0AF
:1048C0004FF8B4F90C3013F001020AD00022A260B4
:1048D00062695242A261226942B913F08000C5D1D7
:1048E00038BD990758BF6269A260F4E70020F7E776
:1048F0001C00002038B5064D0023044608462B60F6
:10490000FCF79EF9431C02D12B6803B1236038BD2C
:10491000FC41002070B50C46B1F90E10002996B08C
:1049200015461E460DDAA38913F0800F4FF00001E3
:1049300014BF40234FF48063002031602B6016B019
:1049400070BD6A4600F048F80028ECDB019901F4DC
:104950007041A1F50053594259414FF48063EBE790
:104960008B89F7B59D0706460C4607D504F147032A
:10497000236023610123636103B0F0BD01AB6A468C
:10498000FFF7C8FF009F054639463046FFF712FB88
:1049900048B9B4F90C309A05EED423F0030343F080
:1049A0000203A381E2E7A389206043F08003A3818F
:1049B000019BC4E904075BB1B4F90E10304600F066
:1049C0001DF828B1A38923F0030343F00103A38159
:1049D000A3891D43A581CFE738B5074D00230446C1
:1049E000084611462B60FCF721F9431C02D12B68C5
:1049F00003B1236038BD00BFFC41002038B5064D2F
:104A00000023044608462B60FCF715F9431C02D12D
:104A10002B6803B1236038BDFC4100202DE9F0472D
:104A2000089D0C46002B4ED194468C458646B2FA22
:104A300082F262D94AB1C2F12003914020FA03F315
:104A40000CFA02FC194300FA02FE4FEA1C471FFA57
:104A50008CF6B1FBF7F44FEA1E4307FB141143EA4F
:104A6000014304FB06F199420AD91CEB030304F14C
:104A7000FF3080F01381994240F21081023C634480
:104A8000591A1FFA8EF3B1FBF7F007FB101143EA36
:104A9000014300FB06F69E420AD91CEB030300F11A
:104AA000FF3180F0FD809E4240F2FA80634402387C
:104AB0009B1B40EA044000211DB1D3400022C5E900
:104AC0000032BDE8F0878B4205D90DB1C5E9000180
:104AD00000210846F5E7B3FA83F1002946D1A34245
:104AE00002D39042C0F0F180861A64EB03030120E8
:104AF000002DE6D0C5E90063E3E7002A40F091808D
:104B0000A1EB0C044FEA1C481FFA8CF70121B4FBFF
:104B1000F8F64FEA1E4308FB164443EA044307FB3A
:104B200006F0984208D91CEB030306F1FF3402D2C9
:104B3000984200F2CE8026461C1A1FFA8EF3B4FB70
:104B4000F8F008FB104443EA044300FB07F79F42D8
:104B500008D91CEB030300F1FF3402D29F4200F29C
:104B6000B1802046DB1B40EA0640A5E7C1F12006E4
:104B70008B4022FA06F71F4320FA06FC04FA01F3E1
:104B800043EA0C03F44000FA01F8380C4FEA1349E9
:104B9000B4FBF0FE1FFA87FC00FB1E4449EA044404
:104BA0000EFB0CF9A14502FA01F20AD93C190EF1EB
:104BB000FF3A80F08580A14540F28280AEF1020E7E
:104BC0003C44A4EB09041FFA83F9B4FBF0F300FBA7
:104BD000134449EA044403FB0CFCA44507D93C19DF
:104BE00003F1FF3068D2A44566D9023B3C4443EA56
:104BF0000E40A0FB0293A4EB0C049C42CE469C46C4
:104C000052D34FD055B1B8EB0E0364EB0C0404FA49
:104C100006F6CB40CC401E43C5E900640021BDE848
:104C2000F087C2F1200320FA03F10CFA02FC24FA07
:104C300003F394400C434FEA1C4800FA02FE1FFAAB
:104C40008CF7B3FBF8F008FB1031230C43EA014367
:104C500000FB07F1994208D91CEB030300F1FF3672
:104C60002CD299422AD9023863445B1AA4B2B3FB0E
:104C7000F8F108FB113344EA034401FB07F3A342B4
:104C800008D91CEB040401F1FF3613D2A34211D959
:104C900002396444E41A41EA004138E70446EFE689
:104CA000084605E7C845ADD2B9EB020E63EB070C29
:104CB0000138A7E73146EDE7034698E73046D4E7E9
:104CC000D6467EE7634402384CE70646234608464C
:104CD0000EE7023E63442FE7F8B500BFF8BC08BCFE
:104CE0009E467047F8B500BFF8BC08BC9E467047AA
:104CF0000C4D0008E5020008000000000000000064
:104D00008000000000000000000000006465666193
:104D1000756C745461736B004A65207375697320F8
:104D20006C612074616368652031206574206A6558
:104D3000206D27656E646F727320706F7572202509
:104D400064207469636B730D0A0000004A65207368
:104D5000756973206C612074616368652032206519
:104D600074206A65206D27656E646F727320706FA2
:104D70007572202564207469636B730D0A0000004E
:104D800054616368652031005461636865203200B6
:104D90000000000001020304000000000000000009
:104DA000010203040607080949444C4500232D303D
:104DB0002B2000686C4C0065666745464700303123
:104DC0003233343536373839414243444546003072
:104DD00031323334353637383961626364656600A1
:084DE0003CFCFF7F0100000014
:044DE800C9020008F4
:044DEC00A502000814
:104DF0000024F4000100000010000000AAAAAAAAE2
:104E00000000000003000000C0400020200000203F
:104E100000000000C04000202841002090410020F8
:104E20000000000000000000000000000000000082
:104E30000000000000000000000000000000000072
:104E40000000000000000000000000000000000062
:0C4E500000000000000000000000000056
:0400000508003B456F
:00000001FF
