:020000040800F2
:1000000000000520B1470008B1060008B30600084B
:10001000B5060008B7060008B90600080000000091
:10002000000000000000000000000000112E000889
:10003000BB06000800000000B12E0008152F0008C4
:10004000014800080148000801480008014800086C
:10005000014800080148000801480008014800085C
:10006000014800080148000801480008014800084C
:10007000014800080148000801480008014800083C
:10008000014800080148000801480008014800082C
:10009000014800080148000801480008014800081C
:1000A000014800080148000801480008014800080C
:1000B00001480008014800080148000801480008FC
:1000C00001480008014800080148000801480008EC
:1000D00001480008BD060008014800080148000862
:1000E00001480008014800080148000801480008CC
:1000F00001480008014800080148000801480008BC
:1001000001480008014800080148000801480008AB
:100110000148000801480008CD0600080148000811
:10012000014800080148000801480008014800088B
:10013000014800080148000801480008014800087B
:10014000014800080148000801480008014800086B
:10015000014800080148000801480008014800085B
:10016000014800080148000801480008014800084B
:10017000014800080148000801480008000000008C
:10018000014800080148000801480008014800082B
:10019000014800080148000801480008014800081B
:1001A000014800080148000801480008014800080B
:1001B00001480008014800080148000801480008FB
:0801C000014800080148000895
:1001D000034613F8012B002AFBD1181A0138704787
:1001E00001F0FF01102A2BDB10F0070F08D010F8E8
:1001F000013B013A8B422DD010F0070F42B3F6D1EC
:10020000F0B441EA012141EA014122F007047FF004
:1002100000070023F0E80256083C85EA010586EA5B
:10022000010685FA47F5A3FA87F586FA47F6A5FA97
:1002300087F68EB9EED1F0BC01F0FF0102F00702A3
:1002400032B110F8013B013A83EA010313B1F8D14E
:100250000020704701387047002D06BF354603382F
:10026000073815F0010F07D1013015F4807F02BF68
:10027000013015F4C03F0130F0BC0138704700BFB9
:1002800053B94AB9002908BF00281CBF4FF0FF31FD
:100290004FF0FF3000F00CB8ADF1080C6DE904CE62
:1002A00005F054FCDDF804E0DDE9022304B07047FA
:1002B000704700BF10B5054C237833B9044B13B118
:1002C0000448AFF300800123237010BD74000020A8
:1002D00000000000085E000808B5034B1BB103498D
:1002E0000348AFF3008008BD000000007800002044
:1002F000085E000808B5012002F0E2FCFBE7000000
:10030000034B0360034B0B6080231360704700BFF7
:10031000900200209000002010B588B00DF1040C70
:10032000074C0FCCACE80F0094E807008CE80700FE
:10033000002101A802F091FC024B186008B010BD2A
:10034000205E0008F402002030B58BB00024059434
:100350000694079408940994204B1A6B42F001020A
:100360001A631A6B02F001020192019A1A6B42F0B1
:1003700002021A631A6B02F002020292029A1A6BCC
:1003800042F480721A631A6B02F480720392039A29
:100390001A6B42F080021A631B6B03F08003049314
:1003A000049B0F4D22460221284600F09BFC0223AD
:1003B0000593012306930794089405A9284600F0A5
:1003C0008FFB4FF4006305934FF488130693079453
:1003D00005A9284600F084FB0BB030BD0038024070
:1003E0000020024010B5012809D1084C204604F035
:1003F00037F82146064804F0C7FA002010BD05482A
:1004000004F02AFB4FF0FF30F8E700BFF8020020AD
:10041000485E00085C5E000808B504F047F9044A2D
:100420000449732004F026F904F072F908BD00BFF6
:10043000845E0008E503000800B583B001904FF02A
:10044000FF33012201A9034802F0BDFA019803B06D
:100450005DF804FB9C07002008B5024804F094FAFC
:10046000FEE700BF8C5E000808B5024801F0ECFA18
:1004700008BD00BF50070020014B1B68586A704739
:100480005007002008B50268034B9A4200D008BD0F
:1004900004F0D6F8FBE700BF0010014008B5026881
:1004A000034B9A4200D008BD00F048FAFBE700BFBA
:1004B0000010004072B6FEE700B595B03022002172
:1004C00008A804F0FDFB002303930493059306930F
:1004D0000793234B1A6C42F080521A641B6C03F092
:1004E00080530193019B1F4B1A6842F440421A60EB
:1004F0001B6803F440430293029B012308934FF4CB
:100500008033099302230E934FF480020F92192235
:1005100010924FF4D87211921293139308A800F01E
:1005200025FCB0B900F0E4FBA8B90F230393022324
:100530000493002305934FF4A05306934FF4805384
:100540000793072103A800F07FFE30B915B05DF8CE
:1005500004FBFFF7AFFFFFF7ADFFFFF7ABFF00BFF7
:10056000003802400070004000B583B000F0DAF9B6
:10057000FFF7A2FFFFF7E8FE00F054F900F006F9DC
:100580000E4B01930323009300234FF400720C4998
:100590000C4803F0A7FA012804D00B4804F05CFAD9
:1005A000FFF788FF03220021012002F03EFF074BE6
:1005B0001860FFF7B1FE02F04BFBFEE7FC060020DF
:1005C000B05E000819040008B85E0008F8060020B4
:1005D00000B583B00D4B1A6C42F080521A641A6C4D
:1005E00002F080520092009A5A6C42F480425A649F
:1005F0005B6C03F480430193019B00220F216FF099
:10060000010000F0F1F903B05DF804FB003802408E
:1006100030B589B00446214B1A6C42F010021A64BE
:100620001B6C03F010030193019B02A903A800F0C7
:10063000E7FE069BCBB900F0C3FE0346184AA2FBB7
:1006400003239B0C013B1748174A026040F2E73234
:10065000C2604360002303618360836101F0DAFBC1
:10066000054630B1284609B030BD00F0A9FE430070
:10067000E4E70C4801F02CFA05460028F2D13620B8
:1006800000F0C2F90F2C01D90125EBE70022214629
:10069000362000F0A9F9054B1C60E3E70038024062
:1006A00083DE1B43000700200010004008000020EC
:1006B000FEE7FEE7FEE7FEE7FEE7704708B5024803
:1006C00001F000FD08BD00BF9C07002008B50248EE
:1006D00001F04AFA08BD00BF0007002070B50C46C3
:1006E0001646002506E0AFF30080214601F8010B15
:1006F00001350C46B542F6DB304670BD70B50C4690
:100700001646002504E014F8010BFFF795FE0135AD
:10071000B542F8DB304670BD4FF0FF3070474FF404
:1007200000534B6000207047012070470020704745
:1007300010B503460C4A0D490D48006840B10C48FD
:1007400000680344521A934206D8094A136010BD48
:100750000748084C0460F2E704F000FB0C23036038
:100760004FF0FF30F3E700BF000005200004000059
:100770004C070020C86F0020034AD2F8883043F4A9
:100780007003C2F88830704700ED00E000B589B012
:100790000023049305930693079301930293039315
:1007A00015484FF08042026040F237424260836059
:1007B0004FF0FF32C2600361836101F02BFB90B9FF
:1007C0004FF48053049304A90B4801F061FB68B90E
:1007D00000230193039301A9074801F0D9FB40B915
:1007E00009B05DF804FBFFF765FEE9E7FFF762FE7D
:1007F000EEE7FFF75FFEF3E7500700200368B3F171
:10080000804F00D0704782B003F50E331A6C42F06F
:1008100001021A641B6C03F001030193019B02B0F7
:100820007047000008B50B480B4B03604FF4E133F1
:10083000436000238360C36003610C2242618361D3
:10084000C3610362436202F042F900B908BDFFF7D9
:1008500031FEFBE79C07002000100140F0B5ABB073
:1008600004460021259126912791289129918422DF
:1008700004A804F025FA2268264B9A4201D02BB036
:10088000F0BD4023049304A800F0D8FD00283DD11A
:10089000214B5A6C42F010025A645A6C02F010025A
:1008A0000192019A1A6B42F002021A631A6B02F06B
:1008B00002020292029A1A6B42F001021A631B6B47
:1008C00003F001030393039B8023259302272697BC
:1008D00000242794032628960725299525A90F4843
:1008E00000F0FEF84FF4007325932697279428967E
:1008F000299525A90A4800F0F3F82246052125206C
:1009000000F072F8252000F07FF8B8E7FFF7D2FD7D
:10091000BEE700BF00100140003802400004024062
:100920000000024008B5032000F04CF80F20FFF74C
:100930006FFEFFF74DFE002008BD0000034A11685E
:10094000034B1B780B441360704700BF2408002042
:1009500004000020014B1868704700BF24080020E5
:10096000002804DB0901C9B2044B1954704700F098
:100970000F000901C9B2024B1954704700E400E0AE
:1009800014ED00E000B500F00700C0F1070CBCF169
:10099000040F28BF4FF0040C031D062B0FD9C31EF4
:1009A0004FF0FF3E0EFA0CF021EA000199400EFADA
:1009B00003FE22EA0E0241EA02005DF804FB002376
:1009C000EEE700000649CB6823F4E0631B041B0C30
:1009D000000200F4E0600343024A1A43CA60704711
:1009E00000ED00E00000FA0510B50446054BD8689C
:1009F000C0F30220FFF7C6FF01462046FFF7B0FF15
:100A000010BD00BF00ED00E0002807DB00F01F0272
:100A1000400901239340024A42F82030704700BF4A
:100A200000E100E070B50446866DFFF793FF94F88F
:100A30003530DBB2022B06D080236365002384F8B7
:100A40003430012070BD05462268136823F0160378
:100A500013602268536923F080035361236CE3B170
:100A60002268136823F0080313602268136823F0D8
:100A70000103136023681B6813F0010F11D0FFF707
:100A800069FF431B052BF5D920236365032084F8F8
:100A90003500002384F83430D4E7A36C002BDFD179
:100AA000E3E7E26D3F239340B360012384F83530E0
:100AB000002084F83400C5E790F83530DBB2022B13
:100AC00003D08023436501207047052380F835302B
:100AD0000268136823F001031360002070470000D0
:100AE00000230F2B00F2F48070B582B066E08568B9
:100AF0004FEA430E032404FA0EF425EA0405CC68F9
:100B000004FA0EF42C438460446824EA02044A6820
:100B1000C2F300129A40224342605DE0DC080834D0
:100B200050F8242003F00705AD004FF00F0E0EFA29
:100B300005FE22EA0E0E0A69AA4042EA0E0240F8B9
:100B400024205DE0092200E0002202FA0EF22A438E
:100B50000234604D45F824205F4A94686FEA0C0225
:100B600024EA0C054E6816F4801F01D04CEA0405F7
:100B7000594CA560E46802EA04054E6816F4001FAB
:100B800001D04CEA0405544CE560646802EA0405AF
:100B90004E6816F4003F01D04CEA04054E4C6560E7
:100BA000246822404D6815F4803F01D04CEA0402CD
:100BB000494C226001330F2B00F2888001229A40B9
:100BC0000C6804EA020C32EA0404F3D14C6804F025
:100BD0000304013C012C8AD94A6802F00302032A6B
:100BE00009D0C4685D000322AA4024EA02048A688E
:100BF000AA402243C2604A6802F00302022A8DD052
:100C000004684FEA430E032202FA0EF224EA0204B9
:100C10004A6802F0030202FA0EF2224302604A68B6
:100C200012F4403FC6D02D4A546C44F480445464BE
:100C3000526C02F480420192019A9C08A51C254A3C
:100C400052F8255003F0030E4FEA8E0E0F2202FADF
:100C50000EF225EA0205224A90423FF475AF02F5F2
:100C60008062904222D002F58062904220D002F54C
:100C7000806290421ED002F5806290421CD002F544
:100C8000806290421AD002F58062904218D002F53C
:100C90008062904216D002F58062904214D002F534
:100CA000806290423FF44EAF0A224EE701224CE7A9
:100CB00002224AE7032248E7042246E7052244E7E6
:100CC000062242E7072240E708223EE702B070BD55
:100CD000704700BF00380140003C0140003802402E
:100CE000000002400AB181617047090481617047C8
:100CF00010B582B01B4B1A6C42F080521A641B6C08
:100D000003F080530193019B174A136843F4803327
:100D10001360FFF71FFE0446134B5B6813F4803F1C
:100D200008D1FFF717FE001BB0F57A7FF4D9032036
:100D300002B010BD0C4A136843F400331360FFF790
:100D400009FE0446084B5B6813F4003F07D1FFF728
:100D500001FE001BB0F57A7FF4D90320E8E70020FC
:100D6000E6E700BF0038024000700040002800F0B5
:100D7000FF8170B582B00446036813F0010F29D0DB
:100D8000954B9B6803F00C03042B1AD0924B9B6885
:100D900003F00C03082B0FD06368B3F5803F40D0FD
:100DA000002B54D18C4B1A6822F480321A601A68D6
:100DB00022F480221A6039E0874B5B6813F4800FBD
:100DC000EAD0854B1B6813F4003F03D06368002B07
:100DD00000F0D081236813F0020F74D07E4B9B6823
:100DE00013F00C0F5ED07C4B9B6803F00C03082BB8
:100DF00053D0E368002B00F08980774A136843F0F2
:100E000001031360FFF7A6FD0546734B1B6813F043
:100E1000020F72D1FFF79EFD401B0228F5D9032077
:100E2000ADE16D4A136843F48033136063682BB3FC
:100E3000FFF790FD0546684B1B6813F4003FC9D1CE
:100E4000FFF788FD401B6428F5D9032097E1B3F52F
:100E5000A02F09D0604B1A6822F480321A601A68F9
:100E600022F480221A60E1E75B4B1A6842F4802288
:100E70001A601A6842F480321A60D7E7FFF76AFDF9
:100E80000546554B1B6813F4003FA3D0FFF762FDE6
:100E9000401B6428F5D9032071E14F4B5B6813F4C4
:100EA000800FA6D14C4B1B6813F0020F03D0E368F0
:100EB000012B40F06181484A136823F0F80321694F
:100EC00043EAC1031360236813F0080F46D0636937
:100ED00083B3414A536F43F001035367FFF73AFD71
:100EE00005463D4B5B6F13F0020F37D1FFF732FD24
:100EF000401B0228F5D9032041E1374A136823F04B
:100F0000F803216943EAC1031360DCE7324A13683E
:100F100023F001031360FFF71DFD05462E4B1B68F0
:100F200013F0020FCFD0FFF715FD401B0228F5D9B3
:100F3000032024E1284A536F23F001035367FFF78E
:100F400009FD0546244B5B6F13F0020F06D0FFF737
:100F500001FD401B0228F5D9032010E1236813F09E
:100F6000040F7DD01C4B1B6C13F0805F1ED11A4BFD
:100F70001A6C42F080521A641B6C03F08053019388
:100F8000019B0125154B1B6813F4807F10D0A368CB
:100F9000012B25D0002B3BD10F4B1A6F22F0010201
:100FA0001A671A6F22F004021A671EE00025E9E7AB
:100FB0000A4A136843F480731360FFF7CBFC0646BC
:100FC000064B1B6813F4807FE1D1FFF7C3FC801B45
:100FD0006428F5D90320D2E00038024000700040B8
:100FE0006E4A136F43F001031367A36833B3FFF72F
:100FF000B1FC0646694B1B6F13F0020F2FD1FFF7B0
:10100000A9FC801B41F288339842F3D90320B6E053
:10101000052B09D0614B1A6F22F001021A671A6F73
:1010200022F004021A67E0E75C4B1A6F42F00402F8
:101030001A671A6F42F001021A67D6E7FFF78AFCB7
:101040000646564B1B6F13F0020F08D0FFF782FCC9
:10105000801B41F288339842F3D903208FE0FDB919
:10106000A369002B00F08A804C4A926802F00C02BF
:10107000082A58D0022B19D0484A136823F08073ED
:101080001360FFF767FC0446444B1B6813F0007FB6
:1010900047D0FFF75FFC001B0228F5D903206EE064
:1010A0003E4A136C23F080531364D9E73B4A13681C
:1010B00023F080731360FFF74DFC0546374B1B6828
:1010C00013F0007F06D0FFF745FC401B0228F5D93E
:1010D000032054E0E369226A1343626A43EA8213FD
:1010E000A26A5208013A43EA0243E26A43EA02630F
:1010F00043F00053294A5360136843F08073136030
:10110000FFF728FC0446254B1B6813F0007F06D12F
:10111000FFF720FC001B0228F5D903202FE0002058
:101120002DE000202BE01D4A5268012B29D002F44B
:101130008003E1698B4226D102F03F03216A8B4292
:1011400023D1616A47F6C0731340B3EB811F1ED1F0
:1011500002F44031A36A5B08013BB1EB034F18D1A5
:1011600002F07062E36AB2EB036F14D1002006E074
:1011700001207047012002E0012000E0002002B0C1
:1011800070BD0120FBE70120F9E70120F7E701200E
:10119000F5E70120F3E70120F1E700BF0038024046
:1011A00008B5264B9B6803F00C03042B41D0082B99
:1011B00041D1224B5A6802F03F025B6813F4800F62
:1011C00012D01E4B5968C1F388111D480023A1FBA2
:1011D0000001FFF755F8194B5B68C3F30143013376
:1011E0005B00B0FBF3F027E0144B5868C0F38810A5
:1011F0004FEA401CBCEB000C6EEB0E0E4FEA8E1358
:1012000043EA9C634FEA8C11B1EB0C0163EB0E03D4
:10121000DB0043EA5173C90011EB000C43F10003FA
:10122000990200234FEA8C2041EA9C51FFF728F8ED
:10123000D1E7034800E0034808BD00BF0038024082
:1012400040787D010024F400002800F0A08070B5F3
:101250000D460446524B1B6803F00F038B420BD222
:101260004F4A136823F00F030B431360136803F016
:101270000F038B4240F08D80236813F0020F17D0CC
:1012800013F0040F04D0474A936843F4E05393608B
:10129000236813F0080F04D0424A936843F4604374
:1012A0009360404A936823F0F003A1680B43936076
:1012B000236813F0010F31D06368012B20D0022B7B
:1012C00025D0384A126812F0020F64D035498A6876
:1012D00022F0030213438B60FFF73CFB0646314BC1
:1012E0009B6803F00C036268B3EB820F16D0FFF724
:1012F00031FB801B41F288339842F0D9032045E04E
:10130000284A126812F4003FE0D101203EE0254A4D
:10131000126812F0007FD9D1012037E0204B1B6802
:1013200003F00F03AB420AD91D4A136823F00F03E1
:101330002B431360136803F00F03AB422DD12368D6
:1013400013F0040F06D0174A936823F4E053E168C2
:101350000B439360236813F0080F07D0114A93687A
:1013600023F46043216943EAC1039360FFF718FF48
:101370000C4B9B68C3F303130B4AD35CD8400B4B55
:1013800018600B4B1868FFF743F9002070BD01206F
:1013900070470120FAE70120F8E70120F6E700BFD7
:1013A000003C024000380240DC5E000800000020E3
:1013B00008000020014B1868704700BF00000020A3
:1013C00008B5FFF7F7FF044B9B68C3F38223034A7A
:1013D000D35CD84008BD00BF00380240D45E00088E
:1013E00008B5FFF7E7FF044B9B68C3F34233034A9A
:1013F000D35CD84008BD00BF00380240D45E00086E
:101400000F2303600B4B9A6802F0030242609A6854
:1014100002F0F00282609A6802F4E052C2609B68B7
:10142000DB0803F4E0530361034B1B6803F00F0375
:101430000B60704700380240003C0240F0B583B0BA
:101440000446066816F001060DD0A74B9A6822F4F0
:1014500000029A609A68416B0A439A60436B002BC2
:1014600000F039810026256815F4002511D09E4A28
:10147000D2F88C3023F44013E16B0B43C2F88C306C
:10148000E36BB3F5801F00F02881002B00F027816B
:101490000025236813F4801F0FD0934AD2F88C30B4
:1014A00023F44003216C0B43C2F88C30236CB3F55A
:1014B000800F00F0168103B90125236813F0807FA7
:1014C00000D0012613F0200F40F01081236813F0A4
:1014D000100F0CD0844BD3F88C2022F08072C3F80C
:1014E0008C20D3F88C20A16B0A43C3F88C2023688E
:1014F00013F4804F08D07C4AD2F8903023F4403364
:10150000616E0B43C2F89030236813F4004F08D08B
:10151000754AD2F8903023F44023A16E0B43C2F8F1
:101520009030236813F4803F08D06F4AD2F890308F
:1015300023F44013E16E0B43C2F89030236813F498
:10154000003F08D0684AD2F8903023F44003216F5E
:101550000B43C2F89030236813F0400F08D0624A62
:10156000D2F8903023F00303616C0B43C2F8903043
:10157000236813F0800F08D05B4AD2F8903023F034
:101580000C03A16C0B43C2F89030236813F4807FE6
:1015900008D0554AD2F8903023F03003E16C0B4369
:1015A000C2F89030236813F4007F08D04E4AD2F876
:1015B000903023F0C003216D0B43C2F890302368B4
:1015C00013F4806F08D0484AD2F8903023F4407367
:1015D000616D0B43C2F89030236813F4006F08D09C
:1015E000414AD2F8903023F44063A16D0B43C2F816
:1015F0009030236813F4805F08D03B4AD2F89030D3
:1016000023F44053E16D0B43C2F89030236813F488
:10161000005F08D0344AD2F8903023F44043216E62
:101620000B43C2F89030236813F4800F08D02E4A81
:10163000D2F8903023F08063A16F0B43C2F8903052
:10164000236813F4001F0DD0274AD2F8903023F0FE
:101650000063E16F0B43C2F89030E36FB3F1006FAA
:1016600000F0AA80236813F0080F00D0012513F4BE
:10167000802F08D01C4AD2F8903023F04073616F5D
:101680000B43C2F89030236813F4000F09D0164AB8
:10169000D2F8903023F08053D4F880100B43C2F876
:1016A000903026B9236813F0007F00F005810E4AC0
:1016B000136823F080631360FFF74CF906460A4B6A
:1016C0001B6813F0006F79D0FFF744F9801B642882
:1016D000F5D90320F3E00126C5E60126D5E601256C
:1016E000D7E60126E7E600BF003802407F4B1A6CC0
:1016F00042F080521A641B6C03F080530193019BEB
:101700007B4A136843F480731360FFF723F907469D
:10171000774B1B6813F4807F06D1FFF71BF9C01BC2
:101720006428F5D90320CAE0704B1B6F13F4407393
:1017300015D0226B02F440729A4210D06B4B1A6F94
:1017400022F44072196F41F480311967196F21F446
:10175000803119671A671B6F13F0010F12D1236BC9
:1017600003F44072B2F5407F1DD0604A936823F4C1
:10177000F81393605D490B6F226BC2F30B021343A6
:101780000B67A3E6FFF7E6F80746584B1B6F13F00D
:10179000020FE4D1FFF7DEF8C01B41F28833984214
:1017A000F3D903208BE05148826822F4F8125149A2
:1017B00019400A438260DDE7012553E7236813F0EF
:1017C000010F13D0636B8BB9484AD2F88430D2F83A
:1017D0008410606803F4403343EA801301F07061C1
:1017E0000B43A16843EA0173C2F88430236813F401
:1017F000002F03D0E26BB2F5801F06D013F4801FD8
:101800001ED0236CB3F5800F1AD1384AD2F8843039
:10181000D2F88410606803F4403343EA8013E06830
:1018200043EA006301F0E0410B43C2F88430D2F890
:101830008C3023F01F03616A01390B43C2F88C30EE
:10184000236813F0807F11D0284AD2F88400D2F8A0
:101850008410666823691B0443EA861300F07060F5
:10186000034301F0E0410B43C2F88430236813F0D6
:10187000007F0DD0626823691B0443EA8213E2688B
:1018800043EA0263A26843EA0273184AC2F884304A
:10189000164A136843F080631360FFF75BF806464F
:1018A000124B1B6813F0006F06D1FFF753F8801B33
:1018B0006428F5D9032002E0012D02D0002003B0F6
:1018C000F0BD0A4A136823F080531360FFF742F813
:1018D0000546064B1B6813F0005F0DD0FFF73AF882
:1018E000401B6428F5D90320E9E700BF0038024017
:1018F00000700040FFFCFF0F236813F4002F01D09D
:10190000E26B22B113F4801F1DD0236CDBB9354A82
:10191000D2F88830D2F88810606903F4403343EA83
:101920008013A06943EA006301F0E0410B43C2F871
:101930008830D2F88C3023F4F853A16A013943EA95
:101940000123C2F88C30236813F4001F03D0E36F27
:10195000B3F1006F31D0236813F0080F19D0214A7A
:10196000D2F88810D2F88830606903F4403343EA33
:10197000801301F070610B43E16943EA0173C2F81F
:101980008830D2F88C3023F44033E16A0B43C2F83C
:101990008C30144A136843F080531360FEF7DAFF6B
:1019A0000446104B1B6813F0005F19D1FEF7D2FFFD
:1019B000001B6428F5D9032081E70A4AD2F8880081
:1019C000D2F888106569236A1B0443EA851300F086
:1019D0007060034301F0E0410B43C2F88830BAE77E
:1019E00000206CE70038024010B4036A046A24F057
:1019F00001040462846924F0F00C4CEA021223F022
:101A00000A030B43826103625DF8044B704710B414
:101A1000036A23F0100303628469036A24F4704CA0
:101A20004CEA023223F0A00343EA0113826103620D
:101A30005DF8044B7047836823F070030B4343F059
:101A4000070383607047000090F83D30DBB2012B44
:101A500035D1022380F83D3003681B4AB3F1804F33
:101A600018BF93421DD0A2F57C42934219D002F5D3
:101A70008062934215D002F58062934211D002F544
:101A8000784293420DD002F57052934209D0A2F5EC
:101A90009432934205D01A6842F001021A60002085
:101AA00070479968094A0A40062A18BFB2F5803F74
:101AB00007D01A6842F001021A6000207047012026
:101AC00070470020704700BF000001400700010080
:101AD00090F83D30DBB2012B3AD1022380F83D3043
:101AE0000268D36843F00103D36003681A4AB3F174
:101AF000804F18BF93421DD0A2F57C42934219D06B
:101B000002F58062934215D002F58062934211D0B3
:101B100002F5784293420DD002F57052934209D0FB
:101B2000A2F59432934205D01A6842F001021A607D
:101B3000002070479968094A0A40062A18BFB2F582
:101B4000803F07D01A6842F001021A6000207047F7
:101B5000012070470020704700000140070001008D
:101B6000704770477047704710B5044603681A699C
:101B700012F0020F11D0DA6812F0020F0DD06FF0E0
:101B800002021A610123037703689B6913F0030FB4
:101B900079D0FFF7E6FF0023237723681A6912F054
:101BA000040F12D0DA6812F0040F0ED06FF00402A6
:101BB0001A610223237723689B6913F4407F68D05E
:101BC0002046FFF7CEFF0023237723681A6912F01F
:101BD000080F12D0DA6812F0080F0ED06FF008026A
:101BE0001A61042323772368DB6913F0030F57D0AE
:101BF0002046FFF7B6FF0023237723681A6912F007
:101C0000100F12D0DA6812F0100F0ED06FF0100221
:101C10001A61082323772368DB6913F4407F46D0D9
:101C20002046FFF79EFF0023237723681A6912F0EE
:101C3000010F03D0DA6812F0010F3FD123681A694F
:101C400012F0800F03D0DA6812F0800F3DD12368C4
:101C50001A6912F4807F03D0DA6812F0800F3BD14A
:101C600023681A6912F0400F03D0DA6812F0400FAF
:101C700039D123681A6912F0200F03D0DA6812F004
:101C8000200F37D110BDFFF76BFF2046FFF76AFF2B
:101C900081E72046FFF764FF2046FFF763FF92E7E6
:101CA0002046FFF75DFF2046FFF75CFFA3E72046D5
:101CB000FFF756FF2046FFF755FFB4E76FF001022C
:101CC0001A612046FEF7EAFBB8E76FF080021A615E
:101CD000204600F0AEF9BAE76FF480721A61204630
:101CE00000F0A8F9BCE76FF040021A612046FFF748
:101CF0003AFFBEE76FF020021A61204600F098F923
:101D0000C0E7000030B503683B4A904214BF4FF073
:101D1000000E4FF0010EB0F1804F14BF72464EF02E
:101D20000102AAB9354CA04214BF00240124344D4D
:101D3000A8420DD064B904F1804404F58234A04275
:101D400014BF0024012405F50065A84200D01CB191
:101D500023F070034C682343002A33D1274A904272
:101D600014BF00220122264CA0422BD052BB02F10C
:101D7000804202F58232904214BF0022012204F513
:101D80000064A0421ED0EAB91E4A904214BF00224D
:101D9000012204F59A34A04214D09AB91A4A90420A
:101DA00014BF0022012204F50064A0420AD04AB9FF
:101DB000164A904214BF00220122A4F59634A04294
:101DC00000D022B123F4407CCB6843EA0C0323F01B
:101DD00080034A69134303608A68C2620A688262A8
:101DE0000B4A904214BF73464EF001030BB10B69CE
:101DF00003630123436130BD00000140000800403F
:101E00000004004000440140001800400020004051
:101E10000004014060B310B5044690F83D3013B3A0
:101E2000022384F83D30214651F8040BFFF76AFF86
:101E3000012384F8483084F83E3084F83F3084F839
:101E4000403084F8413084F8423084F8433084F8DC
:101E5000443084F8453084F8463084F8473084F8BC
:101E60003D30002010BD80F83C30FEF7C7FCD7E7BE
:101E70000120704710B4846824F47F4C42EA0322A6
:101E80000A4342EA0C0282605DF8044B704700008E
:101E900090F83C30012B76D010B50446012380F831
:101EA0003C30022380F83D3002689068374B034095
:101EB00093600B68602B4CD029D8402B54D00CD9A0
:101EC000502B22D1CA6849682068FFF78DFD502148
:101ED0002068FFF7B0FD002005E0202B0DD009D9C8
:101EE000302B0AD00120012384F83D30002384F8F0
:101EF0003C3010BD0BB1102B05D119462068FFF7FF
:101F00009AFD0020EFE70120EDE70120EBE7B3F5B4
:101F1000805F34D0B3F5005F0CD1CB684A68896824
:101F20002068FFF7A7FF2268936843F4804393601B
:101F30000020D8E7702B24D1CB684A6889682068D4
:101F4000FFF798FF2268936843F0770393600020BF
:101F5000C9E7CA6849682068FFF759FD6021206811
:101F6000FFF769FD0020BEE7CA6849682068FFF7EF
:101F70003BFD40212068FFF75EFD0020B3E7002015
:101F8000B1E70120AFE70220704700BF8800FEFFE5
:101F900090F83C20012A45D070B40346012280F815
:101FA0003C20022280F83D200268506894681E4E52
:101FB0001E4DAA4218BFB24203D120F470004D68F2
:101FC000284320F070000D68284350601A681648B6
:101FD000B2F1804F18BF824217D0A0F57C408242F8
:101FE00013D000F5806082420FD000F580608242FD
:101FF0000BD000F57840824207D000F57050824245
:1020000003D0A0F59430824204D124F08004896882
:1020100021439160012283F83D20002083F83C0099
:1020200070BC70470220704700000140000401406E
:10203000704770477047026852E8003F23F490737E
:1020400042E800310029F6D1026802F1080353E8A2
:10205000003F23F00103083242E800310029F3D1A8
:10206000036E012B06D02023C0F8803000230366C6
:1020700083667047026852E8003F23F0100342E88D
:1020800000310029F6D1EEE7704708B5026852E842
:10209000003F23F0400342E800310029F6D120231D
:1020A000C3670023C366FFF7EFFF08BD704708B59D
:1020B000806B0023A0F85A30A0F85230FFF7F6FFEB
:1020C00008BD704738B504460268D3691068916846
:1020D00040F60F0C13EA0C0F0AD113F0200F0DD0AD
:1020E00010F0200F0AD0A36ED3B12046984717E016
:1020F00011F0010115D1A44D284212D1216E012900
:1021000000F09D8013F0800F03D010F0800F40F09E
:10211000308113F0400F03D010F0400F40F03081B9
:1021200038BD13F0010F09D010F4807F06D00125CF
:102130001562D4F884202A43C4F8842013F0020FD7
:1021400009D041B1226802251562D4F8842042F0FA
:102150000402C4F8842013F0040F09D041B12268AE
:1021600004251562D4F8842042F00202C4F88420C9
:1021700013F0080F0BD010F0200F00D139B12268F6
:1021800008211162D4F884200A43C4F8842013F48F
:10219000006F0CD010F0806F09D022684FF40061FE
:1021A0001162D4F8842042F02002C4F88420D4F8CC
:1021B0008420002AB4D013F0200F06D010F0200F96
:1021C00003D0A36E0BB120469847D4F8842023682F
:1021D0009B6813F0400F02D112F0280F28D0204640
:1021E000FFF729FF23689B6813F0400F1CD022687B
:1021F00002F1080353E8003F23F04003083242E8AD
:1022000000310029F3D1636F53B1604A1A65606FE2
:10221000FEF752FC002883D0606F036D98477FE77C
:102220002046FFF743FF7BE72046FFF73FFF77E7B6
:102230002046FFF73BFF0023C4F8843070E713F01B
:10224000100F3FF45FAF10F0100F3FF45BAF10239F
:10225000136223689B6813F0400F50D0626F1368BD
:102260005B689BB2002B3FF45BAFB4F85810994207
:102270007FF656AFA4F85A30D369B3F5807F31D0DA
:10228000226852E8003F23F4807342E800310029BD
:10229000F6D1226802F1080353E8003F23F001035E
:1022A000083242E800310029F3D1226802F1080324
:1022B00053E8003F23F04003083242E80031002990
:1022C000F3D12023C4F8803000232366226852E82B
:1022D000003F23F0100342E800310029F6D1606F7F
:1022E000FEF7A0FB02236366B4F85810B4F85A3026
:1022F0009BB2C91A89B22046FFF7E3FE10E7B4F893
:102300005810B4F85A309BB2C91A89B2B4F85A308E
:102310009BB2002B3FF404AF00293FF401AF2268C9
:1023200052E8003F23F4907342E800300028F6D1D1
:10233000226802F1080353E8003F23F0010308324A
:1023400042E800300028F3D12023C4F88030002375
:102350002366A366226852E8003F23F0100342E898
:1023600000300028F6D1022363662046FFF7A9FE5D
:10237000D6E6E36E002B3FF4D3AE20469847CFE677
:102380002046FFF782FECBE620010004AF200008C4
:1023900008B5B0F85C30D0F88020222A05D0026859
:1023A000936943F00803936108BD0268516ADBB288
:1023B000426D0B401370436D01334365B0F85A30E2
:1023C0009BB2013B9BB2A0F85A30B0F85A309BB296
:1023D000002BE9D1026852E8003F23F4907342E8F1
:1023E00000310029F6D1026802F1080353E8003FEA
:1023F00023F00103083242E800310029F3D1202301
:10240000C0F88030002383664366036E012B16D12B
:1024100000230366026852E8003F23F0100342E8FD
:1024200000310029F6D10368DA6912F0100F01D0EB
:1024300010221A62B0F85810FFF743FEB4E7FEF717
:1024400021F8B1E708B5B0F85C20D0F88030222B35
:1024500005D00268936943F00803936108BD0368DF
:102460005B6A416D13400B80436D02334365B0F8E6
:102470005A309BB2013B9BB2A0F85A30B0F85A30A8
:102480009BB2002BEAD1026852E8003F23F490731C
:1024900042E800310029F6D1026802F1080353E84E
:1024A000003F23F00103083242E800310029F3D154
:1024B0002023C0F88030002383664366036E012B1F
:1024C00016D100230366026852E8003F23F0100390
:1024D00042E800310029F6D10368DA6912F0100FE2
:1024E00001D010221A62B0F85810FFF7EAFDB5E7E4
:1024F000FDF7C8FFB2E7000010B504468368026923
:10250000134342691343C269134301680868934A3D
:1025100002401A430A602268536823F44053E1687A
:102520000B435360A269236A1A4321688B6823F422
:10253000306313438B602368894A934219D0894AD8
:10254000934229D0884A93423ED0884A934262D02F
:10255000874A934271D0874A934200F08380864A2B
:10256000934200F09480854A934200F0A5801023A6
:102570003AE0834BD3F8903003F00303032B09D8E0
:10258000DFE803F00204AE0601232DE004232BE074
:10259000082329E0102327E0794BD3F8903003F08B
:1025A0000C030C2B0ED8DFE803F0070D0D0D090D01
:1025B0000D0D9D0D0D0D0B00002315E0042313E000
:1025C000082311E010230FE06D4BD3F8903003F097
:1025D0003003202B00F0888019D8002B00F0868073
:1025E000102B40F085800423E069B0F5004F00F027
:1025F000AB80082B00F20C81DFE813F0E800FB0051
:10260000E6000A01FE000A010A010A010101302B5D
:1026100070D10823E8E75A4BD3F8903003F0C00399
:10262000802B69D005D8002B68D0402B68D10423BB
:10263000DAE7C02B66D10823D6E7514BD3F89030A8
:1026400003F44073B3F5007F5ED006D8002B5DD055
:10265000B3F5807F5CD10423C6E7B3F5407F59D141
:102660000823C1E7464BD3F8903003F44063B3F539
:10267000006F51D006D8002B50D0B3F5806F4FD1EA
:102680000423B1E7B3F5406F4CD10823ACE73C4BD2
:10269000D3F8903003F44053B3F5005F44D006D82C
:1026A000002B43D0B3F5805F42D104239CE7B3F500
:1026B000405F3FD1082397E7314BD3F8903003F4C4
:1026C0004043B3F5004F37D005D8BBB3B3F5804FC7
:1026D00036D1042388E7B3F5404F33D1082383E78D
:1026E000022381E702237FE702237DE700237BE7C4
:1026F000102379E7102377E7022375E7002373E7B8
:10270000102371E710236FE702236DE700236BE7C7
:10271000102369E7102367E7022365E7012363E7D6
:10272000102361E710235FE702235DE700235BE7E7
:10273000102359E7102357E7022355E7002353E7F7
:10274000102351E710234FE7082B5BD8DFE803F095
:102750001A343A5A375A5A5A1E0000BFF369FFEF2B
:10276000001001400044004000480040004C004080
:10277000005000400014014000780040007C004000
:1027800000380240FEF71CFE00283DD06268530866
:1027900003EB4003B3FBF2F3A3F110014FF6EF722A
:1027A000914233D89AB222F00F02C3F3420313438B
:1027B0002268D360002030E0FEF712FEE4E7FEF767
:1027C000EFFCE1E71748E1E7164802E0FEF7F8FD05
:1027D00000B3636800EB5300B0FBF3F0A0F110020C
:1027E0004FF6EF739A4217D8236880B2D860002062
:1027F00013E0FEF7F5FDEBE7FEF7D2FCE8E74FF458
:102800000040E6E7012008E0002006E0012004E0A7
:10281000012002E0002000E001200023A366E3661F
:1028200010BD00BF0024F400436A13F0010F06D06E
:102830000268536823F40033816A0B435360436A90
:1028400013F0020F06D00268536823F48033C16A84
:102850000B435360436A13F0040F06D002685368B9
:1028600023F48023016B0B435360436A13F0080F7A
:1028700006D00268536823F40043416B0B43536056
:10288000436A13F0100F06D00268936823F4805354
:10289000816B0B439360436A13F0200F06D00268EC
:1028A000936823F40053C16B0B439360436A13F0A6
:1028B000400F0AD00268536823F48013016C0B4365
:1028C0005360036CB3F5801F0BD0436A13F0800F85
:1028D00006D00268536823F40023816C0B435360D5
:1028E00070470268536823F4C003416C0B43536084
:1028F000EBE72DE9F84305460F4616469946DDF805
:1029000020802B68DC6937EA04040CBF0124002412
:10291000B44255D1B8F1FF3FF3D0FEF71BF8A0EB5E
:10292000090040452ED8B8F1000F2BD02B681A684B
:1029300012F0040FE5D0DA6912F4006FE1D04FF421
:1029400000621A622A6852E8003F23F4D07342E81A
:1029500000310029F6D12A6802F1080353E8003F4C
:1029600023F00103083242E800310029F3D120238B
:10297000EB67C5F88030C5F88430002385F87830DF
:1029800003201EE02A6852E8003F23F4D07342E897
:1029900000310029F6D12A6802F1080353E8003F0C
:1029A00023F00103083242E800310029F3D120234B
:1029B000EB67C5F88030002385F87830032000E00D
:1029C0000020BDE8F8832DE9F04182B01E46C36FB8
:1029D000202B4ED104460D469046002A18BF0029F0
:1029E00001D1012046E00023C0F884302123C367D1
:1029F000FDF7B0FF0746A4F85080A4F85280A36802
:102A0000B3F5805F02D04FF0000811E0236913B3E3
:102A10004FF000080CE038F8023B2268C3F30803CB
:102A20009362B4F8522092B2013A92B2A4F85220C2
:102A3000B4F852309BB28BB100963B460022802105
:102A40002046FFF756FFC0B9002DE4D015F8012B42
:102A500023689A62E5E7A8460025E9E700963B4629
:102A6000002240212046FFF744FF40B92023E367BE
:102A700000E0022002B0BDE8F0810320FAE7032065
:102A8000F8E710B582B004460023C0F88430FDF7A3
:102A900061FF23681B6813F0080F0AD12023E36746
:102AA000C4F8803000202066606684F8780002B0A8
:102AB00010BD6FF07E430093034600224FF40011D7
:102AC0002046FFF716FF0028E8D00320EFE768B3A1
:102AD00010B50446C36F03B32423E3672268136869
:102AE00023F0010313602046FFF706FD012813D0F1
:102AF000636ABBB92268536823F490435360226829
:102B0000936823F02A0393602268136843F001035B
:102B100013602046FFF7B5FF10BD80F87830FDF751
:102B20009DFED9E72046FFF77FFEE3E701207047CF
:102B30004165A0F85820A0F85A20002383668368D6
:102B4000B3F5805F06D0A3B9036973B9FF23A0F87A
:102B50005C3014E0036923B940F2FF13A0F85C3045
:102B60000DE0FF23A0F85C3009E07F23A0F85C3083
:102B700005E0B3F1805F27D00023A0F85C3000238C
:102B8000C0F884302223C0F88030026802F10803C4
:102B900053E8003F43F00103083242E800310029C6
:102BA000F3D18368B3F5805F18D0144B8366036953
:102BB000D3B1026852E8003F43F4907342E8003119
:102BC0000029F6D10020704703691BB97F23A0F8C4
:102BD0005C30D4E73F23A0F85C30D0E70369002BDA
:102BE000E3D1074B8366E2E7026852E8003F43F017
:102BF000200342E800310029F6D1E3E791230008E1
:102C00004524000838B5D0F88030202B16D1002A92
:102C100018BF002914D00023036603685B6813F40F
:102C2000000F08D0046854E8003F43F0806344E894
:102C30000035002DF6D1FFF77BFF00E0022038BD04
:102C40000120FCE7842801D0033070470020704742
:102C500008B500F0C1FF002008BD2DE9F04387B0A2
:102C60000E464469C4B18569B5B14768D0F80080A3
:102C7000D0F81090B0F90800FFF7E4FF0295019436
:102C8000009033464A464146384600F0EAFE059039
:102C9000059807B0BDE8F083446805680769B0F996
:102CA0000800FFF7CFFF05AB019300903346BAB29F
:102CB0002946204600F016FF0128E9D00020E8E769
:102CC00008B500B9012001F0D9F8002008BD00F1D5
:102CD000080343604FF0FF328260C360036100234A
:102CE0000360704700230361704743684B609A6834
:102CF0008A6051609960086103680133036070471E
:102D000030B40D68B5F1FF3F11D000F108031C4647
:102D10005B681A68AA42FAD963684B6099608C6054
:102D20006160086103680133036030BC7047046967
:102D3000F2E70369416882688A60416851605A68B5
:102D4000824206D0002202611A68013A1A601868AD
:102D5000704782685A60F5E782B0002301930F4BF9
:102D60001B68B3F1FF3F0AD04FF0500372B683F3F4
:102D70001188BFF36F8FBFF34F8F62B6FEE74FF03E
:102D8000500372B683F31188BFF36F8FBFF34F8F79
:102D900062B6019B002BFCD002B070470C000020F3
:102DA00008480068006880F308884FF0000080F34E
:102DB000148862B661B6BFF34F8FBFF36F8F00DF29
:102DC00000BF000008ED00E0DFF80C00016841F4EE
:102DD000700101607047000088ED00E04FF08073E3
:102DE00040F8043C21F0010140F8081C054B40F874
:102DF0000C3C40F8202C6FF0020340F8243C44388F
:102E0000704700BF592D00080000000000000000BE
:102E1000074B19680868B0E8F04F80F30988BFF3E2
:102E20006F8F4FF0000080F311887047AFF3008080
:102E3000206B00204FF0500372B683F31188BFF36C
:102E40006F8FBFF34F8F62B60C4A13680133136064
:102E5000012B00D070474FF0E023D3F8043D13F06E
:102E6000FF0FF7D04FF0500372B683F31188BFF312
:102E70006F8FBFF34F8F62B6FEE700BF0C000020DC
:102E80000A4B1B6853B94FF0500372B683F3118895
:102E9000BFF36F8FBFF34F8F62B6FEE7013B034A6C
:102EA00013600BB983F31188704700BF0C0000203A
:102EB000EFF30980BFF36F8F154B1A681EF0100FE8
:102EC00008BF20ED108A20E9F04F10602DE90900BD
:102ED0004FF0500072B680F31188BFF34F8FBFF3ED
:102EE0006F8F62B600F0F2FF4FF0000080F31188A0
:102EF00009BC19680868B0E8F04F1EF0100F08BF51
:102F0000B0EC108A80F30988BFF36F8F704700BF61
:102F1000206B002008B54FF0500372B683F3118880
:102F2000BFF36F8FBFF34F8F62B600F09BFE28B1E7
:102F30004FF0E0234FF08052C3F8042D002383F3B9
:102F4000118808BD4FF0E022002313619361054B07
:102F50001B680549A1FB03139B09013B5361072330
:102F60001361704700000020D34D621030B583B06C
:102F70002F4B1A78D2B20192FF221A701B78DBB263
:102F80008DF803309DF8033003F05003294A137085
:102F9000294B07221A6009E0274A1368013B136096
:102FA0009DF803305B00DBB28DF803309DF80330F1
:102FB00013F0800FF0D1204B1B68032B0AD04FF089
:102FC000500372B683F31188BFF36F8FBFF34F8F37
:102FD00062B6FEE71B02184A136003F4E063136055
:102FE000019BDBB2124A13704FF0E024D4F8203D6D
:102FF00043F47003C4F8203DD4F8203D43F07043FF
:10300000C4F8203DFFF79EFF00250C4B1D60FFF725
:10301000DBFED4F8343F43F04043C4F8343FFFF7BD
:10302000BFFE00F053FFFFF797FE284603B030BD08
:1030300000E400E02C080020280800200C000020FC
:10304000EFF305830F2B11D9134A9B5CDBB2134AB4
:1030500012789A420AD94FF0500372B683F311885E
:10306000BFF36F8FBFF34F8F62B6FEE74FF0E023E1
:10307000D3F80C3D03F4E063094A126893420AD97D
:103080004FF0500372B683F31188BFF36F8FBFF315
:103090004F8F62B6FEE77047F0E300E02C08002097
:1030A00028080020134A12F0070F1FD0D11D21F06D
:1030B000070146F2A8135B1A13440A460E48026041
:1030C000002141601344083B23F007030B480360D1
:1030D00059601960991A51601360094B1960094BC6
:1030E0001960094B4FF000421A60704746F2A8136E
:1030F000E4E700BF48080020400800203C0800200A
:10310000340800203808002030080020164B1A46EA
:103110001B688342FBD3516802EB010C844509D044
:10312000416800EB010C634509D00360904219D05F
:10313000106070474068014451601046F0E710B4D9
:103140000A4C2468A3420BD05B68194441601368A1
:103150001B680360904200D010605DF8044B70471C
:103160000460F7E7704700BF400800203C080020DB
:1031700038B5044600F06EFD384B1B68B3B1384BD0
:103180001B681C424ED1002C4ED004F1080214F0F2
:10319000070F02D022F007020832002A55D0314B27
:1031A0001B68934253D330490C6804E0FFF77AFF61
:1031B000E5E721461C466368934202D22368002B50
:1031C000F7D1264B1B68A34243D00D68083523680E
:1031D0000B6063689B1A102B12D9A01810F0070F10
:1031E0000AD04FF0500372B683F31188BFF36F8F8C
:1031F000BFF34F8F62B6FEE743606260FFF786FF62
:10320000626818490B689B1A0B60184909688B4261
:1032100001D216490B60124B1B68134363600023F5
:10322000236002E0002500E0002500F0A9FD15F074
:10323000070F10D04FF0500372B683F31188BFF31D
:103240006F8FBFF34F8F62B6FEE70025EDE70025D5
:10325000EBE70025E9E7284638BD00BF3C08002021
:1032600030080020380800204008002034080020E2
:10327000002834D038B50446A0F1080550F8043CC5
:10328000174A126813420AD14FF0500372B683F303
:103290001188BFF36F8FBFF34F8F62B6FEE750F810
:1032A000081C51B14FF0500372B683F31188BFF37D
:1032B0006F8FBFF34F8F62B6FEE723EA020340F839
:1032C000043C00F0C7FC54F8041C064A13680B4485
:1032D00013602846FFF71AFF00F052FD38BD704713
:1032E00030080020380800200346406A18B11B6BE4
:1032F0001868C0F10700704710B50446FFF79AFD43
:10330000A36B23B90124FFF7BBFD204610BD0024A9
:10331000F9E738B50546FFF78DFD95F8454064B2ED
:1033200001E0013C64B2002C0ADD6B6A43B105F197
:10333000240000F061FE0028F3D000F0F7FEF0E773
:10334000FF2385F84530FFF79BFDFFF773FD95F8E8
:10335000444064B201E0013C64B2002C0ADD2B69F8
:1033600043B105F1100000F047FE0028F3D000F053
:10337000DDFEF0E7FF2385F84430FFF781FD38BD1F
:1033800038B5E0B10D460446FFF754FD2368E26B03
:10339000216C01FB0230A0600020A0636360013A51
:1033A00002FB0133E360FF2384F8443084F84530A6
:1033B0000DBB236973B9FFF763FD012038BD4FF0E2
:1033C000500372B683F31188BFF36F8FBFF34F8F33
:1033D00062B6FEE704F1100000F00EFE0028EAD00D
:1033E0004FF0E0234FF08052C3F8042DBFF34F8F0E
:1033F000BFF36F8FDFE704F11000FFF768FC04F103
:103400002400FFF764FCD6E738B51D46049C0B4644
:1034100049B92460E063236401212046FFF7B0FF2F
:1034200084F84C5038BD2260F4E750B94FF0500397
:1034300072B683F31188BFF36F8FBFF34F8F62B6FD
:10344000FEE7F0B583B00C4615460746A1B101FB77
:1034500000F05030FFF78CFE064650B1002380F894
:10346000463000902B4600F1500221463846FFF7C7
:10347000CBFF304603B0F0BD0846EAE778B170B53F
:103480000C460546036CABB14FF0500372B683F3A4
:103490001188BFF36F8FBFF34F8F62B6FEE74FF017
:1034A000500372B683F31188BFF36F8FBFF34F8F52
:1034B00062B6FEE70368FBB1FFF7C2FDEFF31186CA
:1034C0004FF0500372B683F31188BFF36F8FBFF3D1
:1034D0004F8F62B6AA6BEB6B934228D995F84530B3
:1034E0005BB20132AA63B3F1FF3F13D001335BB289
:1034F00085F8453001201BE08368002BDCD04FF0BD
:10350000500372B683F31188BFF36F8FBFF34F8FF1
:1035100062B6FEE76B6A0BB9012009E005F12400F1
:1035200000F06AFD38B144B10120206000E00020C5
:1035300086F3118870BD0120FAE70120F8E770B525
:1035400084B0019168B10446036CABB14FF05003F5
:1035500072B683F31188BFF36F8FBFF34F8F62B6DC
:10356000FEE74FF0500372B683F31188BFF36F8FFD
:10357000BFF34F8F62B6FEE700F0A2FE054660B9CA
:10358000019B6BB14FF0500372B683F31188BFF308
:103590006F8FBFF34F8F62B6FEE70026354657E0C8
:1035A000064655E0013BA36323683BB123694BB951
:1035B000FFF766FC0126304604B070BD00F09EFFA8
:1035C000A060F3E704F1100000F016FD0028EFD032
:1035D0004FF0E0234FF08052C3F8042DBFF34F8F1C
:1035E000BFF36F8FE4E756B14FF0500372B683F329
:1035F0001188BFF36F8FBFF34F8F62B6FEE7FFF7FF
:103600003FFCD8E702A800F03FFD01252AE0002397
:1036100084F8443032E0002384F8453034E0FFF78A
:1036200009FCA06800F05CFE0646FFF729FC3BE0C1
:103630002046FFF76EFE00F0A3FB09E02046FFF7EF
:1036400068FE00F09DFB2046FFF756FE002842D1A1
:10365000FFF7F0FBA36B002BA4D1019B002BC2D082
:10366000002DCFD0FFF70CFC00F0F4FAFFF7E2FBDF
:1036700094F844305BB2B3F1FF3FC8D094F84530C2
:103680005BB2B3F1FF3FC6D0FFF7FAFB01A902A876
:1036900000F006FD0028D1D12046FFF72DFE0028BE
:1036A000C6D02368002BBAD0019904F1240000F0A1
:1036B00089FC2046FFF72DFE00F062FB0028C7D1F1
:1036C0004FF0E0234FF08052C3F8042DBFF34F8F2B
:1036D000BFF36F8FBCE70EB900266CE7FFF7AAFBBC
:1036E0002046FFF701FE0146A06800F055FEFFF7F7
:1036F000C7FBF1E7002301E0013001330278A52A7E
:10370000FAD0C3F38F007047084B1B681B6823B9BE
:10371000074B4FF0FF321A607047044B1B68DB68A1
:10372000DB685A68024B1A60704700BF686A002065
:10373000006A00202DE9F04780460D46174699465D
:10374000089EDDF824A00A9C9200A521206B01F0C0
:10375000B7FA236B6FF040423A4403EB820727F03D
:1037600007076764ADB34FF0000CBCF10F0F09D829
:1037700015F80C3004EB0C0282F8343013B10CF164
:10378000010CF2E7002384F84330062E00D9062608
:10379000E662266500256565201DFFF7A3FA04F1A2
:1037A0001800FFF79FFA2461C6F10706A66164625C
:1037B000A565E56584F860504A4641463846FFF7FE
:1037C0000DFB2060BAF1000F01D0CAF80040BDE83F
:1037D000F087002384F83430D7E7000038B50024A0
:1037E00007E004EB840293000E481844FFF76FFAD9
:1037F0000134062CF5D90C4D2846FFF768FA0B4C1E
:103800002046FFF764FA0A48FFF761FA0948FFF714
:103810005EFA0948FFF75BFA084B1D60084B1C6015
:1038200038BD00BF946A0020806A00206C6A0020C6
:10383000506A00203C6A0020246A0020686A002048
:10384000646A002010B50446FFF7F4FA224A1368B0
:1038500001331360214B1B685BB1214B1B686BB9B3
:103860001E4B1B68DA6AE36A9A4207D81B4B1C603E
:1038700004E01A4B1C601368012B29D0194A136805
:1038800001331360A364E06A01238340164A116880
:103890000B43136000EB8000211D144B03EB8000F1
:1038A000FFF723FAFFF7ECFA0D4B1B687BB10B4BCC
:1038B0001B68DA6AE36A9A4209D24FF0E0234FF0BC
:1038C0008052C3F8042DBFF34F8FBFF36F8F10BD2D
:1038D000FFF784FFD2E700BF206A0020206B0020A2
:1038E000146A0020046A0020186A0020946A0020EC
:1038F00010B5044690F8613073B1012B13D0022B40
:1039000010D04FF0500372B683F31188BFF36F8F5E
:10391000BFF34F8F62B6FEE7006BFFF7A9FC2046AE
:10392000FFF7A6FC10BDFFF7A3FCFBE70F4B1B68DE
:10393000D3B110B5FFF77EFA0D4BDB68DC68201DB4
:10394000FFF7F7F90B4A1368013B1360074A136846
:10395000013B1360FFF794FA2046FFF7C9FF034BC2
:103960001B68002BE6D110BD704700BF386A0020ED
:103970003C6A0020206A002008B5FFF7D7FF074BFC
:103980001B68012BF9D94FF0E0234FF08052C3F8A8
:10399000042DBFF34F8FBFF36F8FEEE7946A0020C3
:1039A00070B504460D461F4B1E681F4B1868043047
:1039B000FFF7BFF948B91C4B1B68DB6A01229A402C
:1039C0001A490B6823EA02030B60B4F1FF3F14BFEE
:1039D00000230123002D08BF00236BB93444124B90
:1039E0001B685C60A6420ED9114B18680E4B196813
:1039F0000431FFF785F970BD0B4B196804310D4890
:103A0000FFF773F9F7E70C4B1868074B1968043197
:103A1000FFF776F9094B1B68A342ECD9074B1C60F2
:103A2000E9E700BF1C6A0020206B0020186A002014
:103A3000646A0020246A0020686A0020006A00206E
:103A400010B5044601F0B7F92046FCF7C1FB02E0CF
:103A50002023235401300E28FAD900232354204474
:103A600010BD30B587B00B9C8CB10C9DD5B16425D1
:103A70000495049D642D20D04FF0500372B683F35B
:103A80001188BFF36F8FBFF34F8F62B6FEE74FF021
:103A9000500372B683F31188BFF36F8FBFF34F8F5C
:103AA00062B6FEE74FF0500372B683F31188BFF39E
:103AB0006F8FBFF34F8F62B6FEE7049D0C9D2C63A2
:103AC000022485F8614000240394029505AC01941A
:103AD0000A9C0094FFF72EFE0C98FFF7B3FE0598A2
:103AE00007B030BD2DE9F04385B00746884614463F
:103AF0001E469000FFF73CFB08B381466420FFF7A9
:103B000037FB0546A8B1C0F83090002380F861303B
:103B1000039302900D9B01930C9B00933346224626
:103B200041463846FFF706FE2846FFF78BFE012088
:103B300007E04846FFF79CFB4FF0FF3001E04FF0F5
:103B4000FF3005B0BDE8F083F8B5D0B104461D4B99
:103B50001B6883422FD0FFF76DF965691A4B1F6808
:103B60001A4B1E68FFF78CF9B54218BFBD4224D02E
:103B7000174B9D4210D0174B9D4220D0CDB1012054
:103B80001AE04FF0500372B683F31188BFF36F8FC2
:103B9000BFF34F8F62B6FEE7A36A0BB102200BE0C2
:103BA00094F86030DBB2012B01D0032004E0022046
:103BB00002E0042000E00020F8BD0220FCE7042021
:103BC000FAE700BF206B0020686A0020646A0020CA
:103BD000246A00203C6A002010B588B000240594B7
:103BE000069407AA06A905A8FCF78AFB059B029381
:103BF000069B019300942346079A10491048FFF74B
:103C000030FF104B1860B0B14FF0500372B683F321
:103C10001188BFF36F8FBFF34F8F62B60A4B4FF01F
:103C2000FF321A60094B01221A60094B1C60FCF735
:103C30001BFCFFF79BF908B010BD00BFEC5E00084D
:103C400079390008FC690020006A0020146A00200D
:103C50001C6A0020024A136801331360704700BFDA
:103C6000F8690020F8B53B4B1B68002B66D13A4B36
:103C70001D6801351D60D5B9384B1B681B6853B1F1
:103C80004FF0500372B683F31188BFF36F8FBFF309
:103C90004F8F62B6FEE7314A1168314B18681060E9
:103CA0001960304A136801331360FFF72DFD2E4B66
:103CB0001B68AB4238D900272C4B1B68DB6A03EB2F
:103CC00083039A002A4B9B58012B3CD901273AE0E9
:103CD0000127224B1B681B6843B3204B1B68DB6822
:103CE000DC6863689D4226D3261D3046FFF721F825
:103CF000A36A1BB104F11800FFF71BF8E36A012265
:103D00009A401C49086802430A6003EB83039A0047
:103D1000314617481044FEF7E8FFE26A134B1B6870
:103D2000DB6A9A42D4D2D4E70027D2E70E4B4FF099
:103D3000FF321A60C0E70C4A1360BDE70E4A1368F1
:103D40000133136000270D4B1B6803B10127384670
:103D5000F8BD00BFF86900201C6A0020686A0020D6
:103D6000646A0020086A0020006A0020206B00209E
:103D7000946A0020186A0020106A00200C6A002053
:103D800038B5364B1B6853B94FF0500372B683F306
:103D90001188BFF36F8FBFF34F8F62B6FEE7FFF757
:103DA00049F82E4B1A68013A1A601B68002B4FD154
:103DB0002B4B1B680BB900244BE00024294B1B68DC
:103DC0001BB3284BDB68DC6804F11800FEF7B1FF79
:103DD000251D2846FEF7ADFFE06A01238340224AF5
:103DE00011680B43136000EB800029461F4B03EB67
:103DF0008000FEF77AFFE26A1D4B1B68DB6A9A427D
:103E0000DCD31C4B01221A60D8E70CB1FFF77CFC15
:103E1000194B1C6884B9174B1C68D4B14FF0E023D0
:103E20004FF08052C3F8042DBFF34F8FBFF36F8F55
:103E300001240EE0013C07D0FFF714FF0028F9D061
:103E40000C4B01221A60F5E70B4B00221A60E2E7E7
:103E50000024FFF715F8204638BD00BFF8690020A0
:103E6000206A0020506A0020186A0020946A00200E
:103E7000206B00200C6A0020106A002010B5B8B139
:103E80000446114B1B6853B14FF0500372B683F3D5
:103E90001188BFF36F8FBFF34F8F62B6FEE7FFF756
:103EA000D9FE00212046FFF77BFDFFF769FF48B9E7
:103EB0004FF0E0234FF08052C3F8042DBFF34F8F33
:103EC000BFF36F8F10BD00BFF869002008B5364BF7
:103ED0001B681BB1354B01221A6008BD334B002211
:103EE0001A60FCF7C9FA324B1860324B1B689842D3
:103EF00005D9314A11688A6DC31A1A448A652D4B57
:103F000018602D4B1B681B6B1A68B2F1A53F03D1DB
:103F10005A68B2F1A53F1DD0274B18681968343193
:103F2000FCF79AFA254B1B68B3FA83F3DBB2C3F1B3
:103F30001F0303EB8302920021498A589AB94FF07C
:103F4000500372B683F31188BFF36F8FBFF34F8FA7
:103F500062B6FEE79A68B2F1A53FDDD1DB68B3F146
:103F6000A53FD9D1DEE7164803EB830200EB8202BE
:103F700051684968516003EB8302920008320244A1
:103F8000914209D003EB83030D4A02EB83035B6884
:103F9000DA68094B1A60A0E7486803EB8301084A16
:103FA00002EB81025060EDE7F86900200C6A002006
:103FB000F0690020F4690020206B0020186A0020BE
:103FC000946A002058B110B50C460A4A116818319D
:103FD000FEF796FE01212046FFF7E2FC10BD4FF0F0
:103FE000500372B683F31188BFF36F8FBFF34F8F07
:103FF00062B6FEE7206B002038B5C368DC6824B3E6
:1040000004F118052846FEF794FE194B1B683BBBCC
:10401000251D2846FEF78DFEE06A01238340154AE0
:1040200011680B43136000EB80002946124B03EB31
:104030008000FEF75AFEE26A104B1B68DB6A9A4268
:1040400013D901200E4B186038BD4FF0500372B6E3
:1040500083F31188BFF36F8FBFF34F8F62B6FEE714
:1040600029460848FEF741FEE5E70020ECE700BFDF
:10407000F8690020186A0020946A0020206B002054
:104080000C6A0020506A0020034B1B680360034B3E
:104090001B684360704700BF086A00201C6A00204C
:1040A000F8B5C8B10C46054609B3FEF7C3FE1D4B73
:1040B00019686B68C81A2268B2F1FF3F2AD01A4EFD
:1040C00036682F68B74201D08B4228D9824219D86E
:1040D0000023236001241EE04FF0500372B683F3E7
:1040E0001188BFF36F8FBFF34F8F62B6FEE74FF0BB
:1040F000500372B683F31188BFF36F8FBFF34F8FF6
:1041000062B6FEE75B1A134423602846FFF7BCFF44
:10411000002400E00024FEF7B3FE2046F8BD012491
:10412000F9E700BF1C6A0020086A0020014B012249
:104130001A6070470C6A002070B50C46164605469A
:10414000D0B1256005F134026260EA6A22612A6B0F
:10415000E261AA6CA2602A6D6261AA6DA261052B60
:1041600019D0124A1268AA4209D02373032B09D02E
:10417000B6B90023238470BD0C4A1568E1E700231B
:104180002373F5E7FFF766FDAB6A0BB102232373D8
:10419000FFF7F6FDECE72846FFF7D6FC2073E7E7CC
:1041A000286BFFF7A7FA2084E5E700BF206B00200B
:1041B0002DE9F0470C683CB307460D4690464B6826
:1041C0005B684B6001F108094B4504D06B68D3F87C
:1041D0000CA0002410E05B684B60F7E76B68DE68BA
:1041E00004EBC4014346012207EB81013046FFF78F
:1041F000A3FF0134B24507D06B68596869608945EF
:10420000ECD14B686B60E9E72046BDE8F087000021
:10421000F8B506460C461746FFF71CFD224B1B68F7
:10422000A3423CD807250024013D04EBC40005EB64
:10423000850101221D4B03EB810106EB8000FFF796
:10424000B7FF0444002DEFD104EBC400184B1968EC
:10425000022206EB8000FFF7ABFF044404EBC4002E
:10426000144B1968022206EB8000FFF7A1FF0444FB
:1042700004EBC4000422104906EB8000FFF798FF0E
:10428000044404EBC40003220C4906EB8000FFF752
:104290008FFF044427B1FCF7EFF8386000E00024FA
:1042A000FFF76EFD2046F8BD206A0020946A0020CA
:1042B000686A0020646A00203C6A0020246A0020AA
:1042C000054B1B6833B1054B1B680BB100207047D1
:1042D0000220704701207047146A0020F86900200E
:1042E00000284FD038B50446C36A284A1268D26AFB
:1042F00093423FD28269002A05DB244A1268D26ABF
:10430000C2F107028261616903EB8303204A02EB79
:104310008303994205D01D4B1B68DB6AE3620120D1
:1043200038BD251D2846FEF704FD70B9E26A02EB90
:1043300082039B001649CB583BB9012303FA02F2D2
:1043400014490B6823EA02030B60104B1B68D86A00
:10435000E062012404FA00F30E4A11680B43136073
:1043600000EB800029460A4B03EB8000FEF7BDFC02
:104370002046D5E7026D054B1B68DB6A9A4203D3E2
:104380000020CDE7002070470120C9E7206B002006
:10439000946A0020186A0020002859D038B50446D5
:1043A000436D53B94FF0500372B683F31188BFF3D6
:1043B0006F8FBFF34F8F62B6FEE7026D8A4200D265
:1043C0000A46E16A914201D0012B00D038BD214B51
:1043D0001B68A34231D0E262A369002B02DBC2F169
:1043E0000702A261626901EB81011B4B03EB8103B0
:1043F0009A42EBD1251D2846FEF79BFC68B9E36A7B
:1044000003EB8302920014498A5832B901229A4080
:1044100012490B6823EA02030B60E06A0123834020
:104420000E4A11680B43136000EB800029460A4BCB
:1044300003EB8000FEF759FCC8E74FF0500372B65B
:1044400083F31188BFF36F8FBFF34F8F62B6FEE720
:10445000704700BF206B0020946A0020186A00207B
:104460002DE9F04F83B00446002303701F4B1D68F5
:10447000186800EBC0008000FEF77AFE80B181462C
:1044800001AA2946FFF7C4FE8246019A184BA3FBF6
:1044900002135B090193632A26D84846FEF7E8FE1B
:1044A00003B0BDE8F08FAA69124900F011FB204665
:1044B000FBF78EFE044401365645EED206EBC605E8
:1044C00009EB8505D5F81880019FB8FBF7FB6968F3
:1044D0002046FFF7B5FA0446B845E4D35B46AA691F
:1044E000054900F0F5FAE2E70026E5E7206A00203A
:1044F0001F85EB51005F0008F45E0008054B1B6848
:1045000023B1044B1A68536D01335365014B18688E
:10451000704700BF206B002010B50C464FF0FF33F2
:104520000A4601460248FEF74EFA204610BD00BF7B
:104530009C07002030B583B0002413E00D4B04EB42
:10454000440203EB82010C4D8968009113F822307C
:104550000A4A2821284600F087FA81B22846FFF748
:10456000DBFF0134064B1B68A342E7DC002003B0ED
:1045700030BD00BF786B0020506B00200C5F00083E
:10458000786E002010B588B00446037800221BE046
:104590000134237873B107280CDC202BF8D1234693
:1045A000002103F8011B08A901EB800141F8203C20
:1045B0000130EDE702EB4202114B03EB82035B6833
:1045C000694698471AE001320E490968914209DDAF
:1045D00002EB42010A4810F821109942F3D10094ED
:1045E0000120D6E7084C094A2821204600F03CFA71
:1045F00014212046FFF790FF4FF0FF3008B010BDA8
:10460000786B0020786E0020506B0020185F000847
:1046100000B583B001220DF107010748FEF7F2FA59
:104620004FF0FF31054B1868FEF789FF9DF8070032
:1046300003B05DF804FB00BF9C0700204C6B00201A
:1046400000B583B00023019301A9094B1868FEF758
:1046500015FF019B4BB14FF0E0234FF08052C3F8A0
:10466000042DBFF34F8FBFF36F8F03B05DF804FBD2
:104670004C6B00200B4B1B683F2B10DC10B50A4C19
:1046800003EB430E04EB8E0C04F82E00CCF8041060
:10469000CCF808200133034A1360002010BD4FF00E
:1046A000FF307047786E0020786B002038B5124DCF
:1046B000AC46124C0FCCACE80F000FCCACE80F00AE
:1046C00094E803004CF8040BACF8001025212846B0
:1046D000FFF722FF032200210120FEF7A6FE084B70
:1046E000186028B1074A08496820FFF7C3FF38BDA2
:1046F000064800F0B1F9FEE7506B0020305F00087B
:104700004C6B0020705F000835450008585F0008BA
:1047100070B582B0002623E0FFF77AFF8DF807001E
:10472000082823D00D2829D11B4D1C4B1B682B803A
:104730001B0CAB7002212846FFF7EEFE184B00243D
:104740009C55184A2821284600F08EF981B2284647
:10475000FFF7E2FE2646002CDED11148FFF712FFDC
:1047600002211148FFF7D8FE0124F4E7002EF2DD04
:10477000013E03210D48FFF7CFFEECE7272EEADCD0
:1047800001210DF10700FFF7C7FE9DF80720044B3C
:104790009A550136DFE700BF506B0020785F0008B4
:1047A000246B00207C5F0008100000201400002013
:1047B000DFF834D00D480E490E4A002302E0D458E9
:1047C000C4500433C4188C42F9D30B4A0B4C002359
:1047D00001E013600432A242FBD3FBF7CDFF00F0EF
:1047E000C3FAFBF7C1FE704700000520000000205F
:1047F00074000020C85F000874000020C86F00200B
:10480000FEE70000002310B50446C0E90033C0E90C
:104810000433836081814366C28183611946082223
:104820005C3000F04DFA0D4B63620D4BA3620D4BF3
:10483000E3620D4B23630D4B24629C4206D003F1CF
:104840006802944202D0D0339C4205D104F1580052
:10485000BDE8104000F0ACBA10BD00BF114B00081D
:10486000334B00086B4B00088F4B00087C6E002018
:10487000024A0349034800F069B800BF180000204D
:10488000355900082800002041680C4B994210B5AA
:10489000044601D001F04EF8A168094B994202D0BC
:1048A000204601F047F8E168064B994204D02046C3
:1048B000BDE8104001F03EB810BD00BF7C6E002086
:1048C000E46E00204C6F002010B50B4B0B4C0C4AD3
:1048D0001A60204600220421FFF794FF04F16800CB
:1048E00001220921FFF78EFF04F1D0000222BDE86A
:1048F00010401221FFF786BFB46F00207C6E0020AD
:1049000071480008014800F054BA00BFBD6F002094
:10491000014800F04FBA00BFBD6F002010B504463B
:10492000FFF7F0FF236A1BB1BDE81040FFF7F0BFAF
:10493000044B2362044B1B68002BF5D1FFF7C4FF27
:10494000F2E700BF89480008B46F00202DE9F84362
:104950000746884614460026D4E90195B9F10109B5
:1049600005D52468002CF7D13046BDE8F883AB8923
:10497000012B07D9B5F90E30013303D0294638464B
:10498000C04706436835E9E70FB407B5064904ABED
:10499000086853F8042B8168019300F095FC03B07C
:1049A0005DF804EB04B0704724000020036A70B582
:1049B000846805460E460BB9FFF7B0FF636EDB0750
:1049C00005D4A389980502D4A06D00F0F2F9A3895B
:1049D000190702D52369002B35D12146284600F05E
:1049E00019F980B34FF0FF35636EDA0705D4A38958
:1049F0009B0502D4A06D00F0DDF9284670BD002BA8
:104A000015DB23685A1C22601970A36816F8011F71
:104A1000013BA3600029F2D1002B16DA22460A21BD
:104A2000284600F0B8F80130DCD00A25DCE7A2699E
:104A30009A4201DC0A29E4D12246284600F0ABF86C
:104A40000130E2D1CEE7013EDFE723685A1C226045
:104A50000A221A70E9E70000024B01461868FFF7C6
:104A6000A5BF00BF240000200CB430B5174B0C1EAE
:104A70001D689DB008DA8B232B604FF0FF301DB00E
:104A8000BDE8304002B070474FF40273ADF8143007
:104A900014BF04F1FF332346049307934FF6FF73CB
:104AA00002900690ADF81630209A21AB02A9284654
:104AB000019300F0E3FA431CBCBF8B232B60002C56
:104AC000DDD0029B00221A70D9E700BF240000202D
:104AD0000EB400B59CB01DAB029006906FF0004183
:104AE000094807910491094953F8042B059100687E
:104AF000019302A900F0C2FA029B00221A701CB0B6
:104B00005DF804EB03B07047240000200802FFFFAB
:104B100010B50C46B1F90E1000F0FCF80028ABBF40
:104B2000636DA3891B1823F48053ACBF6365A38115
:104B300010BD2DE9F0411F468B89DB0505460C466B
:104B4000164605D5B1F90E100223002200F0D0F868
:104B5000A389B4F90E1023F48053A38132463B4657
:104B60002846BDE8F04100F0E7B810B50C46B1F9B1
:104B70000E1000F0BDF8431CA38915BF606523F437
:104B8000805343F48053A38118BFA38110BDB1F9B2
:104B90000E1000F09DB8F8B50E461446054618B143
:104BA000036A0BB9FFF7BAFEA369A360A3891A07CA
:104BB00001D5236943B92146284600F02BF818B1E6
:104BC0004FF0FF373846F8BD23682269981A6369A9
:104BD000F6B28342374605DC2146284600F0AAFE9D
:104BE0000028EDD1A368013BA36023685A1C226012
:104BF0001E706269431C9A4204D0A389DB07E1D589
:104C00000A2EDFD12146284600F094FE0028D9D094
:104C1000D6E7000038B5294B054618680C4618B190
:104C2000036A0BB9FFF77AFEB4F90C30190722D4E6
:104C3000DA0607D409222A6043F04003A3814FF02B
:104C4000FF3033E0580712D5616B41B104F14403E2
:104C5000994202D0284600F0C5F800236363A38977
:104C600023F02403A3810023636023692360A389C5
:104C700043F00803A38123694BB9A38903F420738C
:104C8000B3F5007F03D02146284600F0A1FEB4F919
:104C90000C3013F001020AD00022A2606269524275
:104CA000A261226942B913F08000C5D138BD9907CD
:104CB00058BF6269A260F4E70020F7E724000020F3
:104CC00002440346934200D1704703F8011BF9E701
:104CD00038B5064D0023044608462B60FBF71CFD43
:104CE000431C02D12B6803B1236038BDB86F00208C
:104CF00038B5074D04460846114600222A601A4678
:104D0000FBF714FD431C02D12B6803B1236038BDAF
:104D1000B86F002038B5074D0446084611460022FA
:104D20002A601A46FBF7DAFC431C02D12B6803B158
:104D3000236038BDB86F002038B5074D04460846DB
:104D4000114600222A601A46FBF7D8FC431C02D108
:104D50002B6803B1236038BDB86F0020014B186881
:104D6000704700BF2400002070B50D4D0D4C641B32
:104D7000A4100026A64209D10B4D0C4C01F044F8BA
:104D8000641BA4100026A64205D170BD55F8043B53
:104D900098470136EEE755F8043B98470136F2E7AD
:104DA000C05F0008C05F0008C05F0008C45F000863
:104DB000704770477047034611F8012B03F8012B29
:104DC000002AF9D170470A44914200F1FF3300D123
:104DD000704710B511F8014B03F8014F9142F9D11A
:104DE00010BD000038B50546002941D051F8043CFB
:104DF0000C1F002BB8BFE41800F0D8F81D4A136848
:104E000033B9636014602846BDE8384000F0D4B878
:104E1000A34208D9206821188B4201BF19685B683A
:104E200009182160EDE71A465B680BB1A342FAD975
:104E300011685018A0420BD12068014450188342D9
:104E40001160E0D118685B68536008441060DAE7CD
:104E500002D90C232B60D6E7206821188B4204BFAF
:104E600019685B68636004BF091821605460CAE771
:104E700038BD00BFC46F002070B50F4E0C463168BE
:104E8000054611B900F01CFE30602146284600F0AE
:104E900017FE431C03D14FF0FF34204670BDC41CE5
:104EA00024F00304A042F8D0211A284600F008FE9E
:104EB0000130F2D1EFE700BFC06F00202DE9F041D3
:104EC000CD1C25F0030508350C2D38BF0C25002D11
:104ED000064601DBA94204D90C2333600020BDE85B
:104EE000F081314F00F062F83B681C4644BB294614
:104EF0003046FFF7C1FF431C044650D13C682146B1
:104F0000002941D1002C44D02368304604EB03082B
:104F100000F0D6FD80453CD121686D1A2946304607
:104F2000FFF7AAFF013034D023682B4423603B688D
:104F3000002B36D05A68A24229D100225A600EE0D6
:104F40002268521B1DD40B2A16D96119A342256071
:104F500018BF5960636808BF396062514B603046C2
:104F600000F02AF804F10B00231D20F00700C21AFC
:104F7000B5D01B1AA350B2E7A3426268DED13A60F3
:104F8000EDE723466468B1E70C464968B8E7134685
:104F9000CEE70C233360304600F00EF89EE7056044
:104FA000DDE75B60FFDE00BFC46F00200148FFF754
:104FB00000BF00BFBC6F00200148FFF7FBBE00BF71
:104FC000BC6F00202DE9F0478E681F46BE420B687B
:104FD00082460C4690462DD8B1F90C2012F4906F01
:104FE00026D06569096905EB4505A3EB010905EBC9
:104FF000D5757B1C4B446D109D4238BF1D46530533
:1050000027D52946FFF75AFF064660B321694A466D
:10501000FFF7D9FEA38923F4906343F08003A381B3
:10502000266165614E44A5EB09052660A5603E46F4
:10503000BE4200D93E4620683246414600F004FD9B
:10504000A3689B1BA3602368334423600020BDE852
:10505000F0872A4600F044FD06460028E0D1216989
:105060005046FFF7BFFE0C23CAF80030A38943F077
:105070004003A3814FF0FF30E9E700002DE9F04F36
:1050800098468B891B069DB007460D46144610D5E1
:105090000B6973B94021FFF711FF2860286130B90F
:1050A0000C233B604FF0FF301DB0BDE8F08F402374
:1050B0006B610023099320238DF82930CDF80C80F3
:1050C0003023DFF89C818DF82A304FF00109234608
:1050D0009A4613F8012B0AB1252AF9D1BAEB040B31
:1050E0000BD05B46224629463846FFF76BFF01305E
:1050F00000F0A780099A5A4409929AF80030002BD0
:1051000000F09F8000234FF0FF32CDE905230AF124
:10511000010A049307938DF853301A9354460522DD
:1051200014F8011B4E48FBF75BF8049AD8B9D00677
:1051300044BF20238DF85330110744BF2B238DF833
:1051400053309AF800302A2B15D0079A5446002085
:105150004FF00A0C214611F8013B303B092B4BD98B
:10516000B0B1079214E0A0EB080309FA03F313436C
:105170000493A246D2E7039B191D1B680391002BE1
:10518000BBBF5B4242F0020207930793B8BF049291
:1051900023782E2B0AD163782A2B32D1039B1A1D38
:1051A0001B68039243EAE37302340593DFF8C0A05F
:1051B000217803225046FBF713F838B1049BA0EB8B
:1051C0000A004022824013430134049314F8011B67
:1051D00024488DF828100622FBF702F8002836D064
:1051E000214B1BBB039B073323F0070308330393B7
:1051F000099B334409936AE70CFB02320C460120F9
:10520000A8E700230134059319464FF00A0C204605
:1052100010F8012B303A092A03D9002BC6D005918A
:10522000C4E70CFB012104460123F0E703AB009324
:105230002A460E4B04A93846AFF30080421C0646AE
:10524000D6D1AB895B063FF52DAF09982CE703ABB0
:1052500000932A46054B04A9384600F0BBF9EDE758
:10526000825F00088C5F000800000000C54F000846
:10527000885F00089368013B002B10B4936008DA44
:105280009469A34201DB0A2903D15DF8044BFFF7BF
:1052900082BC1368581C1060197008465DF8044BF6
:1052A0007047F8B506460F461446D518AC4201D1F2
:1052B000002007E014F8011B3A463046FFF7DAFFFA
:1052C000431CF3D1F8BD00002DE9F04F0D469DB011
:1052D00014469846064618B1036A0BB9FFF71EFB41
:1052E0006B6ED90705D4AB899A0502D4A86DFFF778
:1052F00060FDAB891B0701D52B699BB92946304658
:10530000FFF788FC70B16B6EDC0704D54FF0FF30FF
:105310001DB0BDE8F08FAB899805F7D4A86DFFF7F5
:1053200049FDF3E70023099320238DF82930CDF8B8
:105330000C803023DFF8AC818DF82A304FF0010962
:1053400023469A4613F8012B0AB1252AF9D1BAEB64
:10535000040B0BD05B46224629463046FFF7A1FFDF
:10536000013000F0A780099A5A4409929AF8003057
:10537000002B00F09F8000234FF0FF32CDE9052382
:105380000AF1010A049307938DF853301A93544697
:10539000052214F8011B5348FAF722FF049AD8B9E2
:1053A000D10644BF20238DF85330130744BF2B236D
:1053B0008DF853309AF800302A2B15D0079A5446AE
:1053C00000204FF00A0C214611F8013B303B092B1D
:1053D0004BD9B0B1079214E0A0EB080309FA03F32C
:1053E00013430493A246D2E7039B191D1B68039144
:1053F000002BBBBF5B4242F0020207930793B8BF8A
:10540000049223782E2B0AD163782A2B32D1039B66
:105410001A1D1B68039243EAE37302340593DFF815
:10542000D4A0217803225046FAF7DAFE38B1049B63
:10543000A0EB0A004022824013430134049314F885
:10544000011B29488DF828100622FAF7C9FE00280A
:105450003FD0264B1BBB039B073323F007030833C6
:105460000393099B3B4409936AE70CFB02320C4609
:105470000120A8E700230134059319464FF00A0CD8
:10548000204610F8012B303A092A03D9002BC6D048
:105490000591C4E70CFB012104460123F0E703ABAF
:1054A00000932A46124B04A93046AFF3008007460A
:1054B000781CD6D16B6ED90705D4AB899A0502D476
:1054C000A86DFFF777FCAB895B063FF51FAF099826
:1054D0001EE703AB00932A46054B04A9304600F0B3
:1054E00079F8E4E7825F00088C5F000800000000A4
:1054F000A3520008885F00082DE9F0471646984639
:105500008A680B69DDF820909342B8BF1346336078
:1055100091F8432007460C460AB1013333602368F3
:10552000990642BF336802333360256815F00605DB
:1055300006D104F1190AE36832689B1AAB4226DCF3
:1055400094F843302268003B18BF012392062BD405
:1055500004F1430241463846C84701301ED0236853
:10556000226903F00603042B02BFE5683368ED1AD5
:10557000A3680CBF25EAE57500259342C4BF9B1ABA
:10558000ED1800261A34B5421AD1002008E0012394
:10559000524641463846C847013003D14FF0FF30EC
:1055A000BDE8F0870135C6E7E1185A1C302081F8C4
:1055B0004300224494F8451082F843100233C7E7B1
:1055C0000123224641463846C8470130E6D001361D
:1055D000D9E700002DE9FF470F7E0C9E782F9146FA
:1055E00080460C469A4601F1430207D8622F0AD83A
:1055F000002F00F0DD80582F00F0C38004F1420638
:1056000084F842703AE0A7F16303152BF6D801A1A4
:1056100051F823F06D56000881560008FD5500082A
:10562000FD550008FD550008FD550008815600088D
:10563000FD550008FD550008FD550008FD55000802
:10564000975700080F5700084F570008FD550008EE
:10565000FD550008B9570008FD5500080F57000810
:10566000FD550008FD5500085757000833681A1DFE
:105670001B68326004F1420684F842300123A8E03E
:1056800031682368081D30601E0601D50D6803E0EF
:105690005D06FBD5B1F900506168002D78DA2D2048
:1056A000002984F84300A1602DDA5E486D420A2388
:1056B0001646B5FBF3F103FB1157C75D06F8017DF4
:1056C0002F46BB420D46F4D9082B0BD12368DF07C8
:1056D00008D5236961689942DEBF302306F8013C92
:1056E00006F1FF36921B2261CDF800A04B4603AABB
:1056F00021464046FFF700FF01306FD14FF0FF30E9
:1057000004B0BDE8F08723F004032360CDE72168EF
:105710003368080653F8045B02D4490648BFADB2AB
:105720006F2F4048336014BF0A230823002184F8F8
:1057300043106668A660002EBADB216821F00401E0
:105740002160002DB4D1002EB2D11646BCE72368EB
:1057500043F0200323603448782784F84570236899
:1057600031681F0651F8045B02D45F0648BFADB232
:105770003160D90744BF43F0200323601DB11023DB
:10578000D4E72848E9E7236823F020032360F6E7FD
:1057900024480A23CDE7336825686169181D306005
:1057A0002E061B6801D5196002E06806FBD519803A
:1057B00000232361164697E733681A1D32601E687E
:1057C000626800213046FAF70BFD08B1801B60606B
:1057D00063682361002384F8433085E723693246F8
:1057E00049464046D047013088D023689B0714D4EF
:1057F000E068039B9842B8BF184681E70123324610
:1058000049464046D04701303FF478AF0135E36860
:1058100003995B1AAB42F1DCEAE7002504F11906B3
:10582000F5E700BF935F0008A45F0008B1F90C2002
:105830002DE9F041170705460C4656D44B68002B5E
:1058400002DC0B6C002B3DDDE66A002E3AD0002313
:1058500012F480522F68216A2B6025D0626DA389D3
:10586000580705D56368D21A636B0BB1236CD21A43
:10587000216AE66A00232846B047411C24D0002351
:10588000636023692360A389DA0400D56065616BD6
:105890002F60B9B104F14403994202D02846FFF7C2
:1058A000A1FA002363630DE001232846B047461C9C
:1058B0000246D4D12B68002BD1D01D2B01D0162B42
:1058C0002BD12F6000202FE02A68B4F90C3042B1B0
:1058D0001D2A01D0162A22D1002363602369236088
:1058E000D5E7626022692260CEE70F69002FE9D018
:1058F00093070E6808BF4B690F6018BF0023A6EB23
:1059000007088B60B8F1000FDCDD216AA66A434608
:105910003A462846B047002808DCB4F90C3043F07A
:105920004003A3814FF0FF30BDE8F0810744A8EBAE
:105930000008E7E738B50B6905460C4613B90025A2
:10594000284638BD18B1036A0BB9FEF7E7FFB4F972
:105950000C30002BF3D0626ED00704D4990502D42A
:10596000A06DFFF726FA28462146FFF75FFF636E1A
:10597000DA070546E4D4A3899B05E1D4A06DFFF7BF
:1059800019FADDE770B50C46B1F90E10002996B092
:1059900015461E460DDAA38913F0800F4FF0000163
:1059A00014BF40234FF48063002031602B6016B099
:1059B00070BD6A4600F062F80028ECDB019901F442
:1059C0007041A1F50053594259414FF48063EBE710
:1059D0008B89F7B59D0706460C4607D504F14703AA
:1059E000236023610123636103B0F0BD01AB6A460C
:1059F000FFF7C8FF009F054639463046FFF75EFABD
:105A000048B9B4F90C309A05EED423F0030343F0FF
:105A10000203A381E2E7A389206043F08003A3810E
:105A2000019BC4E904075BB1B4F90E10304600F0E5
:105A300037F828B1A38923F0030343F00103A381BE
:105A4000A3891D43A581CFE7884210B501EB02046D
:105A500002D98442234607D8431EA14208D011F838
:105A6000012B03F8012FF8E7024401468A4200D1D6
:105A700010BD13F8014D02F8014DF7E738B5074D99
:105A800000230446084611462B60FAF748FE431CE3
:105A900002D12B6803B1236038BD00BFB86F00206E
:105AA00038B5064D0023044608462B60FAF73CFE45
:105AB000431C02D12B6803B1236038BDB86F0020AE
:105AC00038B5064D0023044608462B60FAF730FE31
:105AD000431C02D12B6803B1236038BDB86F00208E
